{
	"contracts/Voting.sol": {
		"Voting": {
			"abi": [
				{
					"inputs": [],
					"stateMutability": "nonpayable",
					"type": "constructor"
				},
				{
					"inputs": [
						{
							"internalType": "address",
							"name": "owner",
							"type": "address"
						}
					],
					"name": "OwnableInvalidOwner",
					"type": "error"
				},
				{
					"inputs": [
						{
							"internalType": "address",
							"name": "account",
							"type": "address"
						}
					],
					"name": "OwnableUnauthorizedAccount",
					"type": "error"
				},
				{
					"anonymous": false,
					"inputs": [
						{
							"indexed": true,
							"internalType": "address",
							"name": "previousOwner",
							"type": "address"
						},
						{
							"indexed": true,
							"internalType": "address",
							"name": "newOwner",
							"type": "address"
						}
					],
					"name": "OwnershipTransferred",
					"type": "event"
				},
				{
					"anonymous": false,
					"inputs": [
						{
							"indexed": false,
							"internalType": "uint256",
							"name": "proposalId",
							"type": "uint256"
						}
					],
					"name": "ProposalRegistered",
					"type": "event"
				},
				{
					"anonymous": false,
					"inputs": [
						{
							"indexed": false,
							"internalType": "address",
							"name": "voter",
							"type": "address"
						},
						{
							"indexed": false,
							"internalType": "uint256",
							"name": "proposalId",
							"type": "uint256"
						}
					],
					"name": "Voted",
					"type": "event"
				},
				{
					"anonymous": false,
					"inputs": [
						{
							"indexed": false,
							"internalType": "address",
							"name": "voterAddress",
							"type": "address"
						}
					],
					"name": "VoterRegistered",
					"type": "event"
				},
				{
					"anonymous": false,
					"inputs": [
						{
							"indexed": false,
							"internalType": "enum WorkflowStatus",
							"name": "previousStatus",
							"type": "uint8"
						},
						{
							"indexed": false,
							"internalType": "enum WorkflowStatus",
							"name": "newStatus",
							"type": "uint8"
						}
					],
					"name": "WorkflowStatusChange",
					"type": "event"
				},
				{
					"inputs": [],
					"name": "closeProposaRegistration",
					"outputs": [],
					"stateMutability": "nonpayable",
					"type": "function"
				},
				{
					"inputs": [],
					"name": "currentStatus",
					"outputs": [
						{
							"internalType": "enum WorkflowStatus",
							"name": "",
							"type": "uint8"
						}
					],
					"stateMutability": "view",
					"type": "function"
				},
				{
					"inputs": [],
					"name": "endVotingSession",
					"outputs": [],
					"stateMutability": "nonpayable",
					"type": "function"
				},
				{
					"inputs": [],
					"name": "getWinnerProposal",
					"outputs": [
						{
							"components": [
								{
									"internalType": "string",
									"name": "description",
									"type": "string"
								},
								{
									"internalType": "uint256",
									"name": "voteCount",
									"type": "uint256"
								}
							],
							"internalType": "struct Proposal",
							"name": "",
							"type": "tuple"
						}
					],
					"stateMutability": "view",
					"type": "function"
				},
				{
					"inputs": [],
					"name": "openProposalRegistration",
					"outputs": [],
					"stateMutability": "nonpayable",
					"type": "function"
				},
				{
					"inputs": [],
					"name": "owner",
					"outputs": [
						{
							"internalType": "address",
							"name": "",
							"type": "address"
						}
					],
					"stateMutability": "view",
					"type": "function"
				},
				{
					"inputs": [
						{
							"internalType": "uint256",
							"name": "",
							"type": "uint256"
						}
					],
					"name": "proposals",
					"outputs": [
						{
							"internalType": "string",
							"name": "description",
							"type": "string"
						},
						{
							"internalType": "uint256",
							"name": "voteCount",
							"type": "uint256"
						}
					],
					"stateMutability": "view",
					"type": "function"
				},
				{
					"inputs": [
						{
							"internalType": "string",
							"name": "description",
							"type": "string"
						}
					],
					"name": "proposeProposals",
					"outputs": [],
					"stateMutability": "nonpayable",
					"type": "function"
				},
				{
					"inputs": [
						{
							"internalType": "address",
							"name": "voter",
							"type": "address"
						}
					],
					"name": "registerVoter",
					"outputs": [],
					"stateMutability": "nonpayable",
					"type": "function"
				},
				{
					"inputs": [],
					"name": "renounceOwnership",
					"outputs": [],
					"stateMutability": "nonpayable",
					"type": "function"
				},
				{
					"inputs": [],
					"name": "startVotingSession",
					"outputs": [],
					"stateMutability": "nonpayable",
					"type": "function"
				},
				{
					"inputs": [],
					"name": "tallyVotes",
					"outputs": [
						{
							"components": [
								{
									"internalType": "string",
									"name": "description",
									"type": "string"
								},
								{
									"internalType": "uint256",
									"name": "voteCount",
									"type": "uint256"
								}
							],
							"internalType": "struct Proposal",
							"name": "",
							"type": "tuple"
						}
					],
					"stateMutability": "nonpayable",
					"type": "function"
				},
				{
					"inputs": [
						{
							"internalType": "address",
							"name": "newOwner",
							"type": "address"
						}
					],
					"name": "transferOwnership",
					"outputs": [],
					"stateMutability": "nonpayable",
					"type": "function"
				},
				{
					"inputs": [
						{
							"internalType": "address",
							"name": "voter",
							"type": "address"
						},
						{
							"internalType": "uint256",
							"name": "proposalId",
							"type": "uint256"
						}
					],
					"name": "vote",
					"outputs": [],
					"stateMutability": "nonpayable",
					"type": "function"
				},
				{
					"inputs": [
						{
							"internalType": "address",
							"name": "",
							"type": "address"
						}
					],
					"name": "voters",
					"outputs": [
						{
							"internalType": "bool",
							"name": "isRegistered",
							"type": "bool"
						},
						{
							"internalType": "bool",
							"name": "hasVoted",
							"type": "bool"
						},
						{
							"internalType": "uint256",
							"name": "votedProposalId",
							"type": "uint256"
						}
					],
					"stateMutability": "view",
					"type": "function"
				},
				{
					"inputs": [],
					"name": "winnerProposal",
					"outputs": [
						{
							"internalType": "string",
							"name": "description",
							"type": "string"
						},
						{
							"internalType": "uint256",
							"name": "voteCount",
							"type": "uint256"
						}
					],
					"stateMutability": "view",
					"type": "function"
				}
			],
			"devdoc": {
				"errors": {
					"OwnableInvalidOwner(address)": [
						{
							"details": "The owner is not a valid owner account. (eg. `address(0)`)"
						}
					],
					"OwnableUnauthorizedAccount(address)": [
						{
							"details": "The caller account is not authorized to perform an operation."
						}
					]
				},
				"kind": "dev",
				"methods": {
					"owner()": {
						"details": "Returns the address of the current owner."
					},
					"renounceOwnership()": {
						"details": "Leaves the contract without owner. It will not be possible to call `onlyOwner` functions. Can only be called by the current owner. NOTE: Renouncing ownership will leave the contract without an owner, thereby disabling any functionality that is only available to the owner."
					},
					"transferOwnership(address)": {
						"details": "Transfers ownership of the contract to a new account (`newOwner`). Can only be called by the current owner."
					}
				},
				"version": 1
			},
			"evm": {
				"assembly": "    /* \"contracts/Voting.sol\":455:4504  contract Voting is Ownable{... */\n  mstore(0x40, 0x80)\n    /* \"contracts/Voting.sol\":879:979  constructor() Ownable(msg.sender) { ... */\n  callvalue\n  dup1\n  iszero\n  tag_1\n  jumpi\n  revert(0x00, 0x00)\ntag_1:\n  pop\n    /* \"contracts/Voting.sol\":901:911  msg.sender */\n  caller\n    /* \"@openzeppelin/contracts/access/Ownable.sol\":1297:1298  0 */\n  0x00\n    /* \"@openzeppelin/contracts/access/Ownable.sol\":1273:1299  initialOwner == address(0) */\n  0xffffffffffffffffffffffffffffffffffffffff\n  and\n    /* \"@openzeppelin/contracts/access/Ownable.sol\":1273:1285  initialOwner */\n  dup2\n    /* \"@openzeppelin/contracts/access/Ownable.sol\":1273:1299  initialOwner == address(0) */\n  0xffffffffffffffffffffffffffffffffffffffff\n  and\n  sub\n    /* \"@openzeppelin/contracts/access/Ownable.sol\":1269:1364  if (initialOwner == address(0)) {... */\n  tag_5\n  jumpi\n    /* \"@openzeppelin/contracts/access/Ownable.sol\":1350:1351  0 */\n  0x00\n    /* \"@openzeppelin/contracts/access/Ownable.sol\":1322:1353  OwnableInvalidOwner(address(0)) */\n  mload(0x40)\n  0x1e4fbdf700000000000000000000000000000000000000000000000000000000\n  dup2\n  mstore\n  0x04\n  add\n  tag_6\n  swap2\n  swap1\n  tag_7\n  jump\t// in\ntag_6:\n  mload(0x40)\n  dup1\n  swap2\n  sub\n  swap1\n  revert\n    /* \"@openzeppelin/contracts/access/Ownable.sol\":1269:1364  if (initialOwner == address(0)) {... */\ntag_5:\n    /* \"@openzeppelin/contracts/access/Ownable.sol\":1373:1405  _transferOwnership(initialOwner) */\n  tag_8\n    /* \"@openzeppelin/contracts/access/Ownable.sol\":1392:1404  initialOwner */\n  dup2\n    /* \"@openzeppelin/contracts/access/Ownable.sol\":1373:1391  _transferOwnership */\n  shl(0x20, tag_9)\n    /* \"@openzeppelin/contracts/access/Ownable.sol\":1373:1405  _transferOwnership(initialOwner) */\n  0x20\n  shr\n  jump\t// in\ntag_8:\n    /* \"@openzeppelin/contracts/access/Ownable.sol\":1225:1412  constructor(address initialOwner) {... */\n  pop\n    /* \"contracts/Voting.sol\":940:972  WorkflowStatus.RegisteringVoters */\n  0x00\n    /* \"contracts/Voting.sol\":924:937  currentStatus */\n  0x02\n  0x00\n    /* \"contracts/Voting.sol\":924:972  currentStatus = WorkflowStatus.RegisteringVoters */\n  0x0100\n  exp\n  dup2\n  sload\n  dup2\n  0xff\n  mul\n  not\n  and\n  swap1\n  dup4\n  0x05\n  dup2\n  gt\n  iszero\n  tag_11\n  jumpi\n  tag_12\n  tag_13\n  jump\t// in\ntag_12:\ntag_11:\n  mul\n  or\n  swap1\n  sstore\n  pop\n    /* \"contracts/Voting.sol\":455:4504  contract Voting is Ownable{... */\n  jump(tag_14)\n    /* \"@openzeppelin/contracts/access/Ownable.sol\":2912:3099  function _transferOwnership(address newOwner) internal virtual {... */\ntag_9:\n    /* \"@openzeppelin/contracts/access/Ownable.sol\":2985:3001  address oldOwner */\n  0x00\n    /* \"@openzeppelin/contracts/access/Ownable.sol\":3004:3010  _owner */\n  0x00\n  0x00\n  swap1\n  sload\n  swap1\n  0x0100\n  exp\n  swap1\n  div\n  0xffffffffffffffffffffffffffffffffffffffff\n  and\n    /* \"@openzeppelin/contracts/access/Ownable.sol\":2985:3010  address oldOwner = _owner */\n  swap1\n  pop\n    /* \"@openzeppelin/contracts/access/Ownable.sol\":3029:3037  newOwner */\n  dup2\n    /* \"@openzeppelin/contracts/access/Ownable.sol\":3020:3026  _owner */\n  0x00\n  0x00\n    /* \"@openzeppelin/contracts/access/Ownable.sol\":3020:3037  _owner = newOwner */\n  0x0100\n  exp\n  dup2\n  sload\n  dup2\n  0xffffffffffffffffffffffffffffffffffffffff\n  mul\n  not\n  and\n  swap1\n  dup4\n  0xffffffffffffffffffffffffffffffffffffffff\n  and\n  mul\n  or\n  swap1\n  sstore\n  pop\n    /* \"@openzeppelin/contracts/access/Ownable.sol\":3083:3091  newOwner */\n  dup2\n    /* \"@openzeppelin/contracts/access/Ownable.sol\":3052:3092  OwnershipTransferred(oldOwner, newOwner) */\n  0xffffffffffffffffffffffffffffffffffffffff\n  and\n    /* \"@openzeppelin/contracts/access/Ownable.sol\":3073:3081  oldOwner */\n  dup2\n    /* \"@openzeppelin/contracts/access/Ownable.sol\":3052:3092  OwnershipTransferred(oldOwner, newOwner) */\n  0xffffffffffffffffffffffffffffffffffffffff\n  and\n  0x8be0079c531659141344cd1fd0a4f28419497f9722a3daafe3b4186f6b6457e0\n  mload(0x40)\n  mload(0x40)\n  dup1\n  swap2\n  sub\n  swap1\n  log3\n    /* \"@openzeppelin/contracts/access/Ownable.sol\":2975:3099  {... */\n  pop\n    /* \"@openzeppelin/contracts/access/Ownable.sol\":2912:3099  function _transferOwnership(address newOwner) internal virtual {... */\n  pop\n  jump\t// out\n    /* \"#utility.yul\":7:133   */\ntag_16:\n    /* \"#utility.yul\":44:51   */\n  0x00\n    /* \"#utility.yul\":84:126   */\n  0xffffffffffffffffffffffffffffffffffffffff\n    /* \"#utility.yul\":77:82   */\n  dup3\n    /* \"#utility.yul\":73:127   */\n  and\n    /* \"#utility.yul\":62:127   */\n  swap1\n  pop\n    /* \"#utility.yul\":7:133   */\n  swap2\n  swap1\n  pop\n  jump\t// out\n    /* \"#utility.yul\":139:235   */\ntag_17:\n    /* \"#utility.yul\":176:183   */\n  0x00\n    /* \"#utility.yul\":205:229   */\n  tag_22\n    /* \"#utility.yul\":223:228   */\n  dup3\n    /* \"#utility.yul\":205:229   */\n  tag_16\n  jump\t// in\ntag_22:\n    /* \"#utility.yul\":194:229   */\n  swap1\n  pop\n    /* \"#utility.yul\":139:235   */\n  swap2\n  swap1\n  pop\n  jump\t// out\n    /* \"#utility.yul\":241:359   */\ntag_18:\n    /* \"#utility.yul\":328:352   */\n  tag_24\n    /* \"#utility.yul\":346:351   */\n  dup2\n    /* \"#utility.yul\":328:352   */\n  tag_17\n  jump\t// in\ntag_24:\n    /* \"#utility.yul\":323:326   */\n  dup3\n    /* \"#utility.yul\":316:353   */\n  mstore\n    /* \"#utility.yul\":241:359   */\n  pop\n  pop\n  jump\t// out\n    /* \"#utility.yul\":365:587   */\ntag_7:\n    /* \"#utility.yul\":458:462   */\n  0x00\n    /* \"#utility.yul\":496:498   */\n  0x20\n    /* \"#utility.yul\":485:494   */\n  dup3\n    /* \"#utility.yul\":481:499   */\n  add\n    /* \"#utility.yul\":473:499   */\n  swap1\n  pop\n    /* \"#utility.yul\":509:580   */\n  tag_26\n    /* \"#utility.yul\":577:578   */\n  0x00\n    /* \"#utility.yul\":566:575   */\n  dup4\n    /* \"#utility.yul\":562:579   */\n  add\n    /* \"#utility.yul\":553:559   */\n  dup5\n    /* \"#utility.yul\":509:580   */\n  tag_18\n  jump\t// in\ntag_26:\n    /* \"#utility.yul\":365:587   */\n  swap3\n  swap2\n  pop\n  pop\n  jump\t// out\n    /* \"#utility.yul\":593:773   */\ntag_13:\n    /* \"#utility.yul\":641:718   */\n  0x4e487b7100000000000000000000000000000000000000000000000000000000\n    /* \"#utility.yul\":638:639   */\n  0x00\n    /* \"#utility.yul\":631:719   */\n  mstore\n    /* \"#utility.yul\":738:742   */\n  0x21\n    /* \"#utility.yul\":735:736   */\n  0x04\n    /* \"#utility.yul\":728:743   */\n  mstore\n    /* \"#utility.yul\":762:766   */\n  0x24\n    /* \"#utility.yul\":759:760   */\n  0x00\n    /* \"#utility.yul\":752:767   */\n  revert\n    /* \"contracts/Voting.sol\":455:4504  contract Voting is Ownable{... */\ntag_14:\n  dataSize(sub_0)\n  dup1\n  dataOffset(sub_0)\n  0x00\n  codecopy\n  0x00\n  return\nstop\n\nsub_0: assembly {\n        /* \"contracts/Voting.sol\":455:4504  contract Voting is Ownable{... */\n      mstore(0x40, 0x80)\n      callvalue\n      dup1\n      iszero\n      tag_1\n      jumpi\n      revert(0x00, 0x00)\n    tag_1:\n      pop\n      jumpi(tag_2, lt(calldatasize, 0x04))\n      shr(0xe0, calldataload(0x00))\n      dup1\n      0xa3c1885b\n      gt\n      tag_19\n      jumpi\n      dup1\n      0xc9e3fd47\n      gt\n      tag_20\n      jumpi\n      dup1\n      0xc9e3fd47\n      eq\n      tag_15\n      jumpi\n      dup1\n      0xee74c678\n      eq\n      tag_16\n      jumpi\n      dup1\n      0xef8a9235\n      eq\n      tag_17\n      jumpi\n      dup1\n      0xf2fde38b\n      eq\n      tag_18\n      jumpi\n      jump(tag_2)\n    tag_20:\n      dup1\n      0xa3c1885b\n      eq\n      tag_11\n      jumpi\n      dup1\n      0xa3ec138d\n      eq\n      tag_12\n      jumpi\n      dup1\n      0xa7bfab16\n      eq\n      tag_13\n      jumpi\n      dup1\n      0xb2c63487\n      eq\n      tag_14\n      jumpi\n      jump(tag_2)\n    tag_19:\n      dup1\n      0x55256a0a\n      gt\n      tag_21\n      jumpi\n      dup1\n      0x55256a0a\n      eq\n      tag_7\n      jumpi\n      dup1\n      0x5f74bbde\n      eq\n      tag_8\n      jumpi\n      dup1\n      0x715018a6\n      eq\n      tag_9\n      jumpi\n      dup1\n      0x8da5cb5b\n      eq\n      tag_10\n      jumpi\n      jump(tag_2)\n    tag_21:\n      dup1\n      0x013cf08b\n      eq\n      tag_3\n      jumpi\n      dup1\n      0x33321a7c\n      eq\n      tag_4\n      jumpi\n      dup1\n      0x378a2178\n      eq\n      tag_5\n      jumpi\n      dup1\n      0x38db6dd3\n      eq\n      tag_6\n      jumpi\n    tag_2:\n      revert(0x00, 0x00)\n        /* \"contracts/Voting.sol\":574:601  Proposal[] public proposals */\n    tag_3:\n      tag_22\n      0x04\n      dup1\n      calldatasize\n      sub\n      dup2\n      add\n      swap1\n      tag_23\n      swap2\n      swap1\n      tag_24\n      jump\t// in\n    tag_23:\n      tag_25\n      jump\t// in\n    tag_22:\n      mload(0x40)\n      tag_26\n      swap3\n      swap2\n      swap1\n      tag_27\n      jump\t// in\n    tag_26:\n      mload(0x40)\n      dup1\n      swap2\n      sub\n      swap1\n      return\n        /* \"contracts/Voting.sol\":2070:2436  function closeProposaRegistration () public onlyOwner{... */\n    tag_4:\n      tag_28\n      tag_29\n      jump\t// in\n    tag_28:\n      stop\n        /* \"contracts/Voting.sol\":3628:4293  function tallyVotes() public onlyOwner returns(Proposal memory)   {... */\n    tag_5:\n      tag_30\n      tag_31\n      jump\t// in\n    tag_30:\n      mload(0x40)\n      tag_32\n      swap2\n      swap1\n      tag_33\n      jump\t// in\n    tag_32:\n      mload(0x40)\n      dup1\n      swap2\n      sub\n      swap1\n      return\n        /* \"contracts/Voting.sol\":985:1306  function registerVoter(address voter) public onlyOwner {... */\n    tag_6:\n      tag_34\n      0x04\n      dup1\n      calldatasize\n      sub\n      dup2\n      add\n      swap1\n      tag_35\n      swap2\n      swap1\n      tag_36\n      jump\t// in\n    tag_35:\n      tag_37\n      jump\t// in\n    tag_34:\n      stop\n        /* \"contracts/Voting.sol\":607:637  Proposal public winnerProposal */\n    tag_7:\n      tag_38\n      tag_39\n      jump\t// in\n    tag_38:\n      mload(0x40)\n      tag_40\n      swap3\n      swap2\n      swap1\n      tag_27\n      jump\t// in\n    tag_40:\n      mload(0x40)\n      dup1\n      swap2\n      sub\n      swap1\n      return\n        /* \"contracts/Voting.sol\":2797:3298  function vote (address voter, uint proposalId ) public {... */\n    tag_8:\n      tag_41\n      0x04\n      dup1\n      calldatasize\n      sub\n      dup2\n      add\n      swap1\n      tag_42\n      swap2\n      swap1\n      tag_43\n      jump\t// in\n    tag_42:\n      tag_44\n      jump\t// in\n    tag_41:\n      stop\n        /* \"@openzeppelin/contracts/access/Ownable.sol\":2293:2394  function renounceOwnership() public virtual onlyOwner {... */\n    tag_9:\n      tag_45\n      tag_46\n      jump\t// in\n    tag_45:\n      stop\n        /* \"@openzeppelin/contracts/access/Ownable.sol\":1638:1723  function owner() public view virtual returns (address) {... */\n    tag_10:\n      tag_47\n      tag_48\n      jump\t// in\n    tag_47:\n      mload(0x40)\n      tag_49\n      swap2\n      swap1\n      tag_50\n      jump\t// in\n    tag_49:\n      mload(0x40)\n      dup1\n      swap2\n      sub\n      swap1\n      return\n        /* \"contracts/Voting.sol\":4299:4502  function getWinnerProposal () view public onlyOwner returns(Proposal memory) {... */\n    tag_11:\n      tag_51\n      tag_52\n      jump\t// in\n    tag_51:\n      mload(0x40)\n      tag_53\n      swap2\n      swap1\n      tag_33\n      jump\t// in\n    tag_53:\n      mload(0x40)\n      dup1\n      swap2\n      sub\n      swap1\n      return\n        /* \"contracts/Voting.sol\":487:527  mapping (address => Voter) public voters */\n    tag_12:\n      tag_54\n      0x04\n      dup1\n      calldatasize\n      sub\n      dup2\n      add\n      swap1\n      tag_55\n      swap2\n      swap1\n      tag_36\n      jump\t// in\n    tag_55:\n      tag_56\n      jump\t// in\n    tag_54:\n      mload(0x40)\n      tag_57\n      swap4\n      swap3\n      swap2\n      swap1\n      tag_58\n      jump\t// in\n    tag_57:\n      mload(0x40)\n      dup1\n      swap2\n      sub\n      swap1\n      return\n        /* \"contracts/Voting.sol\":3304:3622  function endVotingSession() public onlyOwner {... */\n    tag_13:\n      tag_59\n      tag_60\n      jump\t// in\n    tag_59:\n      stop\n        /* \"contracts/Voting.sol\":1312:1660  function openProposalRegistration() public onlyOwner{... */\n    tag_14:\n      tag_61\n      tag_62\n      jump\t// in\n    tag_61:\n      stop\n        /* \"contracts/Voting.sol\":1670:2064  function proposeProposals(string memory description) public onlyOwner {... */\n    tag_15:\n      tag_63\n      0x04\n      dup1\n      calldatasize\n      sub\n      dup2\n      add\n      swap1\n      tag_64\n      swap2\n      swap1\n      tag_65\n      jump\t// in\n    tag_64:\n      tag_66\n      jump\t// in\n    tag_63:\n      stop\n        /* \"contracts/Voting.sol\":2442:2787  function startVotingSession() public onlyOwner{... */\n    tag_16:\n      tag_67\n      tag_68\n      jump\t// in\n    tag_67:\n      stop\n        /* \"contracts/Voting.sol\":533:568  WorkflowStatus public currentStatus */\n    tag_17:\n      tag_69\n      tag_70\n      jump\t// in\n    tag_69:\n      mload(0x40)\n      tag_71\n      swap2\n      swap1\n      tag_72\n      jump\t// in\n    tag_71:\n      mload(0x40)\n      dup1\n      swap2\n      sub\n      swap1\n      return\n        /* \"@openzeppelin/contracts/access/Ownable.sol\":2543:2758  function transferOwnership(address newOwner) public virtual onlyOwner {... */\n    tag_18:\n      tag_73\n      0x04\n      dup1\n      calldatasize\n      sub\n      dup2\n      add\n      swap1\n      tag_74\n      swap2\n      swap1\n      tag_36\n      jump\t// in\n    tag_74:\n      tag_75\n      jump\t// in\n    tag_73:\n      stop\n        /* \"contracts/Voting.sol\":574:601  Proposal[] public proposals */\n    tag_25:\n      0x03\n      dup2\n      dup2\n      sload\n      dup2\n      lt\n      tag_76\n      jumpi\n      0x00\n      dup1\n      revert\n    tag_76:\n      swap1\n      0x00\n      mstore\n      keccak256(0x00, 0x20)\n      swap1\n      0x02\n      mul\n      add\n      0x00\n      swap2\n      pop\n      swap1\n      pop\n      dup1\n      0x00\n      add\n      dup1\n      sload\n      tag_78\n      swap1\n      tag_79\n      jump\t// in\n    tag_78:\n      dup1\n      0x1f\n      add\n      0x20\n      dup1\n      swap2\n      div\n      mul\n      0x20\n      add\n      mload(0x40)\n      swap1\n      dup2\n      add\n      0x40\n      mstore\n      dup1\n      swap3\n      swap2\n      swap1\n      dup2\n      dup2\n      mstore\n      0x20\n      add\n      dup3\n      dup1\n      sload\n      tag_80\n      swap1\n      tag_79\n      jump\t// in\n    tag_80:\n      dup1\n      iszero\n      tag_81\n      jumpi\n      dup1\n      0x1f\n      lt\n      tag_82\n      jumpi\n      0x0100\n      dup1\n      dup4\n      sload\n      div\n      mul\n      dup4\n      mstore\n      swap2\n      0x20\n      add\n      swap2\n      jump(tag_81)\n    tag_82:\n      dup3\n      add\n      swap2\n      swap1\n      0x00\n      mstore\n      keccak256(0x00, 0x20)\n      swap1\n    tag_83:\n      dup2\n      sload\n      dup2\n      mstore\n      swap1\n      0x01\n      add\n      swap1\n      0x20\n      add\n      dup1\n      dup4\n      gt\n      tag_83\n      jumpi\n      dup3\n      swap1\n      sub\n      0x1f\n      and\n      dup3\n      add\n      swap2\n    tag_81:\n      pop\n      pop\n      pop\n      pop\n      pop\n      swap1\n      dup1\n      0x01\n      add\n      sload\n      swap1\n      pop\n      dup3\n      jump\t// out\n        /* \"contracts/Voting.sol\":2070:2436  function closeProposaRegistration () public onlyOwner{... */\n    tag_29:\n        /* \"@openzeppelin/contracts/access/Ownable.sol\":1531:1544  _checkOwner() */\n      tag_85\n        /* \"@openzeppelin/contracts/access/Ownable.sol\":1531:1542  _checkOwner */\n      tag_86\n        /* \"@openzeppelin/contracts/access/Ownable.sol\":1531:1544  _checkOwner() */\n      jump\t// in\n    tag_85:\n        /* \"contracts/Voting.sol\":2159:2202  WorkflowStatus.ProposalsRegistrationStarted */\n      0x01\n        /* \"contracts/Voting.sol\":2142:2202  currentStatus == WorkflowStatus.ProposalsRegistrationStarted */\n      0x05\n      dup2\n      gt\n      iszero\n      tag_88\n      jumpi\n      tag_89\n      tag_90\n      jump\t// in\n    tag_89:\n    tag_88:\n        /* \"contracts/Voting.sol\":2142:2155  currentStatus */\n      0x02\n      0x00\n      swap1\n      sload\n      swap1\n      0x0100\n      exp\n      swap1\n      div\n      0xff\n      and\n        /* \"contracts/Voting.sol\":2142:2202  currentStatus == WorkflowStatus.ProposalsRegistrationStarted */\n      0x05\n      dup2\n      gt\n      iszero\n      tag_91\n      jumpi\n      tag_92\n      tag_90\n      jump\t// in\n    tag_92:\n    tag_91:\n      eq\n        /* \"contracts/Voting.sol\":2133:2239  require (currentStatus == WorkflowStatus.ProposalsRegistrationStarted, \"Registration session is not open\") */\n      tag_93\n      jumpi\n      mload(0x40)\n      0x08c379a000000000000000000000000000000000000000000000000000000000\n      dup2\n      mstore\n      0x04\n      add\n      tag_94\n      swap1\n      tag_95\n      jump\t// in\n    tag_94:\n      mload(0x40)\n      dup1\n      swap2\n      sub\n      swap1\n      revert\n    tag_93:\n        /* \"contracts/Voting.sol\":2265:2306  WorkflowStatus.ProposalsRegistrationEnded */\n      0x02\n        /* \"contracts/Voting.sol\":2249:2262  currentStatus */\n      dup1\n      0x00\n        /* \"contracts/Voting.sol\":2249:2306  currentStatus = WorkflowStatus.ProposalsRegistrationEnded */\n      0x0100\n      exp\n      dup2\n      sload\n      dup2\n      0xff\n      mul\n      not\n      and\n      swap1\n      dup4\n      0x05\n      dup2\n      gt\n      iszero\n      tag_96\n      jumpi\n      tag_97\n      tag_90\n      jump\t// in\n    tag_97:\n    tag_96:\n      mul\n      or\n      swap1\n      sstore\n      pop\n        /* \"contracts/Voting.sol\":2321:2429  WorkflowStatusChange(WorkflowStatus.ProposalsRegistrationStarted, WorkflowStatus.ProposalsRegistrationEnded) */\n      0x0a97a4ee45751e2abf3e4fc8946939630b11b371ea8ae39ccdc3056e98f5cc3f\n        /* \"contracts/Voting.sol\":2342:2385  WorkflowStatus.ProposalsRegistrationStarted */\n      0x01\n        /* \"contracts/Voting.sol\":2387:2428  WorkflowStatus.ProposalsRegistrationEnded */\n      0x02\n        /* \"contracts/Voting.sol\":2321:2429  WorkflowStatusChange(WorkflowStatus.ProposalsRegistrationStarted, WorkflowStatus.ProposalsRegistrationEnded) */\n      mload(0x40)\n      tag_98\n      swap3\n      swap2\n      swap1\n      tag_99\n      jump\t// in\n    tag_98:\n      mload(0x40)\n      dup1\n      swap2\n      sub\n      swap1\n      log1\n        /* \"contracts/Voting.sol\":2070:2436  function closeProposaRegistration () public onlyOwner{... */\n      jump\t// out\n        /* \"contracts/Voting.sol\":3628:4293  function tallyVotes() public onlyOwner returns(Proposal memory)   {... */\n    tag_31:\n        /* \"contracts/Voting.sol\":3675:3690  Proposal memory */\n      tag_100\n      tag_101\n      jump\t// in\n    tag_100:\n        /* \"@openzeppelin/contracts/access/Ownable.sol\":1531:1544  _checkOwner() */\n      tag_103\n        /* \"@openzeppelin/contracts/access/Ownable.sol\":1531:1542  _checkOwner */\n      tag_86\n        /* \"@openzeppelin/contracts/access/Ownable.sol\":1531:1544  _checkOwner() */\n      jump\t// in\n    tag_103:\n        /* \"contracts/Voting.sol\":3730:3763  WorkflowStatus.VotingSessionEnded */\n      0x04\n        /* \"contracts/Voting.sol\":3713:3763  currentStatus == WorkflowStatus.VotingSessionEnded */\n      0x05\n      dup2\n      gt\n      iszero\n      tag_105\n      jumpi\n      tag_106\n      tag_90\n      jump\t// in\n    tag_106:\n    tag_105:\n        /* \"contracts/Voting.sol\":3713:3726  currentStatus */\n      0x02\n      0x00\n      swap1\n      sload\n      swap1\n      0x0100\n      exp\n      swap1\n      div\n      0xff\n      and\n        /* \"contracts/Voting.sol\":3713:3763  currentStatus == WorkflowStatus.VotingSessionEnded */\n      0x05\n      dup2\n      gt\n      iszero\n      tag_107\n      jumpi\n      tag_108\n      tag_90\n      jump\t// in\n    tag_108:\n    tag_107:\n      eq\n        /* \"contracts/Voting.sol\":3704:3795  require (currentStatus == WorkflowStatus.VotingSessionEnded,\"Voting session is not closed\") */\n      tag_109\n      jumpi\n      mload(0x40)\n      0x08c379a000000000000000000000000000000000000000000000000000000000\n      dup2\n      mstore\n      0x04\n      add\n      tag_110\n      swap1\n      tag_111\n      jump\t// in\n    tag_110:\n      mload(0x40)\n      dup1\n      swap2\n      sub\n      swap1\n      revert\n    tag_109:\n        /* \"contracts/Voting.sol\":3805:3822  uint highestVotes */\n      0x00\n        /* \"contracts/Voting.sol\":3825:3826  0 */\n      0x00\n        /* \"contracts/Voting.sol\":3805:3826  uint highestVotes = 0 */\n      swap1\n      pop\n        /* \"contracts/Voting.sol\":3840:3846  uint i */\n      0x00\n        /* \"contracts/Voting.sol\":3849:3850  0 */\n      0x00\n        /* \"contracts/Voting.sol\":3840:3850  uint i = 0 */\n      swap1\n      pop\n        /* \"contracts/Voting.sol\":3836:4104  for(uint i = 0; i < proposals.length; ++i){... */\n    tag_112:\n        /* \"contracts/Voting.sol\":3856:3865  proposals */\n      0x03\n        /* \"contracts/Voting.sol\":3856:3872  proposals.length */\n      dup1\n      sload\n      swap1\n      pop\n        /* \"contracts/Voting.sol\":3852:3853  i */\n      dup2\n        /* \"contracts/Voting.sol\":3852:3872  i < proposals.length */\n      lt\n        /* \"contracts/Voting.sol\":3836:4104  for(uint i = 0; i < proposals.length; ++i){... */\n      iszero\n      tag_113\n      jumpi\n        /* \"contracts/Voting.sol\":3892:3917  Proposal storage proposal */\n      0x00\n        /* \"contracts/Voting.sol\":3920:3929  proposals */\n      0x03\n        /* \"contracts/Voting.sol\":3930:3931  i */\n      dup3\n        /* \"contracts/Voting.sol\":3920:3932  proposals[i] */\n      dup2\n      sload\n      dup2\n      lt\n      tag_115\n      jumpi\n      tag_116\n      tag_117\n      jump\t// in\n    tag_116:\n    tag_115:\n      swap1\n      0x00\n      mstore\n      keccak256(0x00, 0x20)\n      swap1\n      0x02\n      mul\n      add\n        /* \"contracts/Voting.sol\":3892:3932  Proposal storage proposal = proposals[i] */\n      swap1\n      pop\n        /* \"contracts/Voting.sol\":3971:3983  highestVotes */\n      dup3\n        /* \"contracts/Voting.sol\":3950:3958  proposal */\n      dup2\n        /* \"contracts/Voting.sol\":3950:3968  proposal.voteCount */\n      0x01\n      add\n      sload\n        /* \"contracts/Voting.sol\":3950:3983  proposal.voteCount > highestVotes */\n      gt\n        /* \"contracts/Voting.sol\":3946:4094  if (proposal.voteCount > highestVotes) {... */\n      iszero\n      tag_119\n      jumpi\n        /* \"contracts/Voting.sol\":4018:4026  proposal */\n      dup1\n        /* \"contracts/Voting.sol\":4018:4036  proposal.voteCount */\n      0x01\n      add\n      sload\n        /* \"contracts/Voting.sol\":4003:4036  highestVotes = proposal.voteCount */\n      swap3\n      pop\n        /* \"contracts/Voting.sol\":4071:4079  proposal */\n      dup1\n        /* \"contracts/Voting.sol\":4054:4068  winnerProposal */\n      0x04\n        /* \"contracts/Voting.sol\":4054:4079  winnerProposal = proposal */\n      0x00\n      dup3\n      add\n      dup2\n      0x00\n      add\n      swap1\n      dup2\n      tag_120\n      swap2\n      swap1\n      tag_121\n      jump\t// in\n    tag_120:\n      pop\n      0x01\n      dup3\n      add\n      sload\n      dup2\n      0x01\n      add\n      sstore\n      swap1\n      pop\n      pop\n        /* \"contracts/Voting.sol\":3946:4094  if (proposal.voteCount > highestVotes) {... */\n    tag_119:\n        /* \"contracts/Voting.sol\":3878:4104  {... */\n      pop\n        /* \"contracts/Voting.sol\":3874:3877  ++i */\n      dup1\n      0x01\n      add\n      swap1\n      pop\n        /* \"contracts/Voting.sol\":3836:4104  for(uint i = 0; i < proposals.length; ++i){... */\n      jump(tag_112)\n    tag_113:\n      pop\n        /* \"contracts/Voting.sol\":4129:4156  WorkflowStatus.VotesTallied */\n      0x05\n        /* \"contracts/Voting.sol\":4113:4126  currentStatus */\n      0x02\n      0x00\n        /* \"contracts/Voting.sol\":4113:4156  currentStatus = WorkflowStatus.VotesTallied */\n      0x0100\n      exp\n      dup2\n      sload\n      dup2\n      0xff\n      mul\n      not\n      and\n      swap1\n      dup4\n      0x05\n      dup2\n      gt\n      iszero\n      tag_122\n      jumpi\n      tag_123\n      tag_90\n      jump\t// in\n    tag_123:\n    tag_122:\n      mul\n      or\n      swap1\n      sstore\n      pop\n        /* \"contracts/Voting.sol\":4171:4255  WorkflowStatusChange(WorkflowStatus.VotingSessionEnded, WorkflowStatus.VotesTallied) */\n      0x0a97a4ee45751e2abf3e4fc8946939630b11b371ea8ae39ccdc3056e98f5cc3f\n        /* \"contracts/Voting.sol\":4192:4225  WorkflowStatus.VotingSessionEnded */\n      0x04\n        /* \"contracts/Voting.sol\":4227:4254  WorkflowStatus.VotesTallied */\n      0x05\n        /* \"contracts/Voting.sol\":4171:4255  WorkflowStatusChange(WorkflowStatus.VotingSessionEnded, WorkflowStatus.VotesTallied) */\n      mload(0x40)\n      tag_124\n      swap3\n      swap2\n      swap1\n      tag_99\n      jump\t// in\n    tag_124:\n      mload(0x40)\n      dup1\n      swap2\n      sub\n      swap1\n      log1\n        /* \"contracts/Voting.sol\":4272:4286  winnerProposal */\n      0x04\n        /* \"contracts/Voting.sol\":4265:4286  return winnerProposal */\n      mload(0x40)\n      dup1\n      0x40\n      add\n      0x40\n      mstore\n      swap1\n      dup2\n      0x00\n      dup3\n      add\n      dup1\n      sload\n      tag_125\n      swap1\n      tag_79\n      jump\t// in\n    tag_125:\n      dup1\n      0x1f\n      add\n      0x20\n      dup1\n      swap2\n      div\n      mul\n      0x20\n      add\n      mload(0x40)\n      swap1\n      dup2\n      add\n      0x40\n      mstore\n      dup1\n      swap3\n      swap2\n      swap1\n      dup2\n      dup2\n      mstore\n      0x20\n      add\n      dup3\n      dup1\n      sload\n      tag_126\n      swap1\n      tag_79\n      jump\t// in\n    tag_126:\n      dup1\n      iszero\n      tag_127\n      jumpi\n      dup1\n      0x1f\n      lt\n      tag_128\n      jumpi\n      0x0100\n      dup1\n      dup4\n      sload\n      div\n      mul\n      dup4\n      mstore\n      swap2\n      0x20\n      add\n      swap2\n      jump(tag_127)\n    tag_128:\n      dup3\n      add\n      swap2\n      swap1\n      0x00\n      mstore\n      keccak256(0x00, 0x20)\n      swap1\n    tag_129:\n      dup2\n      sload\n      dup2\n      mstore\n      swap1\n      0x01\n      add\n      swap1\n      0x20\n      add\n      dup1\n      dup4\n      gt\n      tag_129\n      jumpi\n      dup3\n      swap1\n      sub\n      0x1f\n      and\n      dup3\n      add\n      swap2\n    tag_127:\n      pop\n      pop\n      pop\n      pop\n      pop\n      dup2\n      mstore\n      0x20\n      add\n      0x01\n      dup3\n      add\n      sload\n      dup2\n      mstore\n      pop\n      pop\n      swap2\n      pop\n      pop\n        /* \"contracts/Voting.sol\":3628:4293  function tallyVotes() public onlyOwner returns(Proposal memory)   {... */\n      swap1\n      jump\t// out\n        /* \"contracts/Voting.sol\":985:1306  function registerVoter(address voter) public onlyOwner {... */\n    tag_37:\n        /* \"@openzeppelin/contracts/access/Ownable.sol\":1531:1544  _checkOwner() */\n      tag_131\n        /* \"@openzeppelin/contracts/access/Ownable.sol\":1531:1542  _checkOwner */\n      tag_86\n        /* \"@openzeppelin/contracts/access/Ownable.sol\":1531:1544  _checkOwner() */\n      jump\t// in\n    tag_131:\n        /* \"contracts/Voting.sol\":1076:1108  WorkflowStatus.RegisteringVoters */\n      0x00\n        /* \"contracts/Voting.sol\":1059:1108  currentStatus == WorkflowStatus.RegisteringVoters */\n      0x05\n      dup2\n      gt\n      iszero\n      tag_133\n      jumpi\n      tag_134\n      tag_90\n      jump\t// in\n    tag_134:\n    tag_133:\n        /* \"contracts/Voting.sol\":1059:1072  currentStatus */\n      0x02\n      0x00\n      swap1\n      sload\n      swap1\n      0x0100\n      exp\n      swap1\n      div\n      0xff\n      and\n        /* \"contracts/Voting.sol\":1059:1108  currentStatus == WorkflowStatus.RegisteringVoters */\n      0x05\n      dup2\n      gt\n      iszero\n      tag_135\n      jumpi\n      tag_136\n      tag_90\n      jump\t// in\n    tag_136:\n    tag_135:\n      eq\n        /* \"contracts/Voting.sol\":1050:1144  require (currentStatus == WorkflowStatus.RegisteringVoters, \"Registering session is not open\") */\n      tag_137\n      jumpi\n      mload(0x40)\n      0x08c379a000000000000000000000000000000000000000000000000000000000\n      dup2\n      mstore\n      0x04\n      add\n      tag_138\n      swap1\n      tag_139\n      jump\t// in\n    tag_138:\n      mload(0x40)\n      dup1\n      swap2\n      sub\n      swap1\n      revert\n    tag_137:\n        /* \"contracts/Voting.sol\":1164:1170  voters */\n      0x01\n        /* \"contracts/Voting.sol\":1164:1182  voters[msg.sender] */\n      0x00\n        /* \"contracts/Voting.sol\":1171:1181  msg.sender */\n      caller\n        /* \"contracts/Voting.sol\":1164:1182  voters[msg.sender] */\n      0xffffffffffffffffffffffffffffffffffffffff\n      and\n      0xffffffffffffffffffffffffffffffffffffffff\n      and\n      dup2\n      mstore\n      0x20\n      add\n      swap1\n      dup2\n      mstore\n      0x20\n      add\n      0x00\n      keccak256\n        /* \"contracts/Voting.sol\":1164:1195  voters[msg.sender].isRegistered */\n      0x00\n      add\n      0x00\n      swap1\n      sload\n      swap1\n      0x0100\n      exp\n      swap1\n      div\n      0xff\n      and\n        /* \"contracts/Voting.sol\":1163:1195  !voters[msg.sender].isRegistered */\n      iszero\n        /* \"contracts/Voting.sol\":1154:1220  require (!voters[msg.sender].isRegistered , \"Already registered.\") */\n      tag_140\n      jumpi\n      mload(0x40)\n      0x08c379a000000000000000000000000000000000000000000000000000000000\n      dup2\n      mstore\n      0x04\n      add\n      tag_141\n      swap1\n      tag_142\n      jump\t// in\n    tag_141:\n      mload(0x40)\n      dup1\n      swap2\n      sub\n      swap1\n      revert\n    tag_140:\n        /* \"contracts/Voting.sol\":1258:1262  true */\n      0x01\n        /* \"contracts/Voting.sol\":1230:1236  voters */\n      dup1\n        /* \"contracts/Voting.sol\":1230:1243  voters[voter] */\n      0x00\n        /* \"contracts/Voting.sol\":1237:1242  voter */\n      dup4\n        /* \"contracts/Voting.sol\":1230:1243  voters[voter] */\n      0xffffffffffffffffffffffffffffffffffffffff\n      and\n      0xffffffffffffffffffffffffffffffffffffffff\n      and\n      dup2\n      mstore\n      0x20\n      add\n      swap1\n      dup2\n      mstore\n      0x20\n      add\n      0x00\n      keccak256\n        /* \"contracts/Voting.sol\":1230:1256  voters[voter].isRegistered */\n      0x00\n      add\n      0x00\n        /* \"contracts/Voting.sol\":1230:1262  voters[voter].isRegistered =true */\n      0x0100\n      exp\n      dup2\n      sload\n      dup2\n      0xff\n      mul\n      not\n      and\n      swap1\n      dup4\n      iszero\n      iszero\n      mul\n      or\n      swap1\n      sstore\n      pop\n        /* \"contracts/Voting.sol\":1277:1299  VoterRegistered(voter) */\n      0xb6be2187d059cc2a55fe29e0e503b566e1e0f8c8780096e185429350acffd3dd\n        /* \"contracts/Voting.sol\":1293:1298  voter */\n      dup2\n        /* \"contracts/Voting.sol\":1277:1299  VoterRegistered(voter) */\n      mload(0x40)\n      tag_143\n      swap2\n      swap1\n      tag_50\n      jump\t// in\n    tag_143:\n      mload(0x40)\n      dup1\n      swap2\n      sub\n      swap1\n      log1\n        /* \"contracts/Voting.sol\":985:1306  function registerVoter(address voter) public onlyOwner {... */\n      pop\n      jump\t// out\n        /* \"contracts/Voting.sol\":607:637  Proposal public winnerProposal */\n    tag_39:\n      0x04\n      dup1\n      0x00\n      add\n      dup1\n      sload\n      tag_144\n      swap1\n      tag_79\n      jump\t// in\n    tag_144:\n      dup1\n      0x1f\n      add\n      0x20\n      dup1\n      swap2\n      div\n      mul\n      0x20\n      add\n      mload(0x40)\n      swap1\n      dup2\n      add\n      0x40\n      mstore\n      dup1\n      swap3\n      swap2\n      swap1\n      dup2\n      dup2\n      mstore\n      0x20\n      add\n      dup3\n      dup1\n      sload\n      tag_145\n      swap1\n      tag_79\n      jump\t// in\n    tag_145:\n      dup1\n      iszero\n      tag_146\n      jumpi\n      dup1\n      0x1f\n      lt\n      tag_147\n      jumpi\n      0x0100\n      dup1\n      dup4\n      sload\n      div\n      mul\n      dup4\n      mstore\n      swap2\n      0x20\n      add\n      swap2\n      jump(tag_146)\n    tag_147:\n      dup3\n      add\n      swap2\n      swap1\n      0x00\n      mstore\n      keccak256(0x00, 0x20)\n      swap1\n    tag_148:\n      dup2\n      sload\n      dup2\n      mstore\n      swap1\n      0x01\n      add\n      swap1\n      0x20\n      add\n      dup1\n      dup4\n      gt\n      tag_148\n      jumpi\n      dup3\n      swap1\n      sub\n      0x1f\n      and\n      dup3\n      add\n      swap2\n    tag_146:\n      pop\n      pop\n      pop\n      pop\n      pop\n      swap1\n      dup1\n      0x01\n      add\n      sload\n      swap1\n      pop\n      dup3\n      jump\t// out\n        /* \"contracts/Voting.sol\":2797:3298  function vote (address voter, uint proposalId ) public {... */\n    tag_44:\n        /* \"contracts/Voting.sol\":2888:2923  WorkflowStatus.VotingSessionStarted */\n      0x03\n        /* \"contracts/Voting.sol\":2871:2923  currentStatus == WorkflowStatus.VotingSessionStarted */\n      0x05\n      dup2\n      gt\n      iszero\n      tag_150\n      jumpi\n      tag_151\n      tag_90\n      jump\t// in\n    tag_151:\n    tag_150:\n        /* \"contracts/Voting.sol\":2871:2884  currentStatus */\n      0x02\n      0x00\n      swap1\n      sload\n      swap1\n      0x0100\n      exp\n      swap1\n      div\n      0xff\n      and\n        /* \"contracts/Voting.sol\":2871:2923  currentStatus == WorkflowStatus.VotingSessionStarted */\n      0x05\n      dup2\n      gt\n      iszero\n      tag_152\n      jumpi\n      tag_153\n      tag_90\n      jump\t// in\n    tag_153:\n    tag_152:\n      eq\n        /* \"contracts/Voting.sol\":2862:2954  require (currentStatus == WorkflowStatus.VotingSessionStarted, \"Voting session is not open\") */\n      tag_154\n      jumpi\n      mload(0x40)\n      0x08c379a000000000000000000000000000000000000000000000000000000000\n      dup2\n      mstore\n      0x04\n      add\n      tag_155\n      swap1\n      tag_156\n      jump\t// in\n    tag_155:\n      mload(0x40)\n      dup1\n      swap2\n      sub\n      swap1\n      revert\n    tag_154:\n        /* \"contracts/Voting.sol\":2973:2979  voters */\n      0x01\n        /* \"contracts/Voting.sol\":2973:2991  voters[msg.sender] */\n      0x00\n        /* \"contracts/Voting.sol\":2980:2990  msg.sender */\n      caller\n        /* \"contracts/Voting.sol\":2973:2991  voters[msg.sender] */\n      0xffffffffffffffffffffffffffffffffffffffff\n      and\n      0xffffffffffffffffffffffffffffffffffffffff\n      and\n      dup2\n      mstore\n      0x20\n      add\n      swap1\n      dup2\n      mstore\n      0x20\n      add\n      0x00\n      keccak256\n        /* \"contracts/Voting.sol\":2973:3004  voters[msg.sender].isRegistered */\n      0x00\n      add\n      0x00\n      swap1\n      sload\n      swap1\n      0x0100\n      exp\n      swap1\n      div\n      0xff\n      and\n        /* \"contracts/Voting.sol\":2964:3039  require (voters[msg.sender].isRegistered, \"you are not authorized to vote\") */\n      tag_157\n      jumpi\n      mload(0x40)\n      0x08c379a000000000000000000000000000000000000000000000000000000000\n      dup2\n      mstore\n      0x04\n      add\n      tag_158\n      swap1\n      tag_159\n      jump\t// in\n    tag_158:\n      mload(0x40)\n      dup1\n      swap2\n      sub\n      swap1\n      revert\n    tag_157:\n        /* \"contracts/Voting.sol\":3059:3065  voters */\n      0x01\n        /* \"contracts/Voting.sol\":3059:3077  voters[msg.sender] */\n      0x00\n        /* \"contracts/Voting.sol\":3066:3076  msg.sender */\n      caller\n        /* \"contracts/Voting.sol\":3059:3077  voters[msg.sender] */\n      0xffffffffffffffffffffffffffffffffffffffff\n      and\n      0xffffffffffffffffffffffffffffffffffffffff\n      and\n      dup2\n      mstore\n      0x20\n      add\n      swap1\n      dup2\n      mstore\n      0x20\n      add\n      0x00\n      keccak256\n        /* \"contracts/Voting.sol\":3059:3086  voters[msg.sender].hasVoted */\n      0x00\n      add\n      0x01\n      swap1\n      sload\n      swap1\n      0x0100\n      exp\n      swap1\n      div\n      0xff\n      and\n        /* \"contracts/Voting.sol\":3058:3086  !voters[msg.sender].hasVoted */\n      iszero\n        /* \"contracts/Voting.sol\":3049:3107  require (!voters[msg.sender].hasVoted,\"you already voted\") */\n      tag_160\n      jumpi\n      mload(0x40)\n      0x08c379a000000000000000000000000000000000000000000000000000000000\n      dup2\n      mstore\n      0x04\n      add\n      tag_161\n      swap1\n      tag_162\n      jump\t// in\n    tag_161:\n      mload(0x40)\n      dup1\n      swap2\n      sub\n      swap1\n      revert\n    tag_160:\n        /* \"contracts/Voting.sol\":3154:3164  proposalId */\n      dup1\n        /* \"contracts/Voting.sol\":3117:3123  voters */\n      0x01\n        /* \"contracts/Voting.sol\":3117:3135  voters[msg.sender] */\n      0x00\n        /* \"contracts/Voting.sol\":3124:3134  msg.sender */\n      caller\n        /* \"contracts/Voting.sol\":3117:3135  voters[msg.sender] */\n      0xffffffffffffffffffffffffffffffffffffffff\n      and\n      0xffffffffffffffffffffffffffffffffffffffff\n      and\n      dup2\n      mstore\n      0x20\n      add\n      swap1\n      dup2\n      mstore\n      0x20\n      add\n      0x00\n      keccak256\n        /* \"contracts/Voting.sol\":3117:3151  voters[msg.sender].votedProposalId */\n      0x01\n      add\n        /* \"contracts/Voting.sol\":3117:3164  voters[msg.sender].votedProposalId = proposalId */\n      dup2\n      swap1\n      sstore\n      pop\n        /* \"contracts/Voting.sol\":3202:3206  true */\n      0x01\n        /* \"contracts/Voting.sol\":3174:3180  voters */\n      dup1\n        /* \"contracts/Voting.sol\":3174:3192  voters[msg.sender] */\n      0x00\n        /* \"contracts/Voting.sol\":3181:3191  msg.sender */\n      caller\n        /* \"contracts/Voting.sol\":3174:3192  voters[msg.sender] */\n      0xffffffffffffffffffffffffffffffffffffffff\n      and\n      0xffffffffffffffffffffffffffffffffffffffff\n      and\n      dup2\n      mstore\n      0x20\n      add\n      swap1\n      dup2\n      mstore\n      0x20\n      add\n      0x00\n      keccak256\n        /* \"contracts/Voting.sol\":3174:3201  voters[msg.sender].hasVoted */\n      0x00\n      add\n      0x01\n        /* \"contracts/Voting.sol\":3174:3206  voters[msg.sender].hasVoted=true */\n      0x0100\n      exp\n      dup2\n      sload\n      dup2\n      0xff\n      mul\n      not\n      and\n      swap1\n      dup4\n      iszero\n      iszero\n      mul\n      or\n      swap1\n      sstore\n      pop\n        /* \"contracts/Voting.sol\":3251:3252  1 */\n      0x01\n        /* \"contracts/Voting.sol\":3216:3225  proposals */\n      0x03\n        /* \"contracts/Voting.sol\":3226:3236  proposalId */\n      dup3\n        /* \"contracts/Voting.sol\":3216:3237  proposals[proposalId] */\n      dup2\n      sload\n      dup2\n      lt\n      tag_163\n      jumpi\n      tag_164\n      tag_117\n      jump\t// in\n    tag_164:\n    tag_163:\n      swap1\n      0x00\n      mstore\n      keccak256(0x00, 0x20)\n      swap1\n      0x02\n      mul\n      add\n        /* \"contracts/Voting.sol\":3216:3247  proposals[proposalId].voteCount */\n      0x01\n      add\n      0x00\n        /* \"contracts/Voting.sol\":3216:3252  proposals[proposalId].voteCount += 1 */\n      dup3\n      dup3\n      sload\n      tag_166\n      swap2\n      swap1\n      tag_167\n      jump\t// in\n    tag_166:\n      swap3\n      pop\n      pop\n      dup2\n      swap1\n      sstore\n      pop\n        /* \"contracts/Voting.sol\":3267:3291  Voted(voter, proposalId) */\n      0x4d99b957a2bc29a30ebd96a7be8e68fe50a3c701db28a91436490b7d53870ca4\n        /* \"contracts/Voting.sol\":3273:3278  voter */\n      dup3\n        /* \"contracts/Voting.sol\":3280:3290  proposalId */\n      dup3\n        /* \"contracts/Voting.sol\":3267:3291  Voted(voter, proposalId) */\n      mload(0x40)\n      tag_168\n      swap3\n      swap2\n      swap1\n      tag_169\n      jump\t// in\n    tag_168:\n      mload(0x40)\n      dup1\n      swap2\n      sub\n      swap1\n      log1\n        /* \"contracts/Voting.sol\":2797:3298  function vote (address voter, uint proposalId ) public {... */\n      pop\n      pop\n      jump\t// out\n        /* \"@openzeppelin/contracts/access/Ownable.sol\":2293:2394  function renounceOwnership() public virtual onlyOwner {... */\n    tag_46:\n        /* \"@openzeppelin/contracts/access/Ownable.sol\":1531:1544  _checkOwner() */\n      tag_171\n        /* \"@openzeppelin/contracts/access/Ownable.sol\":1531:1542  _checkOwner */\n      tag_86\n        /* \"@openzeppelin/contracts/access/Ownable.sol\":1531:1544  _checkOwner() */\n      jump\t// in\n    tag_171:\n        /* \"@openzeppelin/contracts/access/Ownable.sol\":2357:2387  _transferOwnership(address(0)) */\n      tag_173\n        /* \"@openzeppelin/contracts/access/Ownable.sol\":2384:2385  0 */\n      0x00\n        /* \"@openzeppelin/contracts/access/Ownable.sol\":2357:2375  _transferOwnership */\n      tag_174\n        /* \"@openzeppelin/contracts/access/Ownable.sol\":2357:2387  _transferOwnership(address(0)) */\n      jump\t// in\n    tag_173:\n        /* \"@openzeppelin/contracts/access/Ownable.sol\":2293:2394  function renounceOwnership() public virtual onlyOwner {... */\n      jump\t// out\n        /* \"@openzeppelin/contracts/access/Ownable.sol\":1638:1723  function owner() public view virtual returns (address) {... */\n    tag_48:\n        /* \"@openzeppelin/contracts/access/Ownable.sol\":1684:1691  address */\n      0x00\n        /* \"@openzeppelin/contracts/access/Ownable.sol\":1710:1716  _owner */\n      0x00\n      0x00\n      swap1\n      sload\n      swap1\n      0x0100\n      exp\n      swap1\n      div\n      0xffffffffffffffffffffffffffffffffffffffff\n      and\n        /* \"@openzeppelin/contracts/access/Ownable.sol\":1703:1716  return _owner */\n      swap1\n      pop\n        /* \"@openzeppelin/contracts/access/Ownable.sol\":1638:1723  function owner() public view virtual returns (address) {... */\n      swap1\n      jump\t// out\n        /* \"contracts/Voting.sol\":4299:4502  function getWinnerProposal () view public onlyOwner returns(Proposal memory) {... */\n    tag_52:\n        /* \"contracts/Voting.sol\":4359:4374  Proposal memory */\n      tag_176\n      tag_101\n      jump\t// in\n    tag_176:\n        /* \"@openzeppelin/contracts/access/Ownable.sol\":1531:1544  _checkOwner() */\n      tag_178\n        /* \"@openzeppelin/contracts/access/Ownable.sol\":1531:1542  _checkOwner */\n      tag_86\n        /* \"@openzeppelin/contracts/access/Ownable.sol\":1531:1544  _checkOwner() */\n      jump\t// in\n    tag_178:\n        /* \"contracts/Voting.sol\":4412:4439  WorkflowStatus.VotesTallied */\n      0x05\n        /* \"contracts/Voting.sol\":4395:4439  currentStatus == WorkflowStatus.VotesTallied */\n      dup1\n      dup2\n      gt\n      iszero\n      tag_180\n      jumpi\n      tag_181\n      tag_90\n      jump\t// in\n    tag_181:\n    tag_180:\n        /* \"contracts/Voting.sol\":4395:4408  currentStatus */\n      0x02\n      0x00\n      swap1\n      sload\n      swap1\n      0x0100\n      exp\n      swap1\n      div\n      0xff\n      and\n        /* \"contracts/Voting.sol\":4395:4439  currentStatus == WorkflowStatus.VotesTallied */\n      0x05\n      dup2\n      gt\n      iszero\n      tag_182\n      jumpi\n      tag_183\n      tag_90\n      jump\t// in\n    tag_183:\n    tag_182:\n      eq\n        /* \"contracts/Voting.sol\":4386:4464  require (currentStatus == WorkflowStatus.VotesTallied, \"Votes are not allied\") */\n      tag_184\n      jumpi\n      mload(0x40)\n      0x08c379a000000000000000000000000000000000000000000000000000000000\n      dup2\n      mstore\n      0x04\n      add\n      tag_185\n      swap1\n      tag_186\n      jump\t// in\n    tag_185:\n      mload(0x40)\n      dup1\n      swap2\n      sub\n      swap1\n      revert\n    tag_184:\n        /* \"contracts/Voting.sol\":4481:4495  winnerProposal */\n      0x04\n        /* \"contracts/Voting.sol\":4474:4495  return winnerProposal */\n      mload(0x40)\n      dup1\n      0x40\n      add\n      0x40\n      mstore\n      swap1\n      dup2\n      0x00\n      dup3\n      add\n      dup1\n      sload\n      tag_187\n      swap1\n      tag_79\n      jump\t// in\n    tag_187:\n      dup1\n      0x1f\n      add\n      0x20\n      dup1\n      swap2\n      div\n      mul\n      0x20\n      add\n      mload(0x40)\n      swap1\n      dup2\n      add\n      0x40\n      mstore\n      dup1\n      swap3\n      swap2\n      swap1\n      dup2\n      dup2\n      mstore\n      0x20\n      add\n      dup3\n      dup1\n      sload\n      tag_188\n      swap1\n      tag_79\n      jump\t// in\n    tag_188:\n      dup1\n      iszero\n      tag_189\n      jumpi\n      dup1\n      0x1f\n      lt\n      tag_190\n      jumpi\n      0x0100\n      dup1\n      dup4\n      sload\n      div\n      mul\n      dup4\n      mstore\n      swap2\n      0x20\n      add\n      swap2\n      jump(tag_189)\n    tag_190:\n      dup3\n      add\n      swap2\n      swap1\n      0x00\n      mstore\n      keccak256(0x00, 0x20)\n      swap1\n    tag_191:\n      dup2\n      sload\n      dup2\n      mstore\n      swap1\n      0x01\n      add\n      swap1\n      0x20\n      add\n      dup1\n      dup4\n      gt\n      tag_191\n      jumpi\n      dup3\n      swap1\n      sub\n      0x1f\n      and\n      dup3\n      add\n      swap2\n    tag_189:\n      pop\n      pop\n      pop\n      pop\n      pop\n      dup2\n      mstore\n      0x20\n      add\n      0x01\n      dup3\n      add\n      sload\n      dup2\n      mstore\n      pop\n      pop\n      swap1\n      pop\n        /* \"contracts/Voting.sol\":4299:4502  function getWinnerProposal () view public onlyOwner returns(Proposal memory) {... */\n      swap1\n      jump\t// out\n        /* \"contracts/Voting.sol\":487:527  mapping (address => Voter) public voters */\n    tag_56:\n      mstore(0x20, 0x01)\n      dup1\n      0x00\n      mstore\n      keccak256(0x00, 0x40)\n      0x00\n      swap2\n      pop\n      swap1\n      pop\n      dup1\n      0x00\n      add\n      0x00\n      swap1\n      sload\n      swap1\n      0x0100\n      exp\n      swap1\n      div\n      0xff\n      and\n      swap1\n      dup1\n      0x00\n      add\n      0x01\n      swap1\n      sload\n      swap1\n      0x0100\n      exp\n      swap1\n      div\n      0xff\n      and\n      swap1\n      dup1\n      0x01\n      add\n      sload\n      swap1\n      pop\n      dup4\n      jump\t// out\n        /* \"contracts/Voting.sol\":3304:3622  function endVotingSession() public onlyOwner {... */\n    tag_60:\n        /* \"@openzeppelin/contracts/access/Ownable.sol\":1531:1544  _checkOwner() */\n      tag_193\n        /* \"@openzeppelin/contracts/access/Ownable.sol\":1531:1542  _checkOwner */\n      tag_86\n        /* \"@openzeppelin/contracts/access/Ownable.sol\":1531:1544  _checkOwner() */\n      jump\t// in\n    tag_193:\n        /* \"contracts/Voting.sol\":3384:3419  WorkflowStatus.VotingSessionStarted */\n      0x03\n        /* \"contracts/Voting.sol\":3367:3419  currentStatus == WorkflowStatus.VotingSessionStarted */\n      0x05\n      dup2\n      gt\n      iszero\n      tag_195\n      jumpi\n      tag_196\n      tag_90\n      jump\t// in\n    tag_196:\n    tag_195:\n        /* \"contracts/Voting.sol\":3367:3380  currentStatus */\n      0x02\n      0x00\n      swap1\n      sload\n      swap1\n      0x0100\n      exp\n      swap1\n      div\n      0xff\n      and\n        /* \"contracts/Voting.sol\":3367:3419  currentStatus == WorkflowStatus.VotingSessionStarted */\n      0x05\n      dup2\n      gt\n      iszero\n      tag_197\n      jumpi\n      tag_198\n      tag_90\n      jump\t// in\n    tag_198:\n    tag_197:\n      eq\n        /* \"contracts/Voting.sol\":3359:3449  require(currentStatus == WorkflowStatus.VotingSessionStarted,\"Voting session is not open\") */\n      tag_199\n      jumpi\n      mload(0x40)\n      0x08c379a000000000000000000000000000000000000000000000000000000000\n      dup2\n      mstore\n      0x04\n      add\n      tag_200\n      swap1\n      tag_156\n      jump\t// in\n    tag_200:\n      mload(0x40)\n      dup1\n      swap2\n      sub\n      swap1\n      revert\n    tag_199:\n        /* \"contracts/Voting.sol\":3475:3508  WorkflowStatus.VotingSessionEnded */\n      0x04\n        /* \"contracts/Voting.sol\":3459:3472  currentStatus */\n      0x02\n      0x00\n        /* \"contracts/Voting.sol\":3459:3508  currentStatus = WorkflowStatus.VotingSessionEnded */\n      0x0100\n      exp\n      dup2\n      sload\n      dup2\n      0xff\n      mul\n      not\n      and\n      swap1\n      dup4\n      0x05\n      dup2\n      gt\n      iszero\n      tag_201\n      jumpi\n      tag_202\n      tag_90\n      jump\t// in\n    tag_202:\n    tag_201:\n      mul\n      or\n      swap1\n      sstore\n      pop\n        /* \"contracts/Voting.sol\":3523:3615  WorkflowStatusChange(WorkflowStatus.VotingSessionStarted, WorkflowStatus.VotingSessionEnded) */\n      0x0a97a4ee45751e2abf3e4fc8946939630b11b371ea8ae39ccdc3056e98f5cc3f\n        /* \"contracts/Voting.sol\":3544:3579  WorkflowStatus.VotingSessionStarted */\n      0x03\n        /* \"contracts/Voting.sol\":3581:3614  WorkflowStatus.VotingSessionEnded */\n      0x04\n        /* \"contracts/Voting.sol\":3523:3615  WorkflowStatusChange(WorkflowStatus.VotingSessionStarted, WorkflowStatus.VotingSessionEnded) */\n      mload(0x40)\n      tag_203\n      swap3\n      swap2\n      swap1\n      tag_99\n      jump\t// in\n    tag_203:\n      mload(0x40)\n      dup1\n      swap2\n      sub\n      swap1\n      log1\n        /* \"contracts/Voting.sol\":3304:3622  function endVotingSession() public onlyOwner {... */\n      jump\t// out\n        /* \"contracts/Voting.sol\":1312:1660  function openProposalRegistration() public onlyOwner{... */\n    tag_62:\n        /* \"@openzeppelin/contracts/access/Ownable.sol\":1531:1544  _checkOwner() */\n      tag_205\n        /* \"@openzeppelin/contracts/access/Ownable.sol\":1531:1542  _checkOwner */\n      tag_86\n        /* \"@openzeppelin/contracts/access/Ownable.sol\":1531:1544  _checkOwner() */\n      jump\t// in\n    tag_205:\n        /* \"contracts/Voting.sol\":1400:1432  WorkflowStatus.RegisteringVoters */\n      0x00\n        /* \"contracts/Voting.sol\":1383:1432  currentStatus == WorkflowStatus.RegisteringVoters */\n      0x05\n      dup2\n      gt\n      iszero\n      tag_207\n      jumpi\n      tag_208\n      tag_90\n      jump\t// in\n    tag_208:\n    tag_207:\n        /* \"contracts/Voting.sol\":1383:1396  currentStatus */\n      0x02\n      0x00\n      swap1\n      sload\n      swap1\n      0x0100\n      exp\n      swap1\n      div\n      0xff\n      and\n        /* \"contracts/Voting.sol\":1383:1432  currentStatus == WorkflowStatus.RegisteringVoters */\n      0x05\n      dup2\n      gt\n      iszero\n      tag_209\n      jumpi\n      tag_210\n      tag_90\n      jump\t// in\n    tag_210:\n    tag_209:\n      eq\n        /* \"contracts/Voting.sol\":1374:1470  require (currentStatus == WorkflowStatus.RegisteringVoters, \"Registering session is not closed\") */\n      tag_211\n      jumpi\n      mload(0x40)\n      0x08c379a000000000000000000000000000000000000000000000000000000000\n      dup2\n      mstore\n      0x04\n      add\n      tag_212\n      swap1\n      tag_213\n      jump\t// in\n    tag_212:\n      mload(0x40)\n      dup1\n      swap2\n      sub\n      swap1\n      revert\n    tag_211:\n        /* \"contracts/Voting.sol\":1496:1539  WorkflowStatus.ProposalsRegistrationStarted */\n      0x01\n        /* \"contracts/Voting.sol\":1480:1493  currentStatus */\n      0x02\n      0x00\n        /* \"contracts/Voting.sol\":1480:1539  currentStatus = WorkflowStatus.ProposalsRegistrationStarted */\n      0x0100\n      exp\n      dup2\n      sload\n      dup2\n      0xff\n      mul\n      not\n      and\n      swap1\n      dup4\n      0x05\n      dup2\n      gt\n      iszero\n      tag_214\n      jumpi\n      tag_215\n      tag_90\n      jump\t// in\n    tag_215:\n    tag_214:\n      mul\n      or\n      swap1\n      sstore\n      pop\n        /* \"contracts/Voting.sol\":1554:1653  WorkflowStatusChange(WorkflowStatus.RegisteringVoters, WorkflowStatus.ProposalsRegistrationStarted) */\n      0x0a97a4ee45751e2abf3e4fc8946939630b11b371ea8ae39ccdc3056e98f5cc3f\n        /* \"contracts/Voting.sol\":1575:1607  WorkflowStatus.RegisteringVoters */\n      0x00\n        /* \"contracts/Voting.sol\":1609:1652  WorkflowStatus.ProposalsRegistrationStarted */\n      0x01\n        /* \"contracts/Voting.sol\":1554:1653  WorkflowStatusChange(WorkflowStatus.RegisteringVoters, WorkflowStatus.ProposalsRegistrationStarted) */\n      mload(0x40)\n      tag_216\n      swap3\n      swap2\n      swap1\n      tag_99\n      jump\t// in\n    tag_216:\n      mload(0x40)\n      dup1\n      swap2\n      sub\n      swap1\n      log1\n        /* \"contracts/Voting.sol\":1312:1660  function openProposalRegistration() public onlyOwner{... */\n      jump\t// out\n        /* \"contracts/Voting.sol\":1670:2064  function proposeProposals(string memory description) public onlyOwner {... */\n    tag_66:\n        /* \"@openzeppelin/contracts/access/Ownable.sol\":1531:1544  _checkOwner() */\n      tag_218\n        /* \"@openzeppelin/contracts/access/Ownable.sol\":1531:1542  _checkOwner */\n      tag_86\n        /* \"@openzeppelin/contracts/access/Ownable.sol\":1531:1544  _checkOwner() */\n      jump\t// in\n    tag_218:\n        /* \"contracts/Voting.sol\":1776:1819  WorkflowStatus.ProposalsRegistrationStarted */\n      0x01\n        /* \"contracts/Voting.sol\":1759:1819  currentStatus == WorkflowStatus.ProposalsRegistrationStarted */\n      0x05\n      dup2\n      gt\n      iszero\n      tag_220\n      jumpi\n      tag_221\n      tag_90\n      jump\t// in\n    tag_221:\n    tag_220:\n        /* \"contracts/Voting.sol\":1759:1772  currentStatus */\n      0x02\n      0x00\n      swap1\n      sload\n      swap1\n      0x0100\n      exp\n      swap1\n      div\n      0xff\n      and\n        /* \"contracts/Voting.sol\":1759:1819  currentStatus == WorkflowStatus.ProposalsRegistrationStarted */\n      0x05\n      dup2\n      gt\n      iszero\n      tag_222\n      jumpi\n      tag_223\n      tag_90\n      jump\t// in\n    tag_223:\n    tag_222:\n      eq\n        /* \"contracts/Voting.sol\":1750:1853  require (currentStatus == WorkflowStatus.ProposalsRegistrationStarted, \"Proposing session is not open\") */\n      tag_224\n      jumpi\n      mload(0x40)\n      0x08c379a000000000000000000000000000000000000000000000000000000000\n      dup2\n      mstore\n      0x04\n      add\n      tag_225\n      swap1\n      tag_226\n      jump\t// in\n    tag_225:\n      mload(0x40)\n      dup1\n      swap2\n      sub\n      swap1\n      revert\n    tag_224:\n        /* \"contracts/Voting.sol\":1863:1887  Proposal memory proposal */\n      tag_227\n      tag_101\n      jump\t// in\n    tag_227:\n        /* \"contracts/Voting.sol\":1920:1931  description */\n      dup2\n        /* \"contracts/Voting.sol\":1897:1905  proposal */\n      dup2\n        /* \"contracts/Voting.sol\":1897:1917  proposal.description */\n      0x00\n      add\n        /* \"contracts/Voting.sol\":1897:1931  proposal.description = description */\n      dup2\n      swap1\n      mstore\n      pop\n        /* \"contracts/Voting.sol\":1941:1950  proposals */\n      0x03\n        /* \"contracts/Voting.sol\":1956:1964  proposal */\n      dup2\n        /* \"contracts/Voting.sol\":1941:1965  proposals.push(proposal) */\n      swap1\n      dup1\n      0x01\n      dup2\n      sload\n      add\n      dup1\n      dup3\n      sstore\n      dup1\n      swap2\n      pop\n      pop\n      0x01\n      swap1\n      sub\n      swap1\n      0x00\n      mstore\n      keccak256(0x00, 0x20)\n      swap1\n      0x02\n      mul\n      add\n      0x00\n      swap1\n      swap2\n      swap1\n      swap2\n      swap1\n      swap2\n      pop\n      0x00\n      dup3\n      add\n      mload\n      dup2\n      0x00\n      add\n      swap1\n      dup2\n      tag_229\n      swap2\n      swap1\n      tag_230\n      jump\t// in\n    tag_229:\n      pop\n      0x20\n      dup3\n      add\n      mload\n      dup2\n      0x01\n      add\n      sstore\n      pop\n      pop\n        /* \"contracts/Voting.sol\":1975:1990  uint proposalId */\n      0x00\n        /* \"contracts/Voting.sol\":2011:2012  1 */\n      0x01\n        /* \"contracts/Voting.sol\":1993:2002  proposals */\n      0x03\n        /* \"contracts/Voting.sol\":1993:2009  proposals.length */\n      dup1\n      sload\n      swap1\n      pop\n        /* \"contracts/Voting.sol\":1993:2012  proposals.length -1 */\n      tag_231\n      swap2\n      swap1\n      tag_232\n      jump\t// in\n    tag_231:\n        /* \"contracts/Voting.sol\":1975:2012  uint proposalId = proposals.length -1 */\n      swap1\n      pop\n        /* \"contracts/Voting.sol\":2027:2057  ProposalRegistered(proposalId) */\n      0x92e393e9b54e2f801d3ea4beb0c5e71a21cc34a5d34b77d0fb8a3aa1650dc18f\n        /* \"contracts/Voting.sol\":2046:2056  proposalId */\n      dup2\n        /* \"contracts/Voting.sol\":2027:2057  ProposalRegistered(proposalId) */\n      mload(0x40)\n      tag_233\n      swap2\n      swap1\n      tag_234\n      jump\t// in\n    tag_233:\n      mload(0x40)\n      dup1\n      swap2\n      sub\n      swap1\n      log1\n        /* \"contracts/Voting.sol\":1740:2064  {... */\n      pop\n      pop\n        /* \"contracts/Voting.sol\":1670:2064  function proposeProposals(string memory description) public onlyOwner {... */\n      pop\n      jump\t// out\n        /* \"contracts/Voting.sol\":2442:2787  function startVotingSession() public onlyOwner{... */\n    tag_68:\n        /* \"@openzeppelin/contracts/access/Ownable.sol\":1531:1544  _checkOwner() */\n      tag_236\n        /* \"@openzeppelin/contracts/access/Ownable.sol\":1531:1542  _checkOwner */\n      tag_86\n        /* \"@openzeppelin/contracts/access/Ownable.sol\":1531:1544  _checkOwner() */\n      jump\t// in\n    tag_236:\n        /* \"contracts/Voting.sol\":2524:2565  WorkflowStatus.ProposalsRegistrationEnded */\n      0x02\n        /* \"contracts/Voting.sol\":2507:2565  currentStatus == WorkflowStatus.ProposalsRegistrationEnded */\n      0x05\n      dup2\n      gt\n      iszero\n      tag_238\n      jumpi\n      tag_239\n      tag_90\n      jump\t// in\n    tag_239:\n    tag_238:\n        /* \"contracts/Voting.sol\":2507:2520  currentStatus */\n      0x02\n      0x00\n      swap1\n      sload\n      swap1\n      0x0100\n      exp\n      swap1\n      div\n      0xff\n      and\n        /* \"contracts/Voting.sol\":2507:2565  currentStatus == WorkflowStatus.ProposalsRegistrationEnded */\n      0x05\n      dup2\n      gt\n      iszero\n      tag_240\n      jumpi\n      tag_241\n      tag_90\n      jump\t// in\n    tag_241:\n    tag_240:\n      eq\n        /* \"contracts/Voting.sol\":2498:2604  require (currentStatus == WorkflowStatus.ProposalsRegistrationEnded, \"Registration session is not closed\") */\n      tag_242\n      jumpi\n      mload(0x40)\n      0x08c379a000000000000000000000000000000000000000000000000000000000\n      dup2\n      mstore\n      0x04\n      add\n      tag_243\n      swap1\n      tag_244\n      jump\t// in\n    tag_243:\n      mload(0x40)\n      dup1\n      swap2\n      sub\n      swap1\n      revert\n    tag_242:\n        /* \"contracts/Voting.sol\":2630:2665  WorkflowStatus.VotingSessionStarted */\n      0x03\n        /* \"contracts/Voting.sol\":2614:2627  currentStatus */\n      0x02\n      0x00\n        /* \"contracts/Voting.sol\":2614:2665  currentStatus = WorkflowStatus.VotingSessionStarted */\n      0x0100\n      exp\n      dup2\n      sload\n      dup2\n      0xff\n      mul\n      not\n      and\n      swap1\n      dup4\n      0x05\n      dup2\n      gt\n      iszero\n      tag_245\n      jumpi\n      tag_246\n      tag_90\n      jump\t// in\n    tag_246:\n    tag_245:\n      mul\n      or\n      swap1\n      sstore\n      pop\n        /* \"contracts/Voting.sol\":2680:2780  WorkflowStatusChange(WorkflowStatus.ProposalsRegistrationEnded, WorkflowStatus.VotingSessionStarted) */\n      0x0a97a4ee45751e2abf3e4fc8946939630b11b371ea8ae39ccdc3056e98f5cc3f\n        /* \"contracts/Voting.sol\":2701:2742  WorkflowStatus.ProposalsRegistrationEnded */\n      0x02\n        /* \"contracts/Voting.sol\":2744:2779  WorkflowStatus.VotingSessionStarted */\n      0x03\n        /* \"contracts/Voting.sol\":2680:2780  WorkflowStatusChange(WorkflowStatus.ProposalsRegistrationEnded, WorkflowStatus.VotingSessionStarted) */\n      mload(0x40)\n      tag_247\n      swap3\n      swap2\n      swap1\n      tag_99\n      jump\t// in\n    tag_247:\n      mload(0x40)\n      dup1\n      swap2\n      sub\n      swap1\n      log1\n        /* \"contracts/Voting.sol\":2442:2787  function startVotingSession() public onlyOwner{... */\n      jump\t// out\n        /* \"contracts/Voting.sol\":533:568  WorkflowStatus public currentStatus */\n    tag_70:\n      0x02\n      0x00\n      swap1\n      sload\n      swap1\n      0x0100\n      exp\n      swap1\n      div\n      0xff\n      and\n      dup2\n      jump\t// out\n        /* \"@openzeppelin/contracts/access/Ownable.sol\":2543:2758  function transferOwnership(address newOwner) public virtual onlyOwner {... */\n    tag_75:\n        /* \"@openzeppelin/contracts/access/Ownable.sol\":1531:1544  _checkOwner() */\n      tag_249\n        /* \"@openzeppelin/contracts/access/Ownable.sol\":1531:1542  _checkOwner */\n      tag_86\n        /* \"@openzeppelin/contracts/access/Ownable.sol\":1531:1544  _checkOwner() */\n      jump\t// in\n    tag_249:\n        /* \"@openzeppelin/contracts/access/Ownable.sol\":2647:2648  0 */\n      0x00\n        /* \"@openzeppelin/contracts/access/Ownable.sol\":2627:2649  newOwner == address(0) */\n      0xffffffffffffffffffffffffffffffffffffffff\n      and\n        /* \"@openzeppelin/contracts/access/Ownable.sol\":2627:2635  newOwner */\n      dup2\n        /* \"@openzeppelin/contracts/access/Ownable.sol\":2627:2649  newOwner == address(0) */\n      0xffffffffffffffffffffffffffffffffffffffff\n      and\n      sub\n        /* \"@openzeppelin/contracts/access/Ownable.sol\":2623:2714  if (newOwner == address(0)) {... */\n      tag_251\n      jumpi\n        /* \"@openzeppelin/contracts/access/Ownable.sol\":2700:2701  0 */\n      0x00\n        /* \"@openzeppelin/contracts/access/Ownable.sol\":2672:2703  OwnableInvalidOwner(address(0)) */\n      mload(0x40)\n      0x1e4fbdf700000000000000000000000000000000000000000000000000000000\n      dup2\n      mstore\n      0x04\n      add\n      tag_252\n      swap2\n      swap1\n      tag_50\n      jump\t// in\n    tag_252:\n      mload(0x40)\n      dup1\n      swap2\n      sub\n      swap1\n      revert\n        /* \"@openzeppelin/contracts/access/Ownable.sol\":2623:2714  if (newOwner == address(0)) {... */\n    tag_251:\n        /* \"@openzeppelin/contracts/access/Ownable.sol\":2723:2751  _transferOwnership(newOwner) */\n      tag_253\n        /* \"@openzeppelin/contracts/access/Ownable.sol\":2742:2750  newOwner */\n      dup2\n        /* \"@openzeppelin/contracts/access/Ownable.sol\":2723:2741  _transferOwnership */\n      tag_174\n        /* \"@openzeppelin/contracts/access/Ownable.sol\":2723:2751  _transferOwnership(newOwner) */\n      jump\t// in\n    tag_253:\n        /* \"@openzeppelin/contracts/access/Ownable.sol\":2543:2758  function transferOwnership(address newOwner) public virtual onlyOwner {... */\n      pop\n      jump\t// out\n        /* \"@openzeppelin/contracts/access/Ownable.sol\":1796:1958  function _checkOwner() internal view virtual {... */\n    tag_86:\n        /* \"@openzeppelin/contracts/access/Ownable.sol\":1866:1878  _msgSender() */\n      tag_255\n        /* \"@openzeppelin/contracts/access/Ownable.sol\":1866:1876  _msgSender */\n      tag_256\n        /* \"@openzeppelin/contracts/access/Ownable.sol\":1866:1878  _msgSender() */\n      jump\t// in\n    tag_255:\n        /* \"@openzeppelin/contracts/access/Ownable.sol\":1855:1878  owner() != _msgSender() */\n      0xffffffffffffffffffffffffffffffffffffffff\n      and\n        /* \"@openzeppelin/contracts/access/Ownable.sol\":1855:1862  owner() */\n      tag_257\n        /* \"@openzeppelin/contracts/access/Ownable.sol\":1855:1860  owner */\n      tag_48\n        /* \"@openzeppelin/contracts/access/Ownable.sol\":1855:1862  owner() */\n      jump\t// in\n    tag_257:\n        /* \"@openzeppelin/contracts/access/Ownable.sol\":1855:1878  owner() != _msgSender() */\n      0xffffffffffffffffffffffffffffffffffffffff\n      and\n      eq\n        /* \"@openzeppelin/contracts/access/Ownable.sol\":1851:1952  if (owner() != _msgSender()) {... */\n      tag_258\n      jumpi\n        /* \"@openzeppelin/contracts/access/Ownable.sol\":1928:1940  _msgSender() */\n      tag_259\n        /* \"@openzeppelin/contracts/access/Ownable.sol\":1928:1938  _msgSender */\n      tag_256\n        /* \"@openzeppelin/contracts/access/Ownable.sol\":1928:1940  _msgSender() */\n      jump\t// in\n    tag_259:\n        /* \"@openzeppelin/contracts/access/Ownable.sol\":1901:1941  OwnableUnauthorizedAccount(_msgSender()) */\n      mload(0x40)\n      0x118cdaa700000000000000000000000000000000000000000000000000000000\n      dup2\n      mstore\n      0x04\n      add\n      tag_260\n      swap2\n      swap1\n      tag_50\n      jump\t// in\n    tag_260:\n      mload(0x40)\n      dup1\n      swap2\n      sub\n      swap1\n      revert\n        /* \"@openzeppelin/contracts/access/Ownable.sol\":1851:1952  if (owner() != _msgSender()) {... */\n    tag_258:\n        /* \"@openzeppelin/contracts/access/Ownable.sol\":1796:1958  function _checkOwner() internal view virtual {... */\n      jump\t// out\n        /* \"@openzeppelin/contracts/access/Ownable.sol\":2912:3099  function _transferOwnership(address newOwner) internal virtual {... */\n    tag_174:\n        /* \"@openzeppelin/contracts/access/Ownable.sol\":2985:3001  address oldOwner */\n      0x00\n        /* \"@openzeppelin/contracts/access/Ownable.sol\":3004:3010  _owner */\n      0x00\n      0x00\n      swap1\n      sload\n      swap1\n      0x0100\n      exp\n      swap1\n      div\n      0xffffffffffffffffffffffffffffffffffffffff\n      and\n        /* \"@openzeppelin/contracts/access/Ownable.sol\":2985:3010  address oldOwner = _owner */\n      swap1\n      pop\n        /* \"@openzeppelin/contracts/access/Ownable.sol\":3029:3037  newOwner */\n      dup2\n        /* \"@openzeppelin/contracts/access/Ownable.sol\":3020:3026  _owner */\n      0x00\n      0x00\n        /* \"@openzeppelin/contracts/access/Ownable.sol\":3020:3037  _owner = newOwner */\n      0x0100\n      exp\n      dup2\n      sload\n      dup2\n      0xffffffffffffffffffffffffffffffffffffffff\n      mul\n      not\n      and\n      swap1\n      dup4\n      0xffffffffffffffffffffffffffffffffffffffff\n      and\n      mul\n      or\n      swap1\n      sstore\n      pop\n        /* \"@openzeppelin/contracts/access/Ownable.sol\":3083:3091  newOwner */\n      dup2\n        /* \"@openzeppelin/contracts/access/Ownable.sol\":3052:3092  OwnershipTransferred(oldOwner, newOwner) */\n      0xffffffffffffffffffffffffffffffffffffffff\n      and\n        /* \"@openzeppelin/contracts/access/Ownable.sol\":3073:3081  oldOwner */\n      dup2\n        /* \"@openzeppelin/contracts/access/Ownable.sol\":3052:3092  OwnershipTransferred(oldOwner, newOwner) */\n      0xffffffffffffffffffffffffffffffffffffffff\n      and\n      0x8be0079c531659141344cd1fd0a4f28419497f9722a3daafe3b4186f6b6457e0\n      mload(0x40)\n      mload(0x40)\n      dup1\n      swap2\n      sub\n      swap1\n      log3\n        /* \"@openzeppelin/contracts/access/Ownable.sol\":2975:3099  {... */\n      pop\n        /* \"@openzeppelin/contracts/access/Ownable.sol\":2912:3099  function _transferOwnership(address newOwner) internal virtual {... */\n      pop\n      jump\t// out\n        /* \"@openzeppelin/contracts/utils/Context.sol\":656:752  function _msgSender() internal view virtual returns (address) {... */\n    tag_256:\n        /* \"@openzeppelin/contracts/utils/Context.sol\":709:716  address */\n      0x00\n        /* \"@openzeppelin/contracts/utils/Context.sol\":735:745  msg.sender */\n      caller\n        /* \"@openzeppelin/contracts/utils/Context.sol\":728:745  return msg.sender */\n      swap1\n      pop\n        /* \"@openzeppelin/contracts/utils/Context.sol\":656:752  function _msgSender() internal view virtual returns (address) {... */\n      swap1\n      jump\t// out\n    tag_101:\n      mload(0x40)\n      dup1\n      0x40\n      add\n      0x40\n      mstore\n      dup1\n      0x60\n      dup2\n      mstore\n      0x20\n      add\n      0x00\n      dup2\n      mstore\n      pop\n      swap1\n      jump\t// out\n        /* \"#utility.yul\":7:82   */\n    tag_263:\n        /* \"#utility.yul\":40:46   */\n      0x00\n        /* \"#utility.yul\":73:75   */\n      0x40\n        /* \"#utility.yul\":67:76   */\n      mload\n        /* \"#utility.yul\":57:76   */\n      swap1\n      pop\n        /* \"#utility.yul\":7:82   */\n      swap1\n      jump\t// out\n        /* \"#utility.yul\":88:205   */\n    tag_264:\n        /* \"#utility.yul\":197:198   */\n      0x00\n        /* \"#utility.yul\":194:195   */\n      0x00\n        /* \"#utility.yul\":187:199   */\n      revert\n        /* \"#utility.yul\":211:328   */\n    tag_265:\n        /* \"#utility.yul\":320:321   */\n      0x00\n        /* \"#utility.yul\":317:318   */\n      0x00\n        /* \"#utility.yul\":310:322   */\n      revert\n        /* \"#utility.yul\":334:411   */\n    tag_266:\n        /* \"#utility.yul\":371:378   */\n      0x00\n        /* \"#utility.yul\":400:405   */\n      dup2\n        /* \"#utility.yul\":389:405   */\n      swap1\n      pop\n        /* \"#utility.yul\":334:411   */\n      swap2\n      swap1\n      pop\n      jump\t// out\n        /* \"#utility.yul\":417:539   */\n    tag_267:\n        /* \"#utility.yul\":490:514   */\n      tag_345\n        /* \"#utility.yul\":508:513   */\n      dup2\n        /* \"#utility.yul\":490:514   */\n      tag_266\n      jump\t// in\n    tag_345:\n        /* \"#utility.yul\":483:488   */\n      dup2\n        /* \"#utility.yul\":480:515   */\n      eq\n        /* \"#utility.yul\":470:533   */\n      tag_346\n      jumpi\n        /* \"#utility.yul\":529:530   */\n      0x00\n        /* \"#utility.yul\":526:527   */\n      0x00\n        /* \"#utility.yul\":519:531   */\n      revert\n        /* \"#utility.yul\":470:533   */\n    tag_346:\n        /* \"#utility.yul\":417:539   */\n      pop\n      jump\t// out\n        /* \"#utility.yul\":545:684   */\n    tag_268:\n        /* \"#utility.yul\":591:596   */\n      0x00\n        /* \"#utility.yul\":629:635   */\n      dup2\n        /* \"#utility.yul\":616:636   */\n      calldataload\n        /* \"#utility.yul\":607:636   */\n      swap1\n      pop\n        /* \"#utility.yul\":645:678   */\n      tag_348\n        /* \"#utility.yul\":672:677   */\n      dup2\n        /* \"#utility.yul\":645:678   */\n      tag_267\n      jump\t// in\n    tag_348:\n        /* \"#utility.yul\":545:684   */\n      swap3\n      swap2\n      pop\n      pop\n      jump\t// out\n        /* \"#utility.yul\":690:1019   */\n    tag_24:\n        /* \"#utility.yul\":749:755   */\n      0x00\n        /* \"#utility.yul\":798:800   */\n      0x20\n        /* \"#utility.yul\":786:795   */\n      dup3\n        /* \"#utility.yul\":777:784   */\n      dup5\n        /* \"#utility.yul\":773:796   */\n      sub\n        /* \"#utility.yul\":769:801   */\n      slt\n        /* \"#utility.yul\":766:885   */\n      iszero\n      tag_350\n      jumpi\n        /* \"#utility.yul\":804:883   */\n      tag_351\n      tag_264\n      jump\t// in\n    tag_351:\n        /* \"#utility.yul\":766:885   */\n    tag_350:\n        /* \"#utility.yul\":924:925   */\n      0x00\n        /* \"#utility.yul\":949:1002   */\n      tag_352\n        /* \"#utility.yul\":994:1001   */\n      dup5\n        /* \"#utility.yul\":985:991   */\n      dup3\n        /* \"#utility.yul\":974:983   */\n      dup6\n        /* \"#utility.yul\":970:992   */\n      add\n        /* \"#utility.yul\":949:1002   */\n      tag_268\n      jump\t// in\n    tag_352:\n        /* \"#utility.yul\":939:1002   */\n      swap2\n      pop\n        /* \"#utility.yul\":895:1012   */\n      pop\n        /* \"#utility.yul\":690:1019   */\n      swap3\n      swap2\n      pop\n      pop\n      jump\t// out\n        /* \"#utility.yul\":1025:1124   */\n    tag_269:\n        /* \"#utility.yul\":1077:1083   */\n      0x00\n        /* \"#utility.yul\":1111:1116   */\n      dup2\n        /* \"#utility.yul\":1105:1117   */\n      mload\n        /* \"#utility.yul\":1095:1117   */\n      swap1\n      pop\n        /* \"#utility.yul\":1025:1124   */\n      swap2\n      swap1\n      pop\n      jump\t// out\n        /* \"#utility.yul\":1130:1299   */\n    tag_270:\n        /* \"#utility.yul\":1214:1225   */\n      0x00\n        /* \"#utility.yul\":1248:1254   */\n      dup3\n        /* \"#utility.yul\":1243:1246   */\n      dup3\n        /* \"#utility.yul\":1236:1255   */\n      mstore\n        /* \"#utility.yul\":1288:1292   */\n      0x20\n        /* \"#utility.yul\":1283:1286   */\n      dup3\n        /* \"#utility.yul\":1279:1293   */\n      add\n        /* \"#utility.yul\":1264:1293   */\n      swap1\n      pop\n        /* \"#utility.yul\":1130:1299   */\n      swap3\n      swap2\n      pop\n      pop\n      jump\t// out\n        /* \"#utility.yul\":1305:1444   */\n    tag_271:\n        /* \"#utility.yul\":1394:1400   */\n      dup3\n        /* \"#utility.yul\":1389:1392   */\n      dup2\n        /* \"#utility.yul\":1384:1387   */\n      dup4\n        /* \"#utility.yul\":1378:1401   */\n      mcopy\n        /* \"#utility.yul\":1435:1436   */\n      0x00\n        /* \"#utility.yul\":1426:1432   */\n      dup4\n        /* \"#utility.yul\":1421:1424   */\n      dup4\n        /* \"#utility.yul\":1417:1433   */\n      add\n        /* \"#utility.yul\":1410:1437   */\n      mstore\n        /* \"#utility.yul\":1305:1444   */\n      pop\n      pop\n      pop\n      jump\t// out\n        /* \"#utility.yul\":1450:1552   */\n    tag_272:\n        /* \"#utility.yul\":1491:1497   */\n      0x00\n        /* \"#utility.yul\":1542:1544   */\n      0x1f\n        /* \"#utility.yul\":1538:1545   */\n      not\n        /* \"#utility.yul\":1533:1535   */\n      0x1f\n        /* \"#utility.yul\":1526:1531   */\n      dup4\n        /* \"#utility.yul\":1522:1536   */\n      add\n        /* \"#utility.yul\":1518:1546   */\n      and\n        /* \"#utility.yul\":1508:1546   */\n      swap1\n      pop\n        /* \"#utility.yul\":1450:1552   */\n      swap2\n      swap1\n      pop\n      jump\t// out\n        /* \"#utility.yul\":1558:1935   */\n    tag_273:\n        /* \"#utility.yul\":1646:1649   */\n      0x00\n        /* \"#utility.yul\":1674:1713   */\n      tag_358\n        /* \"#utility.yul\":1707:1712   */\n      dup3\n        /* \"#utility.yul\":1674:1713   */\n      tag_269\n      jump\t// in\n    tag_358:\n        /* \"#utility.yul\":1729:1800   */\n      tag_359\n        /* \"#utility.yul\":1793:1799   */\n      dup2\n        /* \"#utility.yul\":1788:1791   */\n      dup6\n        /* \"#utility.yul\":1729:1800   */\n      tag_270\n      jump\t// in\n    tag_359:\n        /* \"#utility.yul\":1722:1800   */\n      swap4\n      pop\n        /* \"#utility.yul\":1809:1874   */\n      tag_360\n        /* \"#utility.yul\":1867:1873   */\n      dup2\n        /* \"#utility.yul\":1862:1865   */\n      dup6\n        /* \"#utility.yul\":1855:1859   */\n      0x20\n        /* \"#utility.yul\":1848:1853   */\n      dup7\n        /* \"#utility.yul\":1844:1860   */\n      add\n        /* \"#utility.yul\":1809:1874   */\n      tag_271\n      jump\t// in\n    tag_360:\n        /* \"#utility.yul\":1899:1928   */\n      tag_361\n        /* \"#utility.yul\":1921:1927   */\n      dup2\n        /* \"#utility.yul\":1899:1928   */\n      tag_272\n      jump\t// in\n    tag_361:\n        /* \"#utility.yul\":1894:1897   */\n      dup5\n        /* \"#utility.yul\":1890:1929   */\n      add\n        /* \"#utility.yul\":1883:1929   */\n      swap2\n      pop\n        /* \"#utility.yul\":1650:1935   */\n      pop\n        /* \"#utility.yul\":1558:1935   */\n      swap3\n      swap2\n      pop\n      pop\n      jump\t// out\n        /* \"#utility.yul\":1941:2059   */\n    tag_274:\n        /* \"#utility.yul\":2028:2052   */\n      tag_363\n        /* \"#utility.yul\":2046:2051   */\n      dup2\n        /* \"#utility.yul\":2028:2052   */\n      tag_266\n      jump\t// in\n    tag_363:\n        /* \"#utility.yul\":2023:2026   */\n      dup3\n        /* \"#utility.yul\":2016:2053   */\n      mstore\n        /* \"#utility.yul\":1941:2059   */\n      pop\n      pop\n      jump\t// out\n        /* \"#utility.yul\":2065:2488   */\n    tag_27:\n        /* \"#utility.yul\":2206:2210   */\n      0x00\n        /* \"#utility.yul\":2244:2246   */\n      0x40\n        /* \"#utility.yul\":2233:2242   */\n      dup3\n        /* \"#utility.yul\":2229:2247   */\n      add\n        /* \"#utility.yul\":2221:2247   */\n      swap1\n      pop\n        /* \"#utility.yul\":2293:2302   */\n      dup2\n        /* \"#utility.yul\":2287:2291   */\n      dup2\n        /* \"#utility.yul\":2283:2303   */\n      sub\n        /* \"#utility.yul\":2279:2280   */\n      0x00\n        /* \"#utility.yul\":2268:2277   */\n      dup4\n        /* \"#utility.yul\":2264:2281   */\n      add\n        /* \"#utility.yul\":2257:2304   */\n      mstore\n        /* \"#utility.yul\":2321:2399   */\n      tag_365\n        /* \"#utility.yul\":2394:2398   */\n      dup2\n        /* \"#utility.yul\":2385:2391   */\n      dup6\n        /* \"#utility.yul\":2321:2399   */\n      tag_273\n      jump\t// in\n    tag_365:\n        /* \"#utility.yul\":2313:2399   */\n      swap1\n      pop\n        /* \"#utility.yul\":2409:2481   */\n      tag_366\n        /* \"#utility.yul\":2477:2479   */\n      0x20\n        /* \"#utility.yul\":2466:2475   */\n      dup4\n        /* \"#utility.yul\":2462:2480   */\n      add\n        /* \"#utility.yul\":2453:2459   */\n      dup5\n        /* \"#utility.yul\":2409:2481   */\n      tag_274\n      jump\t// in\n    tag_366:\n        /* \"#utility.yul\":2065:2488   */\n      swap4\n      swap3\n      pop\n      pop\n      pop\n      jump\t// out\n        /* \"#utility.yul\":2494:2653   */\n    tag_275:\n        /* \"#utility.yul\":2568:2579   */\n      0x00\n        /* \"#utility.yul\":2602:2608   */\n      dup3\n        /* \"#utility.yul\":2597:2600   */\n      dup3\n        /* \"#utility.yul\":2590:2609   */\n      mstore\n        /* \"#utility.yul\":2642:2646   */\n      0x20\n        /* \"#utility.yul\":2637:2640   */\n      dup3\n        /* \"#utility.yul\":2633:2647   */\n      add\n        /* \"#utility.yul\":2618:2647   */\n      swap1\n      pop\n        /* \"#utility.yul\":2494:2653   */\n      swap3\n      swap2\n      pop\n      pop\n      jump\t// out\n        /* \"#utility.yul\":2659:3016   */\n    tag_276:\n        /* \"#utility.yul\":2737:2740   */\n      0x00\n        /* \"#utility.yul\":2765:2804   */\n      tag_369\n        /* \"#utility.yul\":2798:2803   */\n      dup3\n        /* \"#utility.yul\":2765:2804   */\n      tag_269\n      jump\t// in\n    tag_369:\n        /* \"#utility.yul\":2820:2881   */\n      tag_370\n        /* \"#utility.yul\":2874:2880   */\n      dup2\n        /* \"#utility.yul\":2869:2872   */\n      dup6\n        /* \"#utility.yul\":2820:2881   */\n      tag_275\n      jump\t// in\n    tag_370:\n        /* \"#utility.yul\":2813:2881   */\n      swap4\n      pop\n        /* \"#utility.yul\":2890:2955   */\n      tag_371\n        /* \"#utility.yul\":2948:2954   */\n      dup2\n        /* \"#utility.yul\":2943:2946   */\n      dup6\n        /* \"#utility.yul\":2936:2940   */\n      0x20\n        /* \"#utility.yul\":2929:2934   */\n      dup7\n        /* \"#utility.yul\":2925:2941   */\n      add\n        /* \"#utility.yul\":2890:2955   */\n      tag_271\n      jump\t// in\n    tag_371:\n        /* \"#utility.yul\":2980:3009   */\n      tag_372\n        /* \"#utility.yul\":3002:3008   */\n      dup2\n        /* \"#utility.yul\":2980:3009   */\n      tag_272\n      jump\t// in\n    tag_372:\n        /* \"#utility.yul\":2975:2978   */\n      dup5\n        /* \"#utility.yul\":2971:3010   */\n      add\n        /* \"#utility.yul\":2964:3010   */\n      swap2\n      pop\n        /* \"#utility.yul\":2741:3016   */\n      pop\n        /* \"#utility.yul\":2659:3016   */\n      swap3\n      swap2\n      pop\n      pop\n      jump\t// out\n        /* \"#utility.yul\":3022:3130   */\n    tag_277:\n        /* \"#utility.yul\":3099:3123   */\n      tag_374\n        /* \"#utility.yul\":3117:3122   */\n      dup2\n        /* \"#utility.yul\":3099:3123   */\n      tag_266\n      jump\t// in\n    tag_374:\n        /* \"#utility.yul\":3094:3097   */\n      dup3\n        /* \"#utility.yul\":3087:3124   */\n      mstore\n        /* \"#utility.yul\":3022:3130   */\n      pop\n      pop\n      jump\t// out\n        /* \"#utility.yul\":3178:3796   */\n    tag_278:\n        /* \"#utility.yul\":3297:3300   */\n      0x00\n        /* \"#utility.yul\":3333:3337   */\n      0x40\n        /* \"#utility.yul\":3328:3331   */\n      dup4\n        /* \"#utility.yul\":3324:3338   */\n      add\n        /* \"#utility.yul\":3427:3431   */\n      0x00\n        /* \"#utility.yul\":3420:3425   */\n      dup4\n        /* \"#utility.yul\":3416:3432   */\n      add\n        /* \"#utility.yul\":3410:3433   */\n      mload\n        /* \"#utility.yul\":3480:3483   */\n      dup5\n        /* \"#utility.yul\":3474:3478   */\n      dup3\n        /* \"#utility.yul\":3470:3484   */\n      sub\n        /* \"#utility.yul\":3463:3467   */\n      0x00\n        /* \"#utility.yul\":3458:3461   */\n      dup7\n        /* \"#utility.yul\":3454:3468   */\n      add\n        /* \"#utility.yul\":3447:3485   */\n      mstore\n        /* \"#utility.yul\":3506:3579   */\n      tag_376\n        /* \"#utility.yul\":3574:3578   */\n      dup3\n        /* \"#utility.yul\":3560:3572   */\n      dup3\n        /* \"#utility.yul\":3506:3579   */\n      tag_276\n      jump\t// in\n    tag_376:\n        /* \"#utility.yul\":3498:3579   */\n      swap2\n      pop\n        /* \"#utility.yul\":3348:3590   */\n      pop\n        /* \"#utility.yul\":3677:3681   */\n      0x20\n        /* \"#utility.yul\":3670:3675   */\n      dup4\n        /* \"#utility.yul\":3666:3682   */\n      add\n        /* \"#utility.yul\":3660:3683   */\n      mload\n        /* \"#utility.yul\":3696:3759   */\n      tag_377\n        /* \"#utility.yul\":3753:3757   */\n      0x20\n        /* \"#utility.yul\":3748:3751   */\n      dup7\n        /* \"#utility.yul\":3744:3758   */\n      add\n        /* \"#utility.yul\":3730:3742   */\n      dup3\n        /* \"#utility.yul\":3696:3759   */\n      tag_277\n      jump\t// in\n    tag_377:\n        /* \"#utility.yul\":3600:3769   */\n      pop\n        /* \"#utility.yul\":3786:3790   */\n      dup1\n        /* \"#utility.yul\":3779:3790   */\n      swap2\n      pop\n        /* \"#utility.yul\":3302:3796   */\n      pop\n        /* \"#utility.yul\":3178:3796   */\n      swap3\n      swap2\n      pop\n      pop\n      jump\t// out\n        /* \"#utility.yul\":3802:4175   */\n    tag_33:\n        /* \"#utility.yul\":3945:3949   */\n      0x00\n        /* \"#utility.yul\":3983:3985   */\n      0x20\n        /* \"#utility.yul\":3972:3981   */\n      dup3\n        /* \"#utility.yul\":3968:3986   */\n      add\n        /* \"#utility.yul\":3960:3986   */\n      swap1\n      pop\n        /* \"#utility.yul\":4032:4041   */\n      dup2\n        /* \"#utility.yul\":4026:4030   */\n      dup2\n        /* \"#utility.yul\":4022:4042   */\n      sub\n        /* \"#utility.yul\":4018:4019   */\n      0x00\n        /* \"#utility.yul\":4007:4016   */\n      dup4\n        /* \"#utility.yul\":4003:4020   */\n      add\n        /* \"#utility.yul\":3996:4043   */\n      mstore\n        /* \"#utility.yul\":4060:4168   */\n      tag_379\n        /* \"#utility.yul\":4163:4167   */\n      dup2\n        /* \"#utility.yul\":4154:4160   */\n      dup5\n        /* \"#utility.yul\":4060:4168   */\n      tag_278\n      jump\t// in\n    tag_379:\n        /* \"#utility.yul\":4052:4168   */\n      swap1\n      pop\n        /* \"#utility.yul\":3802:4175   */\n      swap3\n      swap2\n      pop\n      pop\n      jump\t// out\n        /* \"#utility.yul\":4181:4307   */\n    tag_279:\n        /* \"#utility.yul\":4218:4225   */\n      0x00\n        /* \"#utility.yul\":4258:4300   */\n      0xffffffffffffffffffffffffffffffffffffffff\n        /* \"#utility.yul\":4251:4256   */\n      dup3\n        /* \"#utility.yul\":4247:4301   */\n      and\n        /* \"#utility.yul\":4236:4301   */\n      swap1\n      pop\n        /* \"#utility.yul\":4181:4307   */\n      swap2\n      swap1\n      pop\n      jump\t// out\n        /* \"#utility.yul\":4313:4409   */\n    tag_280:\n        /* \"#utility.yul\":4350:4357   */\n      0x00\n        /* \"#utility.yul\":4379:4403   */\n      tag_382\n        /* \"#utility.yul\":4397:4402   */\n      dup3\n        /* \"#utility.yul\":4379:4403   */\n      tag_279\n      jump\t// in\n    tag_382:\n        /* \"#utility.yul\":4368:4403   */\n      swap1\n      pop\n        /* \"#utility.yul\":4313:4409   */\n      swap2\n      swap1\n      pop\n      jump\t// out\n        /* \"#utility.yul\":4415:4537   */\n    tag_281:\n        /* \"#utility.yul\":4488:4512   */\n      tag_384\n        /* \"#utility.yul\":4506:4511   */\n      dup2\n        /* \"#utility.yul\":4488:4512   */\n      tag_280\n      jump\t// in\n    tag_384:\n        /* \"#utility.yul\":4481:4486   */\n      dup2\n        /* \"#utility.yul\":4478:4513   */\n      eq\n        /* \"#utility.yul\":4468:4531   */\n      tag_385\n      jumpi\n        /* \"#utility.yul\":4527:4528   */\n      0x00\n        /* \"#utility.yul\":4524:4525   */\n      0x00\n        /* \"#utility.yul\":4517:4529   */\n      revert\n        /* \"#utility.yul\":4468:4531   */\n    tag_385:\n        /* \"#utility.yul\":4415:4537   */\n      pop\n      jump\t// out\n        /* \"#utility.yul\":4543:4682   */\n    tag_282:\n        /* \"#utility.yul\":4589:4594   */\n      0x00\n        /* \"#utility.yul\":4627:4633   */\n      dup2\n        /* \"#utility.yul\":4614:4634   */\n      calldataload\n        /* \"#utility.yul\":4605:4634   */\n      swap1\n      pop\n        /* \"#utility.yul\":4643:4676   */\n      tag_387\n        /* \"#utility.yul\":4670:4675   */\n      dup2\n        /* \"#utility.yul\":4643:4676   */\n      tag_281\n      jump\t// in\n    tag_387:\n        /* \"#utility.yul\":4543:4682   */\n      swap3\n      swap2\n      pop\n      pop\n      jump\t// out\n        /* \"#utility.yul\":4688:5017   */\n    tag_36:\n        /* \"#utility.yul\":4747:4753   */\n      0x00\n        /* \"#utility.yul\":4796:4798   */\n      0x20\n        /* \"#utility.yul\":4784:4793   */\n      dup3\n        /* \"#utility.yul\":4775:4782   */\n      dup5\n        /* \"#utility.yul\":4771:4794   */\n      sub\n        /* \"#utility.yul\":4767:4799   */\n      slt\n        /* \"#utility.yul\":4764:4883   */\n      iszero\n      tag_389\n      jumpi\n        /* \"#utility.yul\":4802:4881   */\n      tag_390\n      tag_264\n      jump\t// in\n    tag_390:\n        /* \"#utility.yul\":4764:4883   */\n    tag_389:\n        /* \"#utility.yul\":4922:4923   */\n      0x00\n        /* \"#utility.yul\":4947:5000   */\n      tag_391\n        /* \"#utility.yul\":4992:4999   */\n      dup5\n        /* \"#utility.yul\":4983:4989   */\n      dup3\n        /* \"#utility.yul\":4972:4981   */\n      dup6\n        /* \"#utility.yul\":4968:4990   */\n      add\n        /* \"#utility.yul\":4947:5000   */\n      tag_282\n      jump\t// in\n    tag_391:\n        /* \"#utility.yul\":4937:5000   */\n      swap2\n      pop\n        /* \"#utility.yul\":4893:5010   */\n      pop\n        /* \"#utility.yul\":4688:5017   */\n      swap3\n      swap2\n      pop\n      pop\n      jump\t// out\n        /* \"#utility.yul\":5023:5497   */\n    tag_43:\n        /* \"#utility.yul\":5091:5097   */\n      0x00\n        /* \"#utility.yul\":5099:5105   */\n      0x00\n        /* \"#utility.yul\":5148:5150   */\n      0x40\n        /* \"#utility.yul\":5136:5145   */\n      dup4\n        /* \"#utility.yul\":5127:5134   */\n      dup6\n        /* \"#utility.yul\":5123:5146   */\n      sub\n        /* \"#utility.yul\":5119:5151   */\n      slt\n        /* \"#utility.yul\":5116:5235   */\n      iszero\n      tag_393\n      jumpi\n        /* \"#utility.yul\":5154:5233   */\n      tag_394\n      tag_264\n      jump\t// in\n    tag_394:\n        /* \"#utility.yul\":5116:5235   */\n    tag_393:\n        /* \"#utility.yul\":5274:5275   */\n      0x00\n        /* \"#utility.yul\":5299:5352   */\n      tag_395\n        /* \"#utility.yul\":5344:5351   */\n      dup6\n        /* \"#utility.yul\":5335:5341   */\n      dup3\n        /* \"#utility.yul\":5324:5333   */\n      dup7\n        /* \"#utility.yul\":5320:5342   */\n      add\n        /* \"#utility.yul\":5299:5352   */\n      tag_282\n      jump\t// in\n    tag_395:\n        /* \"#utility.yul\":5289:5352   */\n      swap3\n      pop\n        /* \"#utility.yul\":5245:5362   */\n      pop\n        /* \"#utility.yul\":5401:5403   */\n      0x20\n        /* \"#utility.yul\":5427:5480   */\n      tag_396\n        /* \"#utility.yul\":5472:5479   */\n      dup6\n        /* \"#utility.yul\":5463:5469   */\n      dup3\n        /* \"#utility.yul\":5452:5461   */\n      dup7\n        /* \"#utility.yul\":5448:5470   */\n      add\n        /* \"#utility.yul\":5427:5480   */\n      tag_268\n      jump\t// in\n    tag_396:\n        /* \"#utility.yul\":5417:5480   */\n      swap2\n      pop\n        /* \"#utility.yul\":5372:5490   */\n      pop\n        /* \"#utility.yul\":5023:5497   */\n      swap3\n      pop\n      swap3\n      swap1\n      pop\n      jump\t// out\n        /* \"#utility.yul\":5503:5621   */\n    tag_283:\n        /* \"#utility.yul\":5590:5614   */\n      tag_398\n        /* \"#utility.yul\":5608:5613   */\n      dup2\n        /* \"#utility.yul\":5590:5614   */\n      tag_280\n      jump\t// in\n    tag_398:\n        /* \"#utility.yul\":5585:5588   */\n      dup3\n        /* \"#utility.yul\":5578:5615   */\n      mstore\n        /* \"#utility.yul\":5503:5621   */\n      pop\n      pop\n      jump\t// out\n        /* \"#utility.yul\":5627:5849   */\n    tag_50:\n        /* \"#utility.yul\":5720:5724   */\n      0x00\n        /* \"#utility.yul\":5758:5760   */\n      0x20\n        /* \"#utility.yul\":5747:5756   */\n      dup3\n        /* \"#utility.yul\":5743:5761   */\n      add\n        /* \"#utility.yul\":5735:5761   */\n      swap1\n      pop\n        /* \"#utility.yul\":5771:5842   */\n      tag_400\n        /* \"#utility.yul\":5839:5840   */\n      0x00\n        /* \"#utility.yul\":5828:5837   */\n      dup4\n        /* \"#utility.yul\":5824:5841   */\n      add\n        /* \"#utility.yul\":5815:5821   */\n      dup5\n        /* \"#utility.yul\":5771:5842   */\n      tag_283\n      jump\t// in\n    tag_400:\n        /* \"#utility.yul\":5627:5849   */\n      swap3\n      swap2\n      pop\n      pop\n      jump\t// out\n        /* \"#utility.yul\":5855:5945   */\n    tag_284:\n        /* \"#utility.yul\":5889:5896   */\n      0x00\n        /* \"#utility.yul\":5932:5937   */\n      dup2\n        /* \"#utility.yul\":5925:5938   */\n      iszero\n        /* \"#utility.yul\":5918:5939   */\n      iszero\n        /* \"#utility.yul\":5907:5939   */\n      swap1\n      pop\n        /* \"#utility.yul\":5855:5945   */\n      swap2\n      swap1\n      pop\n      jump\t// out\n        /* \"#utility.yul\":5951:6060   */\n    tag_285:\n        /* \"#utility.yul\":6032:6053   */\n      tag_403\n        /* \"#utility.yul\":6047:6052   */\n      dup2\n        /* \"#utility.yul\":6032:6053   */\n      tag_284\n      jump\t// in\n    tag_403:\n        /* \"#utility.yul\":6027:6030   */\n      dup3\n        /* \"#utility.yul\":6020:6054   */\n      mstore\n        /* \"#utility.yul\":5951:6060   */\n      pop\n      pop\n      jump\t// out\n        /* \"#utility.yul\":6066:6484   */\n    tag_58:\n        /* \"#utility.yul\":6203:6207   */\n      0x00\n        /* \"#utility.yul\":6241:6243   */\n      0x60\n        /* \"#utility.yul\":6230:6239   */\n      dup3\n        /* \"#utility.yul\":6226:6244   */\n      add\n        /* \"#utility.yul\":6218:6244   */\n      swap1\n      pop\n        /* \"#utility.yul\":6254:6319   */\n      tag_405\n        /* \"#utility.yul\":6316:6317   */\n      0x00\n        /* \"#utility.yul\":6305:6314   */\n      dup4\n        /* \"#utility.yul\":6301:6318   */\n      add\n        /* \"#utility.yul\":6292:6298   */\n      dup7\n        /* \"#utility.yul\":6254:6319   */\n      tag_285\n      jump\t// in\n    tag_405:\n        /* \"#utility.yul\":6329:6395   */\n      tag_406\n        /* \"#utility.yul\":6391:6393   */\n      0x20\n        /* \"#utility.yul\":6380:6389   */\n      dup4\n        /* \"#utility.yul\":6376:6394   */\n      add\n        /* \"#utility.yul\":6367:6373   */\n      dup6\n        /* \"#utility.yul\":6329:6395   */\n      tag_285\n      jump\t// in\n    tag_406:\n        /* \"#utility.yul\":6405:6477   */\n      tag_407\n        /* \"#utility.yul\":6473:6475   */\n      0x40\n        /* \"#utility.yul\":6462:6471   */\n      dup4\n        /* \"#utility.yul\":6458:6476   */\n      add\n        /* \"#utility.yul\":6449:6455   */\n      dup5\n        /* \"#utility.yul\":6405:6477   */\n      tag_274\n      jump\t// in\n    tag_407:\n        /* \"#utility.yul\":6066:6484   */\n      swap5\n      swap4\n      pop\n      pop\n      pop\n      pop\n      jump\t// out\n        /* \"#utility.yul\":6490:6607   */\n    tag_286:\n        /* \"#utility.yul\":6599:6600   */\n      0x00\n        /* \"#utility.yul\":6596:6597   */\n      0x00\n        /* \"#utility.yul\":6589:6601   */\n      revert\n        /* \"#utility.yul\":6613:6730   */\n    tag_287:\n        /* \"#utility.yul\":6722:6723   */\n      0x00\n        /* \"#utility.yul\":6719:6720   */\n      0x00\n        /* \"#utility.yul\":6712:6724   */\n      revert\n        /* \"#utility.yul\":6736:6916   */\n    tag_288:\n        /* \"#utility.yul\":6784:6861   */\n      0x4e487b7100000000000000000000000000000000000000000000000000000000\n        /* \"#utility.yul\":6781:6782   */\n      0x00\n        /* \"#utility.yul\":6774:6862   */\n      mstore\n        /* \"#utility.yul\":6881:6885   */\n      0x41\n        /* \"#utility.yul\":6878:6879   */\n      0x04\n        /* \"#utility.yul\":6871:6886   */\n      mstore\n        /* \"#utility.yul\":6905:6909   */\n      0x24\n        /* \"#utility.yul\":6902:6903   */\n      0x00\n        /* \"#utility.yul\":6895:6910   */\n      revert\n        /* \"#utility.yul\":6922:7203   */\n    tag_289:\n        /* \"#utility.yul\":7005:7032   */\n      tag_412\n        /* \"#utility.yul\":7027:7031   */\n      dup3\n        /* \"#utility.yul\":7005:7032   */\n      tag_272\n      jump\t// in\n    tag_412:\n        /* \"#utility.yul\":6997:7003   */\n      dup2\n        /* \"#utility.yul\":6993:7033   */\n      add\n        /* \"#utility.yul\":7135:7141   */\n      dup2\n        /* \"#utility.yul\":7123:7133   */\n      dup2\n        /* \"#utility.yul\":7120:7142   */\n      lt\n        /* \"#utility.yul\":7099:7117   */\n      0xffffffffffffffff\n        /* \"#utility.yul\":7087:7097   */\n      dup3\n        /* \"#utility.yul\":7084:7118   */\n      gt\n        /* \"#utility.yul\":7081:7143   */\n      or\n        /* \"#utility.yul\":7078:7166   */\n      iszero\n      tag_413\n      jumpi\n        /* \"#utility.yul\":7146:7164   */\n      tag_414\n      tag_288\n      jump\t// in\n    tag_414:\n        /* \"#utility.yul\":7078:7166   */\n    tag_413:\n        /* \"#utility.yul\":7186:7196   */\n      dup1\n        /* \"#utility.yul\":7182:7184   */\n      0x40\n        /* \"#utility.yul\":7175:7197   */\n      mstore\n        /* \"#utility.yul\":6965:7203   */\n      pop\n        /* \"#utility.yul\":6922:7203   */\n      pop\n      pop\n      jump\t// out\n        /* \"#utility.yul\":7209:7338   */\n    tag_290:\n        /* \"#utility.yul\":7243:7249   */\n      0x00\n        /* \"#utility.yul\":7270:7290   */\n      tag_416\n      tag_263\n      jump\t// in\n    tag_416:\n        /* \"#utility.yul\":7260:7290   */\n      swap1\n      pop\n        /* \"#utility.yul\":7299:7332   */\n      tag_417\n        /* \"#utility.yul\":7327:7331   */\n      dup3\n        /* \"#utility.yul\":7319:7325   */\n      dup3\n        /* \"#utility.yul\":7299:7332   */\n      tag_289\n      jump\t// in\n    tag_417:\n        /* \"#utility.yul\":7209:7338   */\n      swap2\n      swap1\n      pop\n      jump\t// out\n        /* \"#utility.yul\":7344:7652   */\n    tag_291:\n        /* \"#utility.yul\":7406:7410   */\n      0x00\n        /* \"#utility.yul\":7496:7514   */\n      0xffffffffffffffff\n        /* \"#utility.yul\":7488:7494   */\n      dup3\n        /* \"#utility.yul\":7485:7515   */\n      gt\n        /* \"#utility.yul\":7482:7538   */\n      iszero\n      tag_419\n      jumpi\n        /* \"#utility.yul\":7518:7536   */\n      tag_420\n      tag_288\n      jump\t// in\n    tag_420:\n        /* \"#utility.yul\":7482:7538   */\n    tag_419:\n        /* \"#utility.yul\":7556:7585   */\n      tag_421\n        /* \"#utility.yul\":7578:7584   */\n      dup3\n        /* \"#utility.yul\":7556:7585   */\n      tag_272\n      jump\t// in\n    tag_421:\n        /* \"#utility.yul\":7548:7585   */\n      swap1\n      pop\n        /* \"#utility.yul\":7640:7644   */\n      0x20\n        /* \"#utility.yul\":7634:7638   */\n      dup2\n        /* \"#utility.yul\":7630:7645   */\n      add\n        /* \"#utility.yul\":7622:7645   */\n      swap1\n      pop\n        /* \"#utility.yul\":7344:7652   */\n      swap2\n      swap1\n      pop\n      jump\t// out\n        /* \"#utility.yul\":7658:7806   */\n    tag_292:\n        /* \"#utility.yul\":7756:7762   */\n      dup3\n        /* \"#utility.yul\":7751:7754   */\n      dup2\n        /* \"#utility.yul\":7746:7749   */\n      dup4\n        /* \"#utility.yul\":7733:7763   */\n      calldatacopy\n        /* \"#utility.yul\":7797:7798   */\n      0x00\n        /* \"#utility.yul\":7788:7794   */\n      dup4\n        /* \"#utility.yul\":7783:7786   */\n      dup4\n        /* \"#utility.yul\":7779:7795   */\n      add\n        /* \"#utility.yul\":7772:7799   */\n      mstore\n        /* \"#utility.yul\":7658:7806   */\n      pop\n      pop\n      pop\n      jump\t// out\n        /* \"#utility.yul\":7812:8237   */\n    tag_293:\n        /* \"#utility.yul\":7890:7895   */\n      0x00\n        /* \"#utility.yul\":7915:7981   */\n      tag_424\n        /* \"#utility.yul\":7931:7980   */\n      tag_425\n        /* \"#utility.yul\":7973:7979   */\n      dup5\n        /* \"#utility.yul\":7931:7980   */\n      tag_291\n      jump\t// in\n    tag_425:\n        /* \"#utility.yul\":7915:7981   */\n      tag_290\n      jump\t// in\n    tag_424:\n        /* \"#utility.yul\":7906:7981   */\n      swap1\n      pop\n        /* \"#utility.yul\":8004:8010   */\n      dup3\n        /* \"#utility.yul\":7997:8002   */\n      dup2\n        /* \"#utility.yul\":7990:8011   */\n      mstore\n        /* \"#utility.yul\":8042:8046   */\n      0x20\n        /* \"#utility.yul\":8035:8040   */\n      dup2\n        /* \"#utility.yul\":8031:8047   */\n      add\n        /* \"#utility.yul\":8080:8083   */\n      dup5\n        /* \"#utility.yul\":8071:8077   */\n      dup5\n        /* \"#utility.yul\":8066:8069   */\n      dup5\n        /* \"#utility.yul\":8062:8078   */\n      add\n        /* \"#utility.yul\":8059:8084   */\n      gt\n        /* \"#utility.yul\":8056:8168   */\n      iszero\n      tag_426\n      jumpi\n        /* \"#utility.yul\":8087:8166   */\n      tag_427\n      tag_287\n      jump\t// in\n    tag_427:\n        /* \"#utility.yul\":8056:8168   */\n    tag_426:\n        /* \"#utility.yul\":8177:8231   */\n      tag_428\n        /* \"#utility.yul\":8224:8230   */\n      dup5\n        /* \"#utility.yul\":8219:8222   */\n      dup3\n        /* \"#utility.yul\":8214:8217   */\n      dup6\n        /* \"#utility.yul\":8177:8231   */\n      tag_292\n      jump\t// in\n    tag_428:\n        /* \"#utility.yul\":7896:8237   */\n      pop\n        /* \"#utility.yul\":7812:8237   */\n      swap4\n      swap3\n      pop\n      pop\n      pop\n      jump\t// out\n        /* \"#utility.yul\":8257:8597   */\n    tag_294:\n        /* \"#utility.yul\":8313:8318   */\n      0x00\n        /* \"#utility.yul\":8362:8365   */\n      dup3\n        /* \"#utility.yul\":8355:8359   */\n      0x1f\n        /* \"#utility.yul\":8347:8353   */\n      dup4\n        /* \"#utility.yul\":8343:8360   */\n      add\n        /* \"#utility.yul\":8339:8366   */\n      slt\n        /* \"#utility.yul\":8329:8451   */\n      tag_430\n      jumpi\n        /* \"#utility.yul\":8370:8449   */\n      tag_431\n      tag_286\n      jump\t// in\n    tag_431:\n        /* \"#utility.yul\":8329:8451   */\n    tag_430:\n        /* \"#utility.yul\":8487:8493   */\n      dup2\n        /* \"#utility.yul\":8474:8494   */\n      calldataload\n        /* \"#utility.yul\":8512:8591   */\n      tag_432\n        /* \"#utility.yul\":8587:8590   */\n      dup5\n        /* \"#utility.yul\":8579:8585   */\n      dup3\n        /* \"#utility.yul\":8572:8576   */\n      0x20\n        /* \"#utility.yul\":8564:8570   */\n      dup7\n        /* \"#utility.yul\":8560:8577   */\n      add\n        /* \"#utility.yul\":8512:8591   */\n      tag_293\n      jump\t// in\n    tag_432:\n        /* \"#utility.yul\":8503:8591   */\n      swap2\n      pop\n        /* \"#utility.yul\":8319:8597   */\n      pop\n        /* \"#utility.yul\":8257:8597   */\n      swap3\n      swap2\n      pop\n      pop\n      jump\t// out\n        /* \"#utility.yul\":8603:9112   */\n    tag_65:\n        /* \"#utility.yul\":8672:8678   */\n      0x00\n        /* \"#utility.yul\":8721:8723   */\n      0x20\n        /* \"#utility.yul\":8709:8718   */\n      dup3\n        /* \"#utility.yul\":8700:8707   */\n      dup5\n        /* \"#utility.yul\":8696:8719   */\n      sub\n        /* \"#utility.yul\":8692:8724   */\n      slt\n        /* \"#utility.yul\":8689:8808   */\n      iszero\n      tag_434\n      jumpi\n        /* \"#utility.yul\":8727:8806   */\n      tag_435\n      tag_264\n      jump\t// in\n    tag_435:\n        /* \"#utility.yul\":8689:8808   */\n    tag_434:\n        /* \"#utility.yul\":8875:8876   */\n      0x00\n        /* \"#utility.yul\":8864:8873   */\n      dup3\n        /* \"#utility.yul\":8860:8877   */\n      add\n        /* \"#utility.yul\":8847:8878   */\n      calldataload\n        /* \"#utility.yul\":8905:8923   */\n      0xffffffffffffffff\n        /* \"#utility.yul\":8897:8903   */\n      dup2\n        /* \"#utility.yul\":8894:8924   */\n      gt\n        /* \"#utility.yul\":8891:9008   */\n      iszero\n      tag_436\n      jumpi\n        /* \"#utility.yul\":8927:9006   */\n      tag_437\n      tag_265\n      jump\t// in\n    tag_437:\n        /* \"#utility.yul\":8891:9008   */\n    tag_436:\n        /* \"#utility.yul\":9032:9095   */\n      tag_438\n        /* \"#utility.yul\":9087:9094   */\n      dup5\n        /* \"#utility.yul\":9078:9084   */\n      dup3\n        /* \"#utility.yul\":9067:9076   */\n      dup6\n        /* \"#utility.yul\":9063:9085   */\n      add\n        /* \"#utility.yul\":9032:9095   */\n      tag_294\n      jump\t// in\n    tag_438:\n        /* \"#utility.yul\":9022:9095   */\n      swap2\n      pop\n        /* \"#utility.yul\":8818:9105   */\n      pop\n        /* \"#utility.yul\":8603:9112   */\n      swap3\n      swap2\n      pop\n      pop\n      jump\t// out\n        /* \"#utility.yul\":9118:9298   */\n    tag_90:\n        /* \"#utility.yul\":9166:9243   */\n      0x4e487b7100000000000000000000000000000000000000000000000000000000\n        /* \"#utility.yul\":9163:9164   */\n      0x00\n        /* \"#utility.yul\":9156:9244   */\n      mstore\n        /* \"#utility.yul\":9263:9267   */\n      0x21\n        /* \"#utility.yul\":9260:9261   */\n      0x04\n        /* \"#utility.yul\":9253:9268   */\n      mstore\n        /* \"#utility.yul\":9287:9291   */\n      0x24\n        /* \"#utility.yul\":9284:9285   */\n      0x00\n        /* \"#utility.yul\":9277:9292   */\n      revert\n        /* \"#utility.yul\":9304:9427   */\n    tag_295:\n        /* \"#utility.yul\":9395:9396   */\n      0x06\n        /* \"#utility.yul\":9388:9393   */\n      dup2\n        /* \"#utility.yul\":9385:9397   */\n      lt\n        /* \"#utility.yul\":9375:9421   */\n      tag_441\n      jumpi\n        /* \"#utility.yul\":9401:9419   */\n      tag_442\n      tag_90\n      jump\t// in\n    tag_442:\n        /* \"#utility.yul\":9375:9421   */\n    tag_441:\n        /* \"#utility.yul\":9304:9427   */\n      pop\n      jump\t// out\n        /* \"#utility.yul\":9433:9580   */\n    tag_296:\n        /* \"#utility.yul\":9488:9495   */\n      0x00\n        /* \"#utility.yul\":9517:9522   */\n      dup2\n        /* \"#utility.yul\":9506:9522   */\n      swap1\n      pop\n        /* \"#utility.yul\":9523:9574   */\n      tag_444\n        /* \"#utility.yul\":9568:9573   */\n      dup3\n        /* \"#utility.yul\":9523:9574   */\n      tag_295\n      jump\t// in\n    tag_444:\n        /* \"#utility.yul\":9433:9580   */\n      swap2\n      swap1\n      pop\n      jump\t// out\n        /* \"#utility.yul\":9586:9733   */\n    tag_297:\n        /* \"#utility.yul\":9652:9661   */\n      0x00\n        /* \"#utility.yul\":9685:9727   */\n      tag_446\n        /* \"#utility.yul\":9721:9726   */\n      dup3\n        /* \"#utility.yul\":9685:9727   */\n      tag_296\n      jump\t// in\n    tag_446:\n        /* \"#utility.yul\":9672:9727   */\n      swap1\n      pop\n        /* \"#utility.yul\":9586:9733   */\n      swap2\n      swap1\n      pop\n      jump\t// out\n        /* \"#utility.yul\":9739:9902   */\n    tag_298:\n        /* \"#utility.yul\":9842:9895   */\n      tag_448\n        /* \"#utility.yul\":9889:9894   */\n      dup2\n        /* \"#utility.yul\":9842:9895   */\n      tag_297\n      jump\t// in\n    tag_448:\n        /* \"#utility.yul\":9837:9840   */\n      dup3\n        /* \"#utility.yul\":9830:9896   */\n      mstore\n        /* \"#utility.yul\":9739:9902   */\n      pop\n      pop\n      jump\t// out\n        /* \"#utility.yul\":9908:10162   */\n    tag_72:\n        /* \"#utility.yul\":10017:10021   */\n      0x00\n        /* \"#utility.yul\":10055:10057   */\n      0x20\n        /* \"#utility.yul\":10044:10053   */\n      dup3\n        /* \"#utility.yul\":10040:10058   */\n      add\n        /* \"#utility.yul\":10032:10058   */\n      swap1\n      pop\n        /* \"#utility.yul\":10068:10155   */\n      tag_450\n        /* \"#utility.yul\":10152:10153   */\n      0x00\n        /* \"#utility.yul\":10141:10150   */\n      dup4\n        /* \"#utility.yul\":10137:10154   */\n      add\n        /* \"#utility.yul\":10128:10134   */\n      dup5\n        /* \"#utility.yul\":10068:10155   */\n      tag_298\n      jump\t// in\n    tag_450:\n        /* \"#utility.yul\":9908:10162   */\n      swap3\n      swap2\n      pop\n      pop\n      jump\t// out\n        /* \"#utility.yul\":10168:10348   */\n    tag_299:\n        /* \"#utility.yul\":10216:10293   */\n      0x4e487b7100000000000000000000000000000000000000000000000000000000\n        /* \"#utility.yul\":10213:10214   */\n      0x00\n        /* \"#utility.yul\":10206:10294   */\n      mstore\n        /* \"#utility.yul\":10313:10317   */\n      0x22\n        /* \"#utility.yul\":10310:10311   */\n      0x04\n        /* \"#utility.yul\":10303:10318   */\n      mstore\n        /* \"#utility.yul\":10337:10341   */\n      0x24\n        /* \"#utility.yul\":10334:10335   */\n      0x00\n        /* \"#utility.yul\":10327:10342   */\n      revert\n        /* \"#utility.yul\":10354:10674   */\n    tag_79:\n        /* \"#utility.yul\":10398:10404   */\n      0x00\n        /* \"#utility.yul\":10435:10436   */\n      0x02\n        /* \"#utility.yul\":10429:10433   */\n      dup3\n        /* \"#utility.yul\":10425:10437   */\n      div\n        /* \"#utility.yul\":10415:10437   */\n      swap1\n      pop\n        /* \"#utility.yul\":10482:10483   */\n      0x01\n        /* \"#utility.yul\":10476:10480   */\n      dup3\n        /* \"#utility.yul\":10472:10484   */\n      and\n        /* \"#utility.yul\":10503:10521   */\n      dup1\n        /* \"#utility.yul\":10493:10574   */\n      tag_453\n      jumpi\n        /* \"#utility.yul\":10559:10563   */\n      0x7f\n        /* \"#utility.yul\":10551:10557   */\n      dup3\n        /* \"#utility.yul\":10547:10564   */\n      and\n        /* \"#utility.yul\":10537:10564   */\n      swap2\n      pop\n        /* \"#utility.yul\":10493:10574   */\n    tag_453:\n        /* \"#utility.yul\":10621:10623   */\n      0x20\n        /* \"#utility.yul\":10613:10619   */\n      dup3\n        /* \"#utility.yul\":10610:10624   */\n      lt\n        /* \"#utility.yul\":10590:10608   */\n      dup2\n        /* \"#utility.yul\":10587:10625   */\n      sub\n        /* \"#utility.yul\":10584:10668   */\n      tag_454\n      jumpi\n        /* \"#utility.yul\":10640:10658   */\n      tag_455\n      tag_299\n      jump\t// in\n    tag_455:\n        /* \"#utility.yul\":10584:10668   */\n    tag_454:\n        /* \"#utility.yul\":10405:10674   */\n      pop\n        /* \"#utility.yul\":10354:10674   */\n      swap2\n      swap1\n      pop\n      jump\t// out\n        /* \"#utility.yul\":10680:10862   */\n    tag_300:\n        /* \"#utility.yul\":10820:10854   */\n      0x526567697374726174696f6e2073657373696f6e206973206e6f74206f70656e\n        /* \"#utility.yul\":10816:10817   */\n      0x00\n        /* \"#utility.yul\":10808:10814   */\n      dup3\n        /* \"#utility.yul\":10804:10818   */\n      add\n        /* \"#utility.yul\":10797:10855   */\n      mstore\n        /* \"#utility.yul\":10680:10862   */\n      pop\n      jump\t// out\n        /* \"#utility.yul\":10868:11234   */\n    tag_301:\n        /* \"#utility.yul\":11010:11013   */\n      0x00\n        /* \"#utility.yul\":11031:11098   */\n      tag_458\n        /* \"#utility.yul\":11095:11097   */\n      0x20\n        /* \"#utility.yul\":11090:11093   */\n      dup4\n        /* \"#utility.yul\":11031:11098   */\n      tag_270\n      jump\t// in\n    tag_458:\n        /* \"#utility.yul\":11024:11098   */\n      swap2\n      pop\n        /* \"#utility.yul\":11107:11200   */\n      tag_459\n        /* \"#utility.yul\":11196:11199   */\n      dup3\n        /* \"#utility.yul\":11107:11200   */\n      tag_300\n      jump\t// in\n    tag_459:\n        /* \"#utility.yul\":11225:11227   */\n      0x20\n        /* \"#utility.yul\":11220:11223   */\n      dup3\n        /* \"#utility.yul\":11216:11228   */\n      add\n        /* \"#utility.yul\":11209:11228   */\n      swap1\n      pop\n        /* \"#utility.yul\":10868:11234   */\n      swap2\n      swap1\n      pop\n      jump\t// out\n        /* \"#utility.yul\":11240:11659   */\n    tag_95:\n        /* \"#utility.yul\":11406:11410   */\n      0x00\n        /* \"#utility.yul\":11444:11446   */\n      0x20\n        /* \"#utility.yul\":11433:11442   */\n      dup3\n        /* \"#utility.yul\":11429:11447   */\n      add\n        /* \"#utility.yul\":11421:11447   */\n      swap1\n      pop\n        /* \"#utility.yul\":11493:11502   */\n      dup2\n        /* \"#utility.yul\":11487:11491   */\n      dup2\n        /* \"#utility.yul\":11483:11503   */\n      sub\n        /* \"#utility.yul\":11479:11480   */\n      0x00\n        /* \"#utility.yul\":11468:11477   */\n      dup4\n        /* \"#utility.yul\":11464:11481   */\n      add\n        /* \"#utility.yul\":11457:11504   */\n      mstore\n        /* \"#utility.yul\":11521:11652   */\n      tag_461\n        /* \"#utility.yul\":11647:11651   */\n      dup2\n        /* \"#utility.yul\":11521:11652   */\n      tag_301\n      jump\t// in\n    tag_461:\n        /* \"#utility.yul\":11513:11652   */\n      swap1\n      pop\n        /* \"#utility.yul\":11240:11659   */\n      swap2\n      swap1\n      pop\n      jump\t// out\n        /* \"#utility.yul\":11665:12061   */\n    tag_99:\n        /* \"#utility.yul\":11818:11822   */\n      0x00\n        /* \"#utility.yul\":11856:11858   */\n      0x40\n        /* \"#utility.yul\":11845:11854   */\n      dup3\n        /* \"#utility.yul\":11841:11859   */\n      add\n        /* \"#utility.yul\":11833:11859   */\n      swap1\n      pop\n        /* \"#utility.yul\":11869:11956   */\n      tag_463\n        /* \"#utility.yul\":11953:11954   */\n      0x00\n        /* \"#utility.yul\":11942:11951   */\n      dup4\n        /* \"#utility.yul\":11938:11955   */\n      add\n        /* \"#utility.yul\":11929:11935   */\n      dup6\n        /* \"#utility.yul\":11869:11956   */\n      tag_298\n      jump\t// in\n    tag_463:\n        /* \"#utility.yul\":11966:12054   */\n      tag_464\n        /* \"#utility.yul\":12050:12052   */\n      0x20\n        /* \"#utility.yul\":12039:12048   */\n      dup4\n        /* \"#utility.yul\":12035:12053   */\n      add\n        /* \"#utility.yul\":12026:12032   */\n      dup5\n        /* \"#utility.yul\":11966:12054   */\n      tag_298\n      jump\t// in\n    tag_464:\n        /* \"#utility.yul\":11665:12061   */\n      swap4\n      swap3\n      pop\n      pop\n      pop\n      jump\t// out\n        /* \"#utility.yul\":12067:12245   */\n    tag_302:\n        /* \"#utility.yul\":12207:12237   */\n      0x566f74696e672073657373696f6e206973206e6f7420636c6f73656400000000\n        /* \"#utility.yul\":12203:12204   */\n      0x00\n        /* \"#utility.yul\":12195:12201   */\n      dup3\n        /* \"#utility.yul\":12191:12205   */\n      add\n        /* \"#utility.yul\":12184:12238   */\n      mstore\n        /* \"#utility.yul\":12067:12245   */\n      pop\n      jump\t// out\n        /* \"#utility.yul\":12251:12617   */\n    tag_303:\n        /* \"#utility.yul\":12393:12396   */\n      0x00\n        /* \"#utility.yul\":12414:12481   */\n      tag_467\n        /* \"#utility.yul\":12478:12480   */\n      0x1c\n        /* \"#utility.yul\":12473:12476   */\n      dup4\n        /* \"#utility.yul\":12414:12481   */\n      tag_270\n      jump\t// in\n    tag_467:\n        /* \"#utility.yul\":12407:12481   */\n      swap2\n      pop\n        /* \"#utility.yul\":12490:12583   */\n      tag_468\n        /* \"#utility.yul\":12579:12582   */\n      dup3\n        /* \"#utility.yul\":12490:12583   */\n      tag_302\n      jump\t// in\n    tag_468:\n        /* \"#utility.yul\":12608:12610   */\n      0x20\n        /* \"#utility.yul\":12603:12606   */\n      dup3\n        /* \"#utility.yul\":12599:12611   */\n      add\n        /* \"#utility.yul\":12592:12611   */\n      swap1\n      pop\n        /* \"#utility.yul\":12251:12617   */\n      swap2\n      swap1\n      pop\n      jump\t// out\n        /* \"#utility.yul\":12623:13042   */\n    tag_111:\n        /* \"#utility.yul\":12789:12793   */\n      0x00\n        /* \"#utility.yul\":12827:12829   */\n      0x20\n        /* \"#utility.yul\":12816:12825   */\n      dup3\n        /* \"#utility.yul\":12812:12830   */\n      add\n        /* \"#utility.yul\":12804:12830   */\n      swap1\n      pop\n        /* \"#utility.yul\":12876:12885   */\n      dup2\n        /* \"#utility.yul\":12870:12874   */\n      dup2\n        /* \"#utility.yul\":12866:12886   */\n      sub\n        /* \"#utility.yul\":12862:12863   */\n      0x00\n        /* \"#utility.yul\":12851:12860   */\n      dup4\n        /* \"#utility.yul\":12847:12864   */\n      add\n        /* \"#utility.yul\":12840:12887   */\n      mstore\n        /* \"#utility.yul\":12904:13035   */\n      tag_470\n        /* \"#utility.yul\":13030:13034   */\n      dup2\n        /* \"#utility.yul\":12904:13035   */\n      tag_303\n      jump\t// in\n    tag_470:\n        /* \"#utility.yul\":12896:13035   */\n      swap1\n      pop\n        /* \"#utility.yul\":12623:13042   */\n      swap2\n      swap1\n      pop\n      jump\t// out\n        /* \"#utility.yul\":13048:13228   */\n    tag_117:\n        /* \"#utility.yul\":13096:13173   */\n      0x4e487b7100000000000000000000000000000000000000000000000000000000\n        /* \"#utility.yul\":13093:13094   */\n      0x00\n        /* \"#utility.yul\":13086:13174   */\n      mstore\n        /* \"#utility.yul\":13193:13197   */\n      0x32\n        /* \"#utility.yul\":13190:13191   */\n      0x04\n        /* \"#utility.yul\":13183:13198   */\n      mstore\n        /* \"#utility.yul\":13217:13221   */\n      0x24\n        /* \"#utility.yul\":13214:13215   */\n      0x00\n        /* \"#utility.yul\":13207:13222   */\n      revert\n        /* \"#utility.yul\":13234:13383   */\n    tag_304:\n        /* \"#utility.yul\":13283:13289   */\n      0x00\n        /* \"#utility.yul\":13317:13322   */\n      dup2\n        /* \"#utility.yul\":13311:13323   */\n      sload\n        /* \"#utility.yul\":13301:13323   */\n      swap1\n      pop\n        /* \"#utility.yul\":13343:13376   */\n      tag_473\n        /* \"#utility.yul\":13369:13375   */\n      dup2\n        /* \"#utility.yul\":13343:13376   */\n      tag_79\n      jump\t// in\n    tag_473:\n        /* \"#utility.yul\":13333:13376   */\n      swap1\n      pop\n        /* \"#utility.yul\":13234:13383   */\n      swap2\n      swap1\n      pop\n      jump\t// out\n        /* \"#utility.yul\":13389:13530   */\n    tag_305:\n        /* \"#utility.yul\":13438:13442   */\n      0x00\n        /* \"#utility.yul\":13461:13464   */\n      dup2\n        /* \"#utility.yul\":13453:13464   */\n      swap1\n      pop\n        /* \"#utility.yul\":13484:13487   */\n      dup2\n        /* \"#utility.yul\":13481:13482   */\n      0x00\n        /* \"#utility.yul\":13474:13488   */\n      mstore\n        /* \"#utility.yul\":13518:13522   */\n      0x20\n        /* \"#utility.yul\":13515:13516   */\n      0x00\n        /* \"#utility.yul\":13505:13523   */\n      keccak256\n        /* \"#utility.yul\":13497:13523   */\n      swap1\n      pop\n        /* \"#utility.yul\":13389:13530   */\n      swap2\n      swap1\n      pop\n      jump\t// out\n        /* \"#utility.yul\":13536:13629   */\n    tag_306:\n        /* \"#utility.yul\":13573:13579   */\n      0x00\n        /* \"#utility.yul\":13620:13622   */\n      0x20\n        /* \"#utility.yul\":13615:13617   */\n      0x1f\n        /* \"#utility.yul\":13608:13613   */\n      dup4\n        /* \"#utility.yul\":13604:13618   */\n      add\n        /* \"#utility.yul\":13600:13623   */\n      div\n        /* \"#utility.yul\":13590:13623   */\n      swap1\n      pop\n        /* \"#utility.yul\":13536:13629   */\n      swap2\n      swap1\n      pop\n      jump\t// out\n        /* \"#utility.yul\":13635:13742   */\n    tag_307:\n        /* \"#utility.yul\":13679:13687   */\n      0x00\n        /* \"#utility.yul\":13729:13734   */\n      dup3\n        /* \"#utility.yul\":13723:13727   */\n      dup3\n        /* \"#utility.yul\":13719:13735   */\n      shl\n        /* \"#utility.yul\":13698:13735   */\n      swap1\n      pop\n        /* \"#utility.yul\":13635:13742   */\n      swap3\n      swap2\n      pop\n      pop\n      jump\t// out\n        /* \"#utility.yul\":13748:14141   */\n    tag_308:\n        /* \"#utility.yul\":13817:13823   */\n      0x00\n        /* \"#utility.yul\":13867:13868   */\n      0x08\n        /* \"#utility.yul\":13855:13865   */\n      dup4\n        /* \"#utility.yul\":13851:13869   */\n      mul\n        /* \"#utility.yul\":13890:13987   */\n      tag_478\n        /* \"#utility.yul\":13920:13986   */\n      0xffffffffffffffffffffffffffffffffffffffffffffffffffffffffffffffff\n        /* \"#utility.yul\":13909:13918   */\n      dup3\n        /* \"#utility.yul\":13890:13987   */\n      tag_307\n      jump\t// in\n    tag_478:\n        /* \"#utility.yul\":14008:14047   */\n      tag_479\n        /* \"#utility.yul\":14038:14046   */\n      dup7\n        /* \"#utility.yul\":14027:14036   */\n      dup4\n        /* \"#utility.yul\":14008:14047   */\n      tag_307\n      jump\t// in\n    tag_479:\n        /* \"#utility.yul\":13996:14047   */\n      swap6\n      pop\n        /* \"#utility.yul\":14080:14084   */\n      dup1\n        /* \"#utility.yul\":14076:14085   */\n      not\n        /* \"#utility.yul\":14069:14074   */\n      dup5\n        /* \"#utility.yul\":14065:14086   */\n      and\n        /* \"#utility.yul\":14056:14086   */\n      swap4\n      pop\n        /* \"#utility.yul\":14129:14133   */\n      dup1\n        /* \"#utility.yul\":14119:14127   */\n      dup7\n        /* \"#utility.yul\":14115:14134   */\n      and\n        /* \"#utility.yul\":14108:14113   */\n      dup5\n        /* \"#utility.yul\":14105:14135   */\n      or\n        /* \"#utility.yul\":14095:14135   */\n      swap3\n      pop\n        /* \"#utility.yul\":13824:14141   */\n      pop\n      pop\n        /* \"#utility.yul\":13748:14141   */\n      swap4\n      swap3\n      pop\n      pop\n      pop\n      jump\t// out\n        /* \"#utility.yul\":14147:14207   */\n    tag_309:\n        /* \"#utility.yul\":14175:14178   */\n      0x00\n        /* \"#utility.yul\":14196:14201   */\n      dup2\n        /* \"#utility.yul\":14189:14201   */\n      swap1\n      pop\n        /* \"#utility.yul\":14147:14207   */\n      swap2\n      swap1\n      pop\n      jump\t// out\n        /* \"#utility.yul\":14213:14355   */\n    tag_310:\n        /* \"#utility.yul\":14263:14272   */\n      0x00\n        /* \"#utility.yul\":14296:14349   */\n      tag_482\n        /* \"#utility.yul\":14314:14348   */\n      tag_483\n        /* \"#utility.yul\":14323:14347   */\n      tag_484\n        /* \"#utility.yul\":14341:14346   */\n      dup5\n        /* \"#utility.yul\":14323:14347   */\n      tag_266\n      jump\t// in\n    tag_484:\n        /* \"#utility.yul\":14314:14348   */\n      tag_309\n      jump\t// in\n    tag_483:\n        /* \"#utility.yul\":14296:14349   */\n      tag_266\n      jump\t// in\n    tag_482:\n        /* \"#utility.yul\":14283:14349   */\n      swap1\n      pop\n        /* \"#utility.yul\":14213:14355   */\n      swap2\n      swap1\n      pop\n      jump\t// out\n        /* \"#utility.yul\":14361:14436   */\n    tag_311:\n        /* \"#utility.yul\":14404:14407   */\n      0x00\n        /* \"#utility.yul\":14425:14430   */\n      dup2\n        /* \"#utility.yul\":14418:14430   */\n      swap1\n      pop\n        /* \"#utility.yul\":14361:14436   */\n      swap2\n      swap1\n      pop\n      jump\t// out\n        /* \"#utility.yul\":14442:14711   */\n    tag_312:\n        /* \"#utility.yul\":14552:14591   */\n      tag_487\n        /* \"#utility.yul\":14583:14590   */\n      dup4\n        /* \"#utility.yul\":14552:14591   */\n      tag_310\n      jump\t// in\n    tag_487:\n        /* \"#utility.yul\":14613:14704   */\n      tag_488\n        /* \"#utility.yul\":14662:14703   */\n      tag_489\n        /* \"#utility.yul\":14686:14702   */\n      dup3\n        /* \"#utility.yul\":14662:14703   */\n      tag_311\n      jump\t// in\n    tag_489:\n        /* \"#utility.yul\":14654:14660   */\n      dup5\n        /* \"#utility.yul\":14647:14651   */\n      dup5\n        /* \"#utility.yul\":14641:14652   */\n      sload\n        /* \"#utility.yul\":14613:14704   */\n      tag_308\n      jump\t// in\n    tag_488:\n        /* \"#utility.yul\":14607:14611   */\n      dup3\n        /* \"#utility.yul\":14600:14705   */\n      sstore\n        /* \"#utility.yul\":14518:14711   */\n      pop\n        /* \"#utility.yul\":14442:14711   */\n      pop\n      pop\n      pop\n      jump\t// out\n        /* \"#utility.yul\":14717:14790   */\n    tag_313:\n        /* \"#utility.yul\":14762:14765   */\n      0x00\n        /* \"#utility.yul\":14783:14784   */\n      0x00\n        /* \"#utility.yul\":14776:14784   */\n      swap1\n      pop\n        /* \"#utility.yul\":14717:14790   */\n      swap1\n      jump\t// out\n        /* \"#utility.yul\":14796:14985   */\n    tag_314:\n        /* \"#utility.yul\":14873:14905   */\n      tag_492\n      tag_313\n      jump\t// in\n    tag_492:\n        /* \"#utility.yul\":14914:14979   */\n      tag_493\n        /* \"#utility.yul\":14972:14978   */\n      dup2\n        /* \"#utility.yul\":14964:14970   */\n      dup5\n        /* \"#utility.yul\":14958:14962   */\n      dup5\n        /* \"#utility.yul\":14914:14979   */\n      tag_312\n      jump\t// in\n    tag_493:\n        /* \"#utility.yul\":14849:14985   */\n      pop\n        /* \"#utility.yul\":14796:14985   */\n      pop\n      pop\n      jump\t// out\n        /* \"#utility.yul\":14991:15177   */\n    tag_315:\n        /* \"#utility.yul\":15051:15171   */\n    tag_495:\n        /* \"#utility.yul\":15068:15071   */\n      dup2\n        /* \"#utility.yul\":15061:15066   */\n      dup2\n        /* \"#utility.yul\":15058:15072   */\n      lt\n        /* \"#utility.yul\":15051:15171   */\n      iszero\n      tag_497\n      jumpi\n        /* \"#utility.yul\":15122:15161   */\n      tag_498\n        /* \"#utility.yul\":15159:15160   */\n      0x00\n        /* \"#utility.yul\":15152:15157   */\n      dup3\n        /* \"#utility.yul\":15122:15161   */\n      tag_314\n      jump\t// in\n    tag_498:\n        /* \"#utility.yul\":15095:15096   */\n      0x01\n        /* \"#utility.yul\":15088:15093   */\n      dup2\n        /* \"#utility.yul\":15084:15097   */\n      add\n        /* \"#utility.yul\":15075:15097   */\n      swap1\n      pop\n        /* \"#utility.yul\":15051:15171   */\n      jump(tag_495)\n    tag_497:\n        /* \"#utility.yul\":14991:15177   */\n      pop\n      pop\n      jump\t// out\n        /* \"#utility.yul\":15183:15726   */\n    tag_316:\n        /* \"#utility.yul\":15284:15286   */\n      0x1f\n        /* \"#utility.yul\":15279:15282   */\n      dup3\n        /* \"#utility.yul\":15276:15287   */\n      gt\n        /* \"#utility.yul\":15273:15719   */\n      iszero\n      tag_500\n      jumpi\n        /* \"#utility.yul\":15318:15356   */\n      tag_501\n        /* \"#utility.yul\":15350:15355   */\n      dup2\n        /* \"#utility.yul\":15318:15356   */\n      tag_305\n      jump\t// in\n    tag_501:\n        /* \"#utility.yul\":15402:15431   */\n      tag_502\n        /* \"#utility.yul\":15420:15430   */\n      dup5\n        /* \"#utility.yul\":15402:15431   */\n      tag_306\n      jump\t// in\n    tag_502:\n        /* \"#utility.yul\":15392:15400   */\n      dup2\n        /* \"#utility.yul\":15388:15432   */\n      add\n        /* \"#utility.yul\":15585:15587   */\n      0x20\n        /* \"#utility.yul\":15573:15583   */\n      dup6\n        /* \"#utility.yul\":15570:15588   */\n      lt\n        /* \"#utility.yul\":15567:15616   */\n      iszero\n      tag_503\n      jumpi\n        /* \"#utility.yul\":15606:15614   */\n      dup2\n        /* \"#utility.yul\":15591:15614   */\n      swap1\n      pop\n        /* \"#utility.yul\":15567:15616   */\n    tag_503:\n        /* \"#utility.yul\":15629:15709   */\n      tag_504\n        /* \"#utility.yul\":15685:15707   */\n      tag_505\n        /* \"#utility.yul\":15703:15706   */\n      dup6\n        /* \"#utility.yul\":15685:15707   */\n      tag_306\n      jump\t// in\n    tag_505:\n        /* \"#utility.yul\":15675:15683   */\n      dup4\n        /* \"#utility.yul\":15671:15708   */\n      add\n        /* \"#utility.yul\":15658:15669   */\n      dup3\n        /* \"#utility.yul\":15629:15709   */\n      tag_315\n      jump\t// in\n    tag_504:\n        /* \"#utility.yul\":15288:15719   */\n      pop\n      pop\n        /* \"#utility.yul\":15273:15719   */\n    tag_500:\n        /* \"#utility.yul\":15183:15726   */\n      pop\n      pop\n      pop\n      jump\t// out\n        /* \"#utility.yul\":15732:15849   */\n    tag_317:\n        /* \"#utility.yul\":15786:15794   */\n      0x00\n        /* \"#utility.yul\":15836:15841   */\n      dup3\n        /* \"#utility.yul\":15830:15834   */\n      dup3\n        /* \"#utility.yul\":15826:15842   */\n      shr\n        /* \"#utility.yul\":15805:15842   */\n      swap1\n      pop\n        /* \"#utility.yul\":15732:15849   */\n      swap3\n      swap2\n      pop\n      pop\n      jump\t// out\n        /* \"#utility.yul\":15855:16024   */\n    tag_318:\n        /* \"#utility.yul\":15899:15905   */\n      0x00\n        /* \"#utility.yul\":15932:15983   */\n      tag_508\n        /* \"#utility.yul\":15980:15981   */\n      0x00\n        /* \"#utility.yul\":15976:15982   */\n      not\n        /* \"#utility.yul\":15968:15973   */\n      dup5\n        /* \"#utility.yul\":15965:15966   */\n      0x08\n        /* \"#utility.yul\":15961:15974   */\n      mul\n        /* \"#utility.yul\":15932:15983   */\n      tag_317\n      jump\t// in\n    tag_508:\n        /* \"#utility.yul\":15928:15984   */\n      not\n        /* \"#utility.yul\":16013:16017   */\n      dup1\n        /* \"#utility.yul\":16007:16011   */\n      dup4\n        /* \"#utility.yul\":16003:16018   */\n      and\n        /* \"#utility.yul\":15993:16018   */\n      swap2\n      pop\n        /* \"#utility.yul\":15906:16024   */\n      pop\n        /* \"#utility.yul\":15855:16024   */\n      swap3\n      swap2\n      pop\n      pop\n      jump\t// out\n        /* \"#utility.yul\":16029:16324   */\n    tag_319:\n        /* \"#utility.yul\":16105:16109   */\n      0x00\n        /* \"#utility.yul\":16251:16280   */\n      tag_510\n        /* \"#utility.yul\":16276:16279   */\n      dup4\n        /* \"#utility.yul\":16270:16274   */\n      dup4\n        /* \"#utility.yul\":16251:16280   */\n      tag_318\n      jump\t// in\n    tag_510:\n        /* \"#utility.yul\":16243:16280   */\n      swap2\n      pop\n        /* \"#utility.yul\":16313:16316   */\n      dup3\n        /* \"#utility.yul\":16310:16311   */\n      0x02\n        /* \"#utility.yul\":16306:16317   */\n      mul\n        /* \"#utility.yul\":16300:16304   */\n      dup3\n        /* \"#utility.yul\":16297:16318   */\n      or\n        /* \"#utility.yul\":16289:16318   */\n      swap1\n      pop\n        /* \"#utility.yul\":16029:16324   */\n      swap3\n      swap2\n      pop\n      pop\n      jump\t// out\n        /* \"#utility.yul\":16329:17780   */\n    tag_121:\n        /* \"#utility.yul\":16440:16443   */\n      dup2\n        /* \"#utility.yul\":16434:16438   */\n      dup2\n        /* \"#utility.yul\":16431:16444   */\n      sub\n        /* \"#utility.yul\":16428:16454   */\n      tag_512\n      jumpi\n        /* \"#utility.yul\":16447:16452   */\n      pop\n      pop\n      jump(tag_511)\n        /* \"#utility.yul\":16428:16454   */\n    tag_512:\n        /* \"#utility.yul\":16478:16512   */\n      tag_513\n        /* \"#utility.yul\":16508:16511   */\n      dup3\n        /* \"#utility.yul\":16478:16512   */\n      tag_304\n      jump\t// in\n    tag_513:\n        /* \"#utility.yul\":16577:16595   */\n      0xffffffffffffffff\n        /* \"#utility.yul\":16569:16575   */\n      dup2\n        /* \"#utility.yul\":16566:16596   */\n      gt\n        /* \"#utility.yul\":16563:16619   */\n      iszero\n      tag_514\n      jumpi\n        /* \"#utility.yul\":16599:16617   */\n      tag_515\n      tag_288\n      jump\t// in\n    tag_515:\n        /* \"#utility.yul\":16563:16619   */\n    tag_514:\n        /* \"#utility.yul\":16643:16681   */\n      tag_516\n        /* \"#utility.yul\":16675:16679   */\n      dup3\n        /* \"#utility.yul\":16669:16680   */\n      sload\n        /* \"#utility.yul\":16643:16681   */\n      tag_79\n      jump\t// in\n    tag_516:\n        /* \"#utility.yul\":16728:16795   */\n      tag_517\n        /* \"#utility.yul\":16788:16794   */\n      dup3\n        /* \"#utility.yul\":16780:16786   */\n      dup3\n        /* \"#utility.yul\":16774:16778   */\n      dup6\n        /* \"#utility.yul\":16728:16795   */\n      tag_316\n      jump\t// in\n    tag_517:\n        /* \"#utility.yul\":16822:16823   */\n      0x00\n        /* \"#utility.yul\":16851:16853   */\n      0x1f\n        /* \"#utility.yul\":16843:16849   */\n      dup4\n        /* \"#utility.yul\":16840:16854   */\n      gt\n        /* \"#utility.yul\":16868:16869   */\n      0x01\n        /* \"#utility.yul\":16863:17535   */\n      dup2\n      eq\n      tag_519\n      jumpi\n        /* \"#utility.yul\":17579:17580   */\n      0x00\n        /* \"#utility.yul\":17596:17602   */\n      dup5\n        /* \"#utility.yul\":17593:17670   */\n      iszero\n      tag_520\n      jumpi\n        /* \"#utility.yul\":17645:17654   */\n      dup3\n        /* \"#utility.yul\":17640:17643   */\n      dup8\n        /* \"#utility.yul\":17636:17655   */\n      add\n        /* \"#utility.yul\":17630:17656   */\n      sload\n        /* \"#utility.yul\":17621:17656   */\n      swap1\n      pop\n        /* \"#utility.yul\":17593:17670   */\n    tag_520:\n        /* \"#utility.yul\":17696:17763   */\n      tag_521\n        /* \"#utility.yul\":17756:17762   */\n      dup6\n        /* \"#utility.yul\":17749:17754   */\n      dup3\n        /* \"#utility.yul\":17696:17763   */\n      tag_319\n      jump\t// in\n    tag_521:\n        /* \"#utility.yul\":17690:17694   */\n      dup7\n        /* \"#utility.yul\":17683:17764   */\n      sstore\n        /* \"#utility.yul\":17552:17774   */\n      pop\n        /* \"#utility.yul\":16833:17774   */\n      jump(tag_518)\n        /* \"#utility.yul\":16863:17535   */\n    tag_519:\n        /* \"#utility.yul\":16915:16919   */\n      0x1f\n        /* \"#utility.yul\":16911:16920   */\n      not\n        /* \"#utility.yul\":16903:16909   */\n      dup5\n        /* \"#utility.yul\":16899:16921   */\n      and\n        /* \"#utility.yul\":16941:16977   */\n      tag_522\n        /* \"#utility.yul\":16973:16976   */\n      dup8\n        /* \"#utility.yul\":16941:16977   */\n      tag_305\n      jump\t// in\n    tag_522:\n        /* \"#utility.yul\":16934:16977   */\n      swap7\n      pop\n        /* \"#utility.yul\":17004:17041   */\n      tag_523\n        /* \"#utility.yul\":17036:17040   */\n      dup7\n        /* \"#utility.yul\":17004:17041   */\n      tag_305\n      jump\t// in\n    tag_523:\n        /* \"#utility.yul\":17063:17064   */\n      0x00\n        /* \"#utility.yul\":17077:17284   */\n    tag_524:\n        /* \"#utility.yul\":17091:17098   */\n      dup3\n        /* \"#utility.yul\":17088:17089   */\n      dup2\n        /* \"#utility.yul\":17085:17099   */\n      lt\n        /* \"#utility.yul\":17077:17284   */\n      iszero\n      tag_526\n      jumpi\n        /* \"#utility.yul\":17170:17179   */\n      dup5\n        /* \"#utility.yul\":17165:17168   */\n      dup10\n        /* \"#utility.yul\":17161:17180   */\n      add\n        /* \"#utility.yul\":17155:17181   */\n      sload\n        /* \"#utility.yul\":17147:17153   */\n      dup3\n        /* \"#utility.yul\":17140:17182   */\n      sstore\n        /* \"#utility.yul\":17221:17222   */\n      0x01\n        /* \"#utility.yul\":17213:17219   */\n      dup3\n        /* \"#utility.yul\":17209:17223   */\n      add\n        /* \"#utility.yul\":17199:17223   */\n      swap2\n      pop\n        /* \"#utility.yul\":17268:17269   */\n      0x01\n        /* \"#utility.yul\":17257:17266   */\n      dup6\n        /* \"#utility.yul\":17253:17270   */\n      add\n        /* \"#utility.yul\":17240:17270   */\n      swap5\n      pop\n        /* \"#utility.yul\":17114:17118   */\n      0x20\n        /* \"#utility.yul\":17111:17112   */\n      dup2\n        /* \"#utility.yul\":17107:17119   */\n      add\n        /* \"#utility.yul\":17102:17119   */\n      swap1\n      pop\n        /* \"#utility.yul\":17077:17284   */\n      jump(tag_524)\n    tag_526:\n        /* \"#utility.yul\":17312:17318   */\n      dup7\n        /* \"#utility.yul\":17303:17310   */\n      dup4\n        /* \"#utility.yul\":17300:17319   */\n      lt\n        /* \"#utility.yul\":17297:17476   */\n      iszero\n      tag_527\n      jumpi\n        /* \"#utility.yul\":17370:17379   */\n      dup5\n        /* \"#utility.yul\":17365:17368   */\n      dup10\n        /* \"#utility.yul\":17361:17380   */\n      add\n        /* \"#utility.yul\":17355:17381   */\n      sload\n        /* \"#utility.yul\":17413:17461   */\n      tag_528\n        /* \"#utility.yul\":17455:17459   */\n      0x1f\n        /* \"#utility.yul\":17447:17453   */\n      dup10\n        /* \"#utility.yul\":17443:17460   */\n      and\n        /* \"#utility.yul\":17432:17441   */\n      dup3\n        /* \"#utility.yul\":17413:17461   */\n      tag_318\n      jump\t// in\n    tag_528:\n        /* \"#utility.yul\":17405:17411   */\n      dup4\n        /* \"#utility.yul\":17398:17462   */\n      sstore\n        /* \"#utility.yul\":17320:17476   */\n      pop\n        /* \"#utility.yul\":17297:17476   */\n    tag_527:\n        /* \"#utility.yul\":17522:17523   */\n      0x01\n        /* \"#utility.yul\":17518:17519   */\n      0x02\n        /* \"#utility.yul\":17510:17516   */\n      dup9\n        /* \"#utility.yul\":17506:17520   */\n      mul\n        /* \"#utility.yul\":17502:17524   */\n      add\n        /* \"#utility.yul\":17496:17500   */\n      dup9\n        /* \"#utility.yul\":17489:17525   */\n      sstore\n        /* \"#utility.yul\":16870:17535   */\n      pop\n      pop\n      pop\n        /* \"#utility.yul\":16833:17774   */\n    tag_518:\n      pop\n        /* \"#utility.yul\":16418:17780   */\n      pop\n      pop\n      pop\n        /* \"#utility.yul\":16329:17780   */\n      pop\n      pop\n    tag_511:\n      jump\t// out\n        /* \"#utility.yul\":17786:17967   */\n    tag_320:\n        /* \"#utility.yul\":17926:17959   */\n      0x5265676973746572696e672073657373696f6e206973206e6f74206f70656e00\n        /* \"#utility.yul\":17922:17923   */\n      0x00\n        /* \"#utility.yul\":17914:17920   */\n      dup3\n        /* \"#utility.yul\":17910:17924   */\n      add\n        /* \"#utility.yul\":17903:17960   */\n      mstore\n        /* \"#utility.yul\":17786:17967   */\n      pop\n      jump\t// out\n        /* \"#utility.yul\":17973:18339   */\n    tag_321:\n        /* \"#utility.yul\":18115:18118   */\n      0x00\n        /* \"#utility.yul\":18136:18203   */\n      tag_531\n        /* \"#utility.yul\":18200:18202   */\n      0x1f\n        /* \"#utility.yul\":18195:18198   */\n      dup4\n        /* \"#utility.yul\":18136:18203   */\n      tag_270\n      jump\t// in\n    tag_531:\n        /* \"#utility.yul\":18129:18203   */\n      swap2\n      pop\n        /* \"#utility.yul\":18212:18305   */\n      tag_532\n        /* \"#utility.yul\":18301:18304   */\n      dup3\n        /* \"#utility.yul\":18212:18305   */\n      tag_320\n      jump\t// in\n    tag_532:\n        /* \"#utility.yul\":18330:18332   */\n      0x20\n        /* \"#utility.yul\":18325:18328   */\n      dup3\n        /* \"#utility.yul\":18321:18333   */\n      add\n        /* \"#utility.yul\":18314:18333   */\n      swap1\n      pop\n        /* \"#utility.yul\":17973:18339   */\n      swap2\n      swap1\n      pop\n      jump\t// out\n        /* \"#utility.yul\":18345:18764   */\n    tag_139:\n        /* \"#utility.yul\":18511:18515   */\n      0x00\n        /* \"#utility.yul\":18549:18551   */\n      0x20\n        /* \"#utility.yul\":18538:18547   */\n      dup3\n        /* \"#utility.yul\":18534:18552   */\n      add\n        /* \"#utility.yul\":18526:18552   */\n      swap1\n      pop\n        /* \"#utility.yul\":18598:18607   */\n      dup2\n        /* \"#utility.yul\":18592:18596   */\n      dup2\n        /* \"#utility.yul\":18588:18608   */\n      sub\n        /* \"#utility.yul\":18584:18585   */\n      0x00\n        /* \"#utility.yul\":18573:18582   */\n      dup4\n        /* \"#utility.yul\":18569:18586   */\n      add\n        /* \"#utility.yul\":18562:18609   */\n      mstore\n        /* \"#utility.yul\":18626:18757   */\n      tag_534\n        /* \"#utility.yul\":18752:18756   */\n      dup2\n        /* \"#utility.yul\":18626:18757   */\n      tag_321\n      jump\t// in\n    tag_534:\n        /* \"#utility.yul\":18618:18757   */\n      swap1\n      pop\n        /* \"#utility.yul\":18345:18764   */\n      swap2\n      swap1\n      pop\n      jump\t// out\n        /* \"#utility.yul\":18770:18939   */\n    tag_322:\n        /* \"#utility.yul\":18910:18931   */\n      0x416c726561647920726567697374657265642e00000000000000000000000000\n        /* \"#utility.yul\":18906:18907   */\n      0x00\n        /* \"#utility.yul\":18898:18904   */\n      dup3\n        /* \"#utility.yul\":18894:18908   */\n      add\n        /* \"#utility.yul\":18887:18932   */\n      mstore\n        /* \"#utility.yul\":18770:18939   */\n      pop\n      jump\t// out\n        /* \"#utility.yul\":18945:19311   */\n    tag_323:\n        /* \"#utility.yul\":19087:19090   */\n      0x00\n        /* \"#utility.yul\":19108:19175   */\n      tag_537\n        /* \"#utility.yul\":19172:19174   */\n      0x13\n        /* \"#utility.yul\":19167:19170   */\n      dup4\n        /* \"#utility.yul\":19108:19175   */\n      tag_270\n      jump\t// in\n    tag_537:\n        /* \"#utility.yul\":19101:19175   */\n      swap2\n      pop\n        /* \"#utility.yul\":19184:19277   */\n      tag_538\n        /* \"#utility.yul\":19273:19276   */\n      dup3\n        /* \"#utility.yul\":19184:19277   */\n      tag_322\n      jump\t// in\n    tag_538:\n        /* \"#utility.yul\":19302:19304   */\n      0x20\n        /* \"#utility.yul\":19297:19300   */\n      dup3\n        /* \"#utility.yul\":19293:19305   */\n      add\n        /* \"#utility.yul\":19286:19305   */\n      swap1\n      pop\n        /* \"#utility.yul\":18945:19311   */\n      swap2\n      swap1\n      pop\n      jump\t// out\n        /* \"#utility.yul\":19317:19736   */\n    tag_142:\n        /* \"#utility.yul\":19483:19487   */\n      0x00\n        /* \"#utility.yul\":19521:19523   */\n      0x20\n        /* \"#utility.yul\":19510:19519   */\n      dup3\n        /* \"#utility.yul\":19506:19524   */\n      add\n        /* \"#utility.yul\":19498:19524   */\n      swap1\n      pop\n        /* \"#utility.yul\":19570:19579   */\n      dup2\n        /* \"#utility.yul\":19564:19568   */\n      dup2\n        /* \"#utility.yul\":19560:19580   */\n      sub\n        /* \"#utility.yul\":19556:19557   */\n      0x00\n        /* \"#utility.yul\":19545:19554   */\n      dup4\n        /* \"#utility.yul\":19541:19558   */\n      add\n        /* \"#utility.yul\":19534:19581   */\n      mstore\n        /* \"#utility.yul\":19598:19729   */\n      tag_540\n        /* \"#utility.yul\":19724:19728   */\n      dup2\n        /* \"#utility.yul\":19598:19729   */\n      tag_323\n      jump\t// in\n    tag_540:\n        /* \"#utility.yul\":19590:19729   */\n      swap1\n      pop\n        /* \"#utility.yul\":19317:19736   */\n      swap2\n      swap1\n      pop\n      jump\t// out\n        /* \"#utility.yul\":19742:19918   */\n    tag_324:\n        /* \"#utility.yul\":19882:19910   */\n      0x566f74696e672073657373696f6e206973206e6f74206f70656e000000000000\n        /* \"#utility.yul\":19878:19879   */\n      0x00\n        /* \"#utility.yul\":19870:19876   */\n      dup3\n        /* \"#utility.yul\":19866:19880   */\n      add\n        /* \"#utility.yul\":19859:19911   */\n      mstore\n        /* \"#utility.yul\":19742:19918   */\n      pop\n      jump\t// out\n        /* \"#utility.yul\":19924:20290   */\n    tag_325:\n        /* \"#utility.yul\":20066:20069   */\n      0x00\n        /* \"#utility.yul\":20087:20154   */\n      tag_543\n        /* \"#utility.yul\":20151:20153   */\n      0x1a\n        /* \"#utility.yul\":20146:20149   */\n      dup4\n        /* \"#utility.yul\":20087:20154   */\n      tag_270\n      jump\t// in\n    tag_543:\n        /* \"#utility.yul\":20080:20154   */\n      swap2\n      pop\n        /* \"#utility.yul\":20163:20256   */\n      tag_544\n        /* \"#utility.yul\":20252:20255   */\n      dup3\n        /* \"#utility.yul\":20163:20256   */\n      tag_324\n      jump\t// in\n    tag_544:\n        /* \"#utility.yul\":20281:20283   */\n      0x20\n        /* \"#utility.yul\":20276:20279   */\n      dup3\n        /* \"#utility.yul\":20272:20284   */\n      add\n        /* \"#utility.yul\":20265:20284   */\n      swap1\n      pop\n        /* \"#utility.yul\":19924:20290   */\n      swap2\n      swap1\n      pop\n      jump\t// out\n        /* \"#utility.yul\":20296:20715   */\n    tag_156:\n        /* \"#utility.yul\":20462:20466   */\n      0x00\n        /* \"#utility.yul\":20500:20502   */\n      0x20\n        /* \"#utility.yul\":20489:20498   */\n      dup3\n        /* \"#utility.yul\":20485:20503   */\n      add\n        /* \"#utility.yul\":20477:20503   */\n      swap1\n      pop\n        /* \"#utility.yul\":20549:20558   */\n      dup2\n        /* \"#utility.yul\":20543:20547   */\n      dup2\n        /* \"#utility.yul\":20539:20559   */\n      sub\n        /* \"#utility.yul\":20535:20536   */\n      0x00\n        /* \"#utility.yul\":20524:20533   */\n      dup4\n        /* \"#utility.yul\":20520:20537   */\n      add\n        /* \"#utility.yul\":20513:20560   */\n      mstore\n        /* \"#utility.yul\":20577:20708   */\n      tag_546\n        /* \"#utility.yul\":20703:20707   */\n      dup2\n        /* \"#utility.yul\":20577:20708   */\n      tag_325\n      jump\t// in\n    tag_546:\n        /* \"#utility.yul\":20569:20708   */\n      swap1\n      pop\n        /* \"#utility.yul\":20296:20715   */\n      swap2\n      swap1\n      pop\n      jump\t// out\n        /* \"#utility.yul\":20721:20901   */\n    tag_326:\n        /* \"#utility.yul\":20861:20893   */\n      0x796f7520617265206e6f7420617574686f72697a656420746f20766f74650000\n        /* \"#utility.yul\":20857:20858   */\n      0x00\n        /* \"#utility.yul\":20849:20855   */\n      dup3\n        /* \"#utility.yul\":20845:20859   */\n      add\n        /* \"#utility.yul\":20838:20894   */\n      mstore\n        /* \"#utility.yul\":20721:20901   */\n      pop\n      jump\t// out\n        /* \"#utility.yul\":20907:21273   */\n    tag_327:\n        /* \"#utility.yul\":21049:21052   */\n      0x00\n        /* \"#utility.yul\":21070:21137   */\n      tag_549\n        /* \"#utility.yul\":21134:21136   */\n      0x1e\n        /* \"#utility.yul\":21129:21132   */\n      dup4\n        /* \"#utility.yul\":21070:21137   */\n      tag_270\n      jump\t// in\n    tag_549:\n        /* \"#utility.yul\":21063:21137   */\n      swap2\n      pop\n        /* \"#utility.yul\":21146:21239   */\n      tag_550\n        /* \"#utility.yul\":21235:21238   */\n      dup3\n        /* \"#utility.yul\":21146:21239   */\n      tag_326\n      jump\t// in\n    tag_550:\n        /* \"#utility.yul\":21264:21266   */\n      0x20\n        /* \"#utility.yul\":21259:21262   */\n      dup3\n        /* \"#utility.yul\":21255:21267   */\n      add\n        /* \"#utility.yul\":21248:21267   */\n      swap1\n      pop\n        /* \"#utility.yul\":20907:21273   */\n      swap2\n      swap1\n      pop\n      jump\t// out\n        /* \"#utility.yul\":21279:21698   */\n    tag_159:\n        /* \"#utility.yul\":21445:21449   */\n      0x00\n        /* \"#utility.yul\":21483:21485   */\n      0x20\n        /* \"#utility.yul\":21472:21481   */\n      dup3\n        /* \"#utility.yul\":21468:21486   */\n      add\n        /* \"#utility.yul\":21460:21486   */\n      swap1\n      pop\n        /* \"#utility.yul\":21532:21541   */\n      dup2\n        /* \"#utility.yul\":21526:21530   */\n      dup2\n        /* \"#utility.yul\":21522:21542   */\n      sub\n        /* \"#utility.yul\":21518:21519   */\n      0x00\n        /* \"#utility.yul\":21507:21516   */\n      dup4\n        /* \"#utility.yul\":21503:21520   */\n      add\n        /* \"#utility.yul\":21496:21543   */\n      mstore\n        /* \"#utility.yul\":21560:21691   */\n      tag_552\n        /* \"#utility.yul\":21686:21690   */\n      dup2\n        /* \"#utility.yul\":21560:21691   */\n      tag_327\n      jump\t// in\n    tag_552:\n        /* \"#utility.yul\":21552:21691   */\n      swap1\n      pop\n        /* \"#utility.yul\":21279:21698   */\n      swap2\n      swap1\n      pop\n      jump\t// out\n        /* \"#utility.yul\":21704:21871   */\n    tag_328:\n        /* \"#utility.yul\":21844:21863   */\n      0x796f7520616c726561647920766f746564000000000000000000000000000000\n        /* \"#utility.yul\":21840:21841   */\n      0x00\n        /* \"#utility.yul\":21832:21838   */\n      dup3\n        /* \"#utility.yul\":21828:21842   */\n      add\n        /* \"#utility.yul\":21821:21864   */\n      mstore\n        /* \"#utility.yul\":21704:21871   */\n      pop\n      jump\t// out\n        /* \"#utility.yul\":21877:22243   */\n    tag_329:\n        /* \"#utility.yul\":22019:22022   */\n      0x00\n        /* \"#utility.yul\":22040:22107   */\n      tag_555\n        /* \"#utility.yul\":22104:22106   */\n      0x11\n        /* \"#utility.yul\":22099:22102   */\n      dup4\n        /* \"#utility.yul\":22040:22107   */\n      tag_270\n      jump\t// in\n    tag_555:\n        /* \"#utility.yul\":22033:22107   */\n      swap2\n      pop\n        /* \"#utility.yul\":22116:22209   */\n      tag_556\n        /* \"#utility.yul\":22205:22208   */\n      dup3\n        /* \"#utility.yul\":22116:22209   */\n      tag_328\n      jump\t// in\n    tag_556:\n        /* \"#utility.yul\":22234:22236   */\n      0x20\n        /* \"#utility.yul\":22229:22232   */\n      dup3\n        /* \"#utility.yul\":22225:22237   */\n      add\n        /* \"#utility.yul\":22218:22237   */\n      swap1\n      pop\n        /* \"#utility.yul\":21877:22243   */\n      swap2\n      swap1\n      pop\n      jump\t// out\n        /* \"#utility.yul\":22249:22668   */\n    tag_162:\n        /* \"#utility.yul\":22415:22419   */\n      0x00\n        /* \"#utility.yul\":22453:22455   */\n      0x20\n        /* \"#utility.yul\":22442:22451   */\n      dup3\n        /* \"#utility.yul\":22438:22456   */\n      add\n        /* \"#utility.yul\":22430:22456   */\n      swap1\n      pop\n        /* \"#utility.yul\":22502:22511   */\n      dup2\n        /* \"#utility.yul\":22496:22500   */\n      dup2\n        /* \"#utility.yul\":22492:22512   */\n      sub\n        /* \"#utility.yul\":22488:22489   */\n      0x00\n        /* \"#utility.yul\":22477:22486   */\n      dup4\n        /* \"#utility.yul\":22473:22490   */\n      add\n        /* \"#utility.yul\":22466:22513   */\n      mstore\n        /* \"#utility.yul\":22530:22661   */\n      tag_558\n        /* \"#utility.yul\":22656:22660   */\n      dup2\n        /* \"#utility.yul\":22530:22661   */\n      tag_329\n      jump\t// in\n    tag_558:\n        /* \"#utility.yul\":22522:22661   */\n      swap1\n      pop\n        /* \"#utility.yul\":22249:22668   */\n      swap2\n      swap1\n      pop\n      jump\t// out\n        /* \"#utility.yul\":22674:22854   */\n    tag_330:\n        /* \"#utility.yul\":22722:22799   */\n      0x4e487b7100000000000000000000000000000000000000000000000000000000\n        /* \"#utility.yul\":22719:22720   */\n      0x00\n        /* \"#utility.yul\":22712:22800   */\n      mstore\n        /* \"#utility.yul\":22819:22823   */\n      0x11\n        /* \"#utility.yul\":22816:22817   */\n      0x04\n        /* \"#utility.yul\":22809:22824   */\n      mstore\n        /* \"#utility.yul\":22843:22847   */\n      0x24\n        /* \"#utility.yul\":22840:22841   */\n      0x00\n        /* \"#utility.yul\":22833:22848   */\n      revert\n        /* \"#utility.yul\":22860:23051   */\n    tag_167:\n        /* \"#utility.yul\":22900:22903   */\n      0x00\n        /* \"#utility.yul\":22919:22939   */\n      tag_561\n        /* \"#utility.yul\":22937:22938   */\n      dup3\n        /* \"#utility.yul\":22919:22939   */\n      tag_266\n      jump\t// in\n    tag_561:\n        /* \"#utility.yul\":22914:22939   */\n      swap2\n      pop\n        /* \"#utility.yul\":22953:22973   */\n      tag_562\n        /* \"#utility.yul\":22971:22972   */\n      dup4\n        /* \"#utility.yul\":22953:22973   */\n      tag_266\n      jump\t// in\n    tag_562:\n        /* \"#utility.yul\":22948:22973   */\n      swap3\n      pop\n        /* \"#utility.yul\":22996:22997   */\n      dup3\n        /* \"#utility.yul\":22993:22994   */\n      dup3\n        /* \"#utility.yul\":22989:22998   */\n      add\n        /* \"#utility.yul\":22982:22998   */\n      swap1\n      pop\n        /* \"#utility.yul\":23017:23020   */\n      dup1\n        /* \"#utility.yul\":23014:23015   */\n      dup3\n        /* \"#utility.yul\":23011:23021   */\n      gt\n        /* \"#utility.yul\":23008:23044   */\n      iszero\n      tag_563\n      jumpi\n        /* \"#utility.yul\":23024:23042   */\n      tag_564\n      tag_330\n      jump\t// in\n    tag_564:\n        /* \"#utility.yul\":23008:23044   */\n    tag_563:\n        /* \"#utility.yul\":22860:23051   */\n      swap3\n      swap2\n      pop\n      pop\n      jump\t// out\n        /* \"#utility.yul\":23057:23389   */\n    tag_169:\n        /* \"#utility.yul\":23178:23182   */\n      0x00\n        /* \"#utility.yul\":23216:23218   */\n      0x40\n        /* \"#utility.yul\":23205:23214   */\n      dup3\n        /* \"#utility.yul\":23201:23219   */\n      add\n        /* \"#utility.yul\":23193:23219   */\n      swap1\n      pop\n        /* \"#utility.yul\":23229:23300   */\n      tag_566\n        /* \"#utility.yul\":23297:23298   */\n      0x00\n        /* \"#utility.yul\":23286:23295   */\n      dup4\n        /* \"#utility.yul\":23282:23299   */\n      add\n        /* \"#utility.yul\":23273:23279   */\n      dup6\n        /* \"#utility.yul\":23229:23300   */\n      tag_283\n      jump\t// in\n    tag_566:\n        /* \"#utility.yul\":23310:23382   */\n      tag_567\n        /* \"#utility.yul\":23378:23380   */\n      0x20\n        /* \"#utility.yul\":23367:23376   */\n      dup4\n        /* \"#utility.yul\":23363:23381   */\n      add\n        /* \"#utility.yul\":23354:23360   */\n      dup5\n        /* \"#utility.yul\":23310:23382   */\n      tag_274\n      jump\t// in\n    tag_567:\n        /* \"#utility.yul\":23057:23389   */\n      swap4\n      swap3\n      pop\n      pop\n      pop\n      jump\t// out\n        /* \"#utility.yul\":23395:23565   */\n    tag_331:\n        /* \"#utility.yul\":23535:23557   */\n      0x566f74657320617265206e6f7420616c6c696564000000000000000000000000\n        /* \"#utility.yul\":23531:23532   */\n      0x00\n        /* \"#utility.yul\":23523:23529   */\n      dup3\n        /* \"#utility.yul\":23519:23533   */\n      add\n        /* \"#utility.yul\":23512:23558   */\n      mstore\n        /* \"#utility.yul\":23395:23565   */\n      pop\n      jump\t// out\n        /* \"#utility.yul\":23571:23937   */\n    tag_332:\n        /* \"#utility.yul\":23713:23716   */\n      0x00\n        /* \"#utility.yul\":23734:23801   */\n      tag_570\n        /* \"#utility.yul\":23798:23800   */\n      0x14\n        /* \"#utility.yul\":23793:23796   */\n      dup4\n        /* \"#utility.yul\":23734:23801   */\n      tag_270\n      jump\t// in\n    tag_570:\n        /* \"#utility.yul\":23727:23801   */\n      swap2\n      pop\n        /* \"#utility.yul\":23810:23903   */\n      tag_571\n        /* \"#utility.yul\":23899:23902   */\n      dup3\n        /* \"#utility.yul\":23810:23903   */\n      tag_331\n      jump\t// in\n    tag_571:\n        /* \"#utility.yul\":23928:23930   */\n      0x20\n        /* \"#utility.yul\":23923:23926   */\n      dup3\n        /* \"#utility.yul\":23919:23931   */\n      add\n        /* \"#utility.yul\":23912:23931   */\n      swap1\n      pop\n        /* \"#utility.yul\":23571:23937   */\n      swap2\n      swap1\n      pop\n      jump\t// out\n        /* \"#utility.yul\":23943:24362   */\n    tag_186:\n        /* \"#utility.yul\":24109:24113   */\n      0x00\n        /* \"#utility.yul\":24147:24149   */\n      0x20\n        /* \"#utility.yul\":24136:24145   */\n      dup3\n        /* \"#utility.yul\":24132:24150   */\n      add\n        /* \"#utility.yul\":24124:24150   */\n      swap1\n      pop\n        /* \"#utility.yul\":24196:24205   */\n      dup2\n        /* \"#utility.yul\":24190:24194   */\n      dup2\n        /* \"#utility.yul\":24186:24206   */\n      sub\n        /* \"#utility.yul\":24182:24183   */\n      0x00\n        /* \"#utility.yul\":24171:24180   */\n      dup4\n        /* \"#utility.yul\":24167:24184   */\n      add\n        /* \"#utility.yul\":24160:24207   */\n      mstore\n        /* \"#utility.yul\":24224:24355   */\n      tag_573\n        /* \"#utility.yul\":24350:24354   */\n      dup2\n        /* \"#utility.yul\":24224:24355   */\n      tag_332\n      jump\t// in\n    tag_573:\n        /* \"#utility.yul\":24216:24355   */\n      swap1\n      pop\n        /* \"#utility.yul\":23943:24362   */\n      swap2\n      swap1\n      pop\n      jump\t// out\n        /* \"#utility.yul\":24368:24588   */\n    tag_333:\n        /* \"#utility.yul\":24508:24542   */\n      0x5265676973746572696e672073657373696f6e206973206e6f7420636c6f7365\n        /* \"#utility.yul\":24504:24505   */\n      0x00\n        /* \"#utility.yul\":24496:24502   */\n      dup3\n        /* \"#utility.yul\":24492:24506   */\n      add\n        /* \"#utility.yul\":24485:24543   */\n      mstore\n        /* \"#utility.yul\":24577:24580   */\n      0x6400000000000000000000000000000000000000000000000000000000000000\n        /* \"#utility.yul\":24572:24574   */\n      0x20\n        /* \"#utility.yul\":24564:24570   */\n      dup3\n        /* \"#utility.yul\":24560:24575   */\n      add\n        /* \"#utility.yul\":24553:24581   */\n      mstore\n        /* \"#utility.yul\":24368:24588   */\n      pop\n      jump\t// out\n        /* \"#utility.yul\":24594:24960   */\n    tag_334:\n        /* \"#utility.yul\":24736:24739   */\n      0x00\n        /* \"#utility.yul\":24757:24824   */\n      tag_576\n        /* \"#utility.yul\":24821:24823   */\n      0x21\n        /* \"#utility.yul\":24816:24819   */\n      dup4\n        /* \"#utility.yul\":24757:24824   */\n      tag_270\n      jump\t// in\n    tag_576:\n        /* \"#utility.yul\":24750:24824   */\n      swap2\n      pop\n        /* \"#utility.yul\":24833:24926   */\n      tag_577\n        /* \"#utility.yul\":24922:24925   */\n      dup3\n        /* \"#utility.yul\":24833:24926   */\n      tag_333\n      jump\t// in\n    tag_577:\n        /* \"#utility.yul\":24951:24953   */\n      0x40\n        /* \"#utility.yul\":24946:24949   */\n      dup3\n        /* \"#utility.yul\":24942:24954   */\n      add\n        /* \"#utility.yul\":24935:24954   */\n      swap1\n      pop\n        /* \"#utility.yul\":24594:24960   */\n      swap2\n      swap1\n      pop\n      jump\t// out\n        /* \"#utility.yul\":24966:25385   */\n    tag_213:\n        /* \"#utility.yul\":25132:25136   */\n      0x00\n        /* \"#utility.yul\":25170:25172   */\n      0x20\n        /* \"#utility.yul\":25159:25168   */\n      dup3\n        /* \"#utility.yul\":25155:25173   */\n      add\n        /* \"#utility.yul\":25147:25173   */\n      swap1\n      pop\n        /* \"#utility.yul\":25219:25228   */\n      dup2\n        /* \"#utility.yul\":25213:25217   */\n      dup2\n        /* \"#utility.yul\":25209:25229   */\n      sub\n        /* \"#utility.yul\":25205:25206   */\n      0x00\n        /* \"#utility.yul\":25194:25203   */\n      dup4\n        /* \"#utility.yul\":25190:25207   */\n      add\n        /* \"#utility.yul\":25183:25230   */\n      mstore\n        /* \"#utility.yul\":25247:25378   */\n      tag_579\n        /* \"#utility.yul\":25373:25377   */\n      dup2\n        /* \"#utility.yul\":25247:25378   */\n      tag_334\n      jump\t// in\n    tag_579:\n        /* \"#utility.yul\":25239:25378   */\n      swap1\n      pop\n        /* \"#utility.yul\":24966:25385   */\n      swap2\n      swap1\n      pop\n      jump\t// out\n        /* \"#utility.yul\":25391:25570   */\n    tag_335:\n        /* \"#utility.yul\":25531:25562   */\n      0x50726f706f73696e672073657373696f6e206973206e6f74206f70656e000000\n        /* \"#utility.yul\":25527:25528   */\n      0x00\n        /* \"#utility.yul\":25519:25525   */\n      dup3\n        /* \"#utility.yul\":25515:25529   */\n      add\n        /* \"#utility.yul\":25508:25563   */\n      mstore\n        /* \"#utility.yul\":25391:25570   */\n      pop\n      jump\t// out\n        /* \"#utility.yul\":25576:25942   */\n    tag_336:\n        /* \"#utility.yul\":25718:25721   */\n      0x00\n        /* \"#utility.yul\":25739:25806   */\n      tag_582\n        /* \"#utility.yul\":25803:25805   */\n      0x1d\n        /* \"#utility.yul\":25798:25801   */\n      dup4\n        /* \"#utility.yul\":25739:25806   */\n      tag_270\n      jump\t// in\n    tag_582:\n        /* \"#utility.yul\":25732:25806   */\n      swap2\n      pop\n        /* \"#utility.yul\":25815:25908   */\n      tag_583\n        /* \"#utility.yul\":25904:25907   */\n      dup3\n        /* \"#utility.yul\":25815:25908   */\n      tag_335\n      jump\t// in\n    tag_583:\n        /* \"#utility.yul\":25933:25935   */\n      0x20\n        /* \"#utility.yul\":25928:25931   */\n      dup3\n        /* \"#utility.yul\":25924:25936   */\n      add\n        /* \"#utility.yul\":25917:25936   */\n      swap1\n      pop\n        /* \"#utility.yul\":25576:25942   */\n      swap2\n      swap1\n      pop\n      jump\t// out\n        /* \"#utility.yul\":25948:26367   */\n    tag_226:\n        /* \"#utility.yul\":26114:26118   */\n      0x00\n        /* \"#utility.yul\":26152:26154   */\n      0x20\n        /* \"#utility.yul\":26141:26150   */\n      dup3\n        /* \"#utility.yul\":26137:26155   */\n      add\n        /* \"#utility.yul\":26129:26155   */\n      swap1\n      pop\n        /* \"#utility.yul\":26201:26210   */\n      dup2\n        /* \"#utility.yul\":26195:26199   */\n      dup2\n        /* \"#utility.yul\":26191:26211   */\n      sub\n        /* \"#utility.yul\":26187:26188   */\n      0x00\n        /* \"#utility.yul\":26176:26185   */\n      dup4\n        /* \"#utility.yul\":26172:26189   */\n      add\n        /* \"#utility.yul\":26165:26212   */\n      mstore\n        /* \"#utility.yul\":26229:26360   */\n      tag_585\n        /* \"#utility.yul\":26355:26359   */\n      dup2\n        /* \"#utility.yul\":26229:26360   */\n      tag_336\n      jump\t// in\n    tag_585:\n        /* \"#utility.yul\":26221:26360   */\n      swap1\n      pop\n        /* \"#utility.yul\":25948:26367   */\n      swap2\n      swap1\n      pop\n      jump\t// out\n        /* \"#utility.yul\":26373:27768   */\n    tag_230:\n        /* \"#utility.yul\":26490:26527   */\n      tag_587\n        /* \"#utility.yul\":26523:26526   */\n      dup3\n        /* \"#utility.yul\":26490:26527   */\n      tag_269\n      jump\t// in\n    tag_587:\n        /* \"#utility.yul\":26592:26610   */\n      0xffffffffffffffff\n        /* \"#utility.yul\":26584:26590   */\n      dup2\n        /* \"#utility.yul\":26581:26611   */\n      gt\n        /* \"#utility.yul\":26578:26634   */\n      iszero\n      tag_588\n      jumpi\n        /* \"#utility.yul\":26614:26632   */\n      tag_589\n      tag_288\n      jump\t// in\n    tag_589:\n        /* \"#utility.yul\":26578:26634   */\n    tag_588:\n        /* \"#utility.yul\":26658:26696   */\n      tag_590\n        /* \"#utility.yul\":26690:26694   */\n      dup3\n        /* \"#utility.yul\":26684:26695   */\n      sload\n        /* \"#utility.yul\":26658:26696   */\n      tag_79\n      jump\t// in\n    tag_590:\n        /* \"#utility.yul\":26743:26810   */\n      tag_591\n        /* \"#utility.yul\":26803:26809   */\n      dup3\n        /* \"#utility.yul\":26795:26801   */\n      dup3\n        /* \"#utility.yul\":26789:26793   */\n      dup6\n        /* \"#utility.yul\":26743:26810   */\n      tag_316\n      jump\t// in\n    tag_591:\n        /* \"#utility.yul\":26837:26838   */\n      0x00\n        /* \"#utility.yul\":26861:26865   */\n      0x20\n        /* \"#utility.yul\":26848:26865   */\n      swap1\n      pop\n        /* \"#utility.yul\":26893:26895   */\n      0x1f\n        /* \"#utility.yul\":26885:26891   */\n      dup4\n        /* \"#utility.yul\":26882:26896   */\n      gt\n        /* \"#utility.yul\":26910:26911   */\n      0x01\n        /* \"#utility.yul\":26905:27523   */\n      dup2\n      eq\n      tag_593\n      jumpi\n        /* \"#utility.yul\":27567:27568   */\n      0x00\n        /* \"#utility.yul\":27584:27590   */\n      dup5\n        /* \"#utility.yul\":27581:27658   */\n      iszero\n      tag_594\n      jumpi\n        /* \"#utility.yul\":27633:27642   */\n      dup3\n        /* \"#utility.yul\":27628:27631   */\n      dup8\n        /* \"#utility.yul\":27624:27643   */\n      add\n        /* \"#utility.yul\":27618:27644   */\n      mload\n        /* \"#utility.yul\":27609:27644   */\n      swap1\n      pop\n        /* \"#utility.yul\":27581:27658   */\n    tag_594:\n        /* \"#utility.yul\":27684:27751   */\n      tag_595\n        /* \"#utility.yul\":27744:27750   */\n      dup6\n        /* \"#utility.yul\":27737:27742   */\n      dup3\n        /* \"#utility.yul\":27684:27751   */\n      tag_319\n      jump\t// in\n    tag_595:\n        /* \"#utility.yul\":27678:27682   */\n      dup7\n        /* \"#utility.yul\":27671:27752   */\n      sstore\n        /* \"#utility.yul\":27540:27762   */\n      pop\n        /* \"#utility.yul\":26875:27762   */\n      jump(tag_592)\n        /* \"#utility.yul\":26905:27523   */\n    tag_593:\n        /* \"#utility.yul\":26957:26961   */\n      0x1f\n        /* \"#utility.yul\":26953:26962   */\n      not\n        /* \"#utility.yul\":26945:26951   */\n      dup5\n        /* \"#utility.yul\":26941:26963   */\n      and\n        /* \"#utility.yul\":26991:27028   */\n      tag_596\n        /* \"#utility.yul\":27023:27027   */\n      dup7\n        /* \"#utility.yul\":26991:27028   */\n      tag_305\n      jump\t// in\n    tag_596:\n        /* \"#utility.yul\":27050:27051   */\n      0x00\n        /* \"#utility.yul\":27064:27272   */\n    tag_597:\n        /* \"#utility.yul\":27078:27085   */\n      dup3\n        /* \"#utility.yul\":27075:27076   */\n      dup2\n        /* \"#utility.yul\":27072:27086   */\n      lt\n        /* \"#utility.yul\":27064:27272   */\n      iszero\n      tag_599\n      jumpi\n        /* \"#utility.yul\":27157:27166   */\n      dup5\n        /* \"#utility.yul\":27152:27155   */\n      dup10\n        /* \"#utility.yul\":27148:27167   */\n      add\n        /* \"#utility.yul\":27142:27168   */\n      mload\n        /* \"#utility.yul\":27134:27140   */\n      dup3\n        /* \"#utility.yul\":27127:27169   */\n      sstore\n        /* \"#utility.yul\":27208:27209   */\n      0x01\n        /* \"#utility.yul\":27200:27206   */\n      dup3\n        /* \"#utility.yul\":27196:27210   */\n      add\n        /* \"#utility.yul\":27186:27210   */\n      swap2\n      pop\n        /* \"#utility.yul\":27255:27257   */\n      0x20\n        /* \"#utility.yul\":27244:27253   */\n      dup6\n        /* \"#utility.yul\":27240:27258   */\n      add\n        /* \"#utility.yul\":27227:27258   */\n      swap5\n      pop\n        /* \"#utility.yul\":27101:27105   */\n      0x20\n        /* \"#utility.yul\":27098:27099   */\n      dup2\n        /* \"#utility.yul\":27094:27106   */\n      add\n        /* \"#utility.yul\":27089:27106   */\n      swap1\n      pop\n        /* \"#utility.yul\":27064:27272   */\n      jump(tag_597)\n    tag_599:\n        /* \"#utility.yul\":27300:27306   */\n      dup7\n        /* \"#utility.yul\":27291:27298   */\n      dup4\n        /* \"#utility.yul\":27288:27307   */\n      lt\n        /* \"#utility.yul\":27285:27464   */\n      iszero\n      tag_600\n      jumpi\n        /* \"#utility.yul\":27358:27367   */\n      dup5\n        /* \"#utility.yul\":27353:27356   */\n      dup10\n        /* \"#utility.yul\":27349:27368   */\n      add\n        /* \"#utility.yul\":27343:27369   */\n      mload\n        /* \"#utility.yul\":27401:27449   */\n      tag_601\n        /* \"#utility.yul\":27443:27447   */\n      0x1f\n        /* \"#utility.yul\":27435:27441   */\n      dup10\n        /* \"#utility.yul\":27431:27448   */\n      and\n        /* \"#utility.yul\":27420:27429   */\n      dup3\n        /* \"#utility.yul\":27401:27449   */\n      tag_318\n      jump\t// in\n    tag_601:\n        /* \"#utility.yul\":27393:27399   */\n      dup4\n        /* \"#utility.yul\":27386:27450   */\n      sstore\n        /* \"#utility.yul\":27308:27464   */\n      pop\n        /* \"#utility.yul\":27285:27464   */\n    tag_600:\n        /* \"#utility.yul\":27510:27511   */\n      0x01\n        /* \"#utility.yul\":27506:27507   */\n      0x02\n        /* \"#utility.yul\":27498:27504   */\n      dup9\n        /* \"#utility.yul\":27494:27508   */\n      mul\n        /* \"#utility.yul\":27490:27512   */\n      add\n        /* \"#utility.yul\":27484:27488   */\n      dup9\n        /* \"#utility.yul\":27477:27513   */\n      sstore\n        /* \"#utility.yul\":26912:27523   */\n      pop\n      pop\n      pop\n        /* \"#utility.yul\":26875:27762   */\n    tag_592:\n      pop\n        /* \"#utility.yul\":26465:27768   */\n      pop\n      pop\n      pop\n        /* \"#utility.yul\":26373:27768   */\n      pop\n      pop\n      jump\t// out\n        /* \"#utility.yul\":27774:27968   */\n    tag_232:\n        /* \"#utility.yul\":27814:27818   */\n      0x00\n        /* \"#utility.yul\":27834:27854   */\n      tag_603\n        /* \"#utility.yul\":27852:27853   */\n      dup3\n        /* \"#utility.yul\":27834:27854   */\n      tag_266\n      jump\t// in\n    tag_603:\n        /* \"#utility.yul\":27829:27854   */\n      swap2\n      pop\n        /* \"#utility.yul\":27868:27888   */\n      tag_604\n        /* \"#utility.yul\":27886:27887   */\n      dup4\n        /* \"#utility.yul\":27868:27888   */\n      tag_266\n      jump\t// in\n    tag_604:\n        /* \"#utility.yul\":27863:27888   */\n      swap3\n      pop\n        /* \"#utility.yul\":27912:27913   */\n      dup3\n        /* \"#utility.yul\":27909:27910   */\n      dup3\n        /* \"#utility.yul\":27905:27914   */\n      sub\n        /* \"#utility.yul\":27897:27914   */\n      swap1\n      pop\n        /* \"#utility.yul\":27936:27937   */\n      dup2\n        /* \"#utility.yul\":27930:27934   */\n      dup2\n        /* \"#utility.yul\":27927:27938   */\n      gt\n        /* \"#utility.yul\":27924:27961   */\n      iszero\n      tag_605\n      jumpi\n        /* \"#utility.yul\":27941:27959   */\n      tag_606\n      tag_330\n      jump\t// in\n    tag_606:\n        /* \"#utility.yul\":27924:27961   */\n    tag_605:\n        /* \"#utility.yul\":27774:27968   */\n      swap3\n      swap2\n      pop\n      pop\n      jump\t// out\n        /* \"#utility.yul\":27974:28196   */\n    tag_234:\n        /* \"#utility.yul\":28067:28071   */\n      0x00\n        /* \"#utility.yul\":28105:28107   */\n      0x20\n        /* \"#utility.yul\":28094:28103   */\n      dup3\n        /* \"#utility.yul\":28090:28108   */\n      add\n        /* \"#utility.yul\":28082:28108   */\n      swap1\n      pop\n        /* \"#utility.yul\":28118:28189   */\n      tag_608\n        /* \"#utility.yul\":28186:28187   */\n      0x00\n        /* \"#utility.yul\":28175:28184   */\n      dup4\n        /* \"#utility.yul\":28171:28188   */\n      add\n        /* \"#utility.yul\":28162:28168   */\n      dup5\n        /* \"#utility.yul\":28118:28189   */\n      tag_274\n      jump\t// in\n    tag_608:\n        /* \"#utility.yul\":27974:28196   */\n      swap3\n      swap2\n      pop\n      pop\n      jump\t// out\n        /* \"#utility.yul\":28202:28423   */\n    tag_337:\n        /* \"#utility.yul\":28342:28376   */\n      0x526567697374726174696f6e2073657373696f6e206973206e6f7420636c6f73\n        /* \"#utility.yul\":28338:28339   */\n      0x00\n        /* \"#utility.yul\":28330:28336   */\n      dup3\n        /* \"#utility.yul\":28326:28340   */\n      add\n        /* \"#utility.yul\":28319:28377   */\n      mstore\n        /* \"#utility.yul\":28411:28415   */\n      0x6564000000000000000000000000000000000000000000000000000000000000\n        /* \"#utility.yul\":28406:28408   */\n      0x20\n        /* \"#utility.yul\":28398:28404   */\n      dup3\n        /* \"#utility.yul\":28394:28409   */\n      add\n        /* \"#utility.yul\":28387:28416   */\n      mstore\n        /* \"#utility.yul\":28202:28423   */\n      pop\n      jump\t// out\n        /* \"#utility.yul\":28429:28795   */\n    tag_338:\n        /* \"#utility.yul\":28571:28574   */\n      0x00\n        /* \"#utility.yul\":28592:28659   */\n      tag_611\n        /* \"#utility.yul\":28656:28658   */\n      0x22\n        /* \"#utility.yul\":28651:28654   */\n      dup4\n        /* \"#utility.yul\":28592:28659   */\n      tag_270\n      jump\t// in\n    tag_611:\n        /* \"#utility.yul\":28585:28659   */\n      swap2\n      pop\n        /* \"#utility.yul\":28668:28761   */\n      tag_612\n        /* \"#utility.yul\":28757:28760   */\n      dup3\n        /* \"#utility.yul\":28668:28761   */\n      tag_337\n      jump\t// in\n    tag_612:\n        /* \"#utility.yul\":28786:28788   */\n      0x40\n        /* \"#utility.yul\":28781:28784   */\n      dup3\n        /* \"#utility.yul\":28777:28789   */\n      add\n        /* \"#utility.yul\":28770:28789   */\n      swap1\n      pop\n        /* \"#utility.yul\":28429:28795   */\n      swap2\n      swap1\n      pop\n      jump\t// out\n        /* \"#utility.yul\":28801:29220   */\n    tag_244:\n        /* \"#utility.yul\":28967:28971   */\n      0x00\n        /* \"#utility.yul\":29005:29007   */\n      0x20\n        /* \"#utility.yul\":28994:29003   */\n      dup3\n        /* \"#utility.yul\":28990:29008   */\n      add\n        /* \"#utility.yul\":28982:29008   */\n      swap1\n      pop\n        /* \"#utility.yul\":29054:29063   */\n      dup2\n        /* \"#utility.yul\":29048:29052   */\n      dup2\n        /* \"#utility.yul\":29044:29064   */\n      sub\n        /* \"#utility.yul\":29040:29041   */\n      0x00\n        /* \"#utility.yul\":29029:29038   */\n      dup4\n        /* \"#utility.yul\":29025:29042   */\n      add\n        /* \"#utility.yul\":29018:29065   */\n      mstore\n        /* \"#utility.yul\":29082:29213   */\n      tag_614\n        /* \"#utility.yul\":29208:29212   */\n      dup2\n        /* \"#utility.yul\":29082:29213   */\n      tag_338\n      jump\t// in\n    tag_614:\n        /* \"#utility.yul\":29074:29213   */\n      swap1\n      pop\n        /* \"#utility.yul\":28801:29220   */\n      swap2\n      swap1\n      pop\n      jump\t// out\n\n    auxdata: 0xa2646970667358221220c73e2710f037fa05986570ec798ef88aebd8253dda1aae15cd47cb55cd6d48f464736f6c634300081d0033\n}\n",
				"bytecode": {
					"linkReferences": {},
					"object": "608060405234801561000f575f5ffd5b50335f73ffffffffffffffffffffffffffffffffffffffff168173ffffffffffffffffffffffffffffffffffffffff1603610081575f6040517f1e4fbdf700000000000000000000000000000000000000000000000000000000815260040161007891906101bf565b60405180910390fd5b610090816100bf60201b60201c565b505f60025f6101000a81548160ff021916908360058111156100b5576100b46101d8565b5b0217905550610205565b5f5f5f9054906101000a900473ffffffffffffffffffffffffffffffffffffffff169050815f5f6101000a81548173ffffffffffffffffffffffffffffffffffffffff021916908373ffffffffffffffffffffffffffffffffffffffff1602179055508173ffffffffffffffffffffffffffffffffffffffff168173ffffffffffffffffffffffffffffffffffffffff167f8be0079c531659141344cd1fd0a4f28419497f9722a3daafe3b4186f6b6457e060405160405180910390a35050565b5f73ffffffffffffffffffffffffffffffffffffffff82169050919050565b5f6101a982610180565b9050919050565b6101b98161019f565b82525050565b5f6020820190506101d25f8301846101b0565b92915050565b7f4e487b71000000000000000000000000000000000000000000000000000000005f52602160045260245ffd5b61217b806102125f395ff3fe608060405234801561000f575f5ffd5b50600436106100fe575f3560e01c8063a3c1885b11610095578063c9e3fd4711610064578063c9e3fd471461023e578063ee74c6781461025a578063ef8a923514610264578063f2fde38b14610282576100fe565b8063a3c1885b146101da578063a3ec138d146101f8578063a7bfab161461022a578063b2c6348714610234576100fe565b806355256a0a116100d157806355256a0a146101775780635f74bbde14610196578063715018a6146101b25780638da5cb5b146101bc576100fe565b8063013cf08b1461010257806333321a7c14610133578063378a21781461013d57806338db6dd31461015b575b5f5ffd5b61011c600480360381019061011791906112d2565b61029e565b60405161012a92919061137c565b60405180910390f35b61013b610353565b005b610145610436565b604051610152919061143b565b60405180910390f35b610175600480360381019061017091906114b5565b610649565b005b61017f6107e1565b60405161018d92919061137c565b60405180910390f35b6101b060048036038101906101ab91906114e0565b610878565b005b6101ba610b18565b005b6101c4610b2b565b6040516101d1919061152d565b60405180910390f35b6101e2610b52565b6040516101ef919061143b565b60405180910390f35b610212600480360381019061020d91906114b5565b610c81565b60405161022193929190611560565b60405180910390f35b610232610cbf565b005b61023c610da3565b005b610258600480360381019061025391906116c1565b610e85565b005b610262610fac565b005b61026c611090565b604051610279919061177b565b60405180910390f35b61029c600480360381019061029791906114b5565b6110a2565b005b600381815481106102ad575f80fd5b905f5260205f2090600202015f91509050805f0180546102cc906117c1565b80601f01602080910402602001604051908101604052809291908181526020018280546102f8906117c1565b80156103435780601f1061031a57610100808354040283529160200191610343565b820191905f5260205f20905b81548152906001019060200180831161032657829003601f168201915b5050505050908060010154905082565b61035b611126565b6001600581111561036f5761036e611708565b5b60025f9054906101000a900460ff1660058111156103905761038f611708565b5b146103d0576040517f08c379a00000000000000000000000000000000000000000000000000000000081526004016103c79061183b565b60405180910390fd5b6002805f6101000a81548160ff021916908360058111156103f4576103f3611708565b5b02179055507f0a97a4ee45751e2abf3e4fc8946939630b11b371ea8ae39ccdc3056e98f5cc3f6001600260405161042c929190611859565b60405180910390a1565b61043e611275565b610446611126565b6004600581111561045a57610459611708565b5b60025f9054906101000a900460ff16600581111561047b5761047a611708565b5b146104bb576040517f08c379a00000000000000000000000000000000000000000000000000000000081526004016104b2906118ca565b60405180910390fd5b5f5f90505f5f90505b600380549050811015610537575f600382815481106104e6576104e56118e8565b5b905f5260205f2090600202019050828160010154111561052b57806001015492508060045f8201815f01908161051c9190611aca565b50600182015481600101559050505b508060010190506104c4565b50600560025f6101000a81548160ff0219169083600581111561055d5761055c611708565b5b02179055507f0a97a4ee45751e2abf3e4fc8946939630b11b371ea8ae39ccdc3056e98f5cc3f60046005604051610595929190611859565b60405180910390a160046040518060400160405290815f820180546105b9906117c1565b80601f01602080910402602001604051908101604052809291908181526020018280546105e5906117c1565b80156106305780601f1061060757610100808354040283529160200191610630565b820191905f5260205f20905b81548152906001019060200180831161061357829003601f168201915b5050505050815260200160018201548152505091505090565b610651611126565b5f600581111561066457610663611708565b5b60025f9054906101000a900460ff16600581111561068557610684611708565b5b146106c5576040517f08c379a00000000000000000000000000000000000000000000000000000000081526004016106bc90611bf9565b60405180910390fd5b60015f3373ffffffffffffffffffffffffffffffffffffffff1673ffffffffffffffffffffffffffffffffffffffff1681526020019081526020015f205f015f9054906101000a900460ff1615610751576040517f08c379a000000000000000000000000000000000000000000000000000000000815260040161074890611c61565b60405180910390fd5b6001805f8373ffffffffffffffffffffffffffffffffffffffff1673ffffffffffffffffffffffffffffffffffffffff1681526020019081526020015f205f015f6101000a81548160ff0219169083151502179055507fb6be2187d059cc2a55fe29e0e503b566e1e0f8c8780096e185429350acffd3dd816040516107d6919061152d565b60405180910390a150565b6004805f0180546107f1906117c1565b80601f016020809104026020016040519081016040528092919081815260200182805461081d906117c1565b80156108685780601f1061083f57610100808354040283529160200191610868565b820191905f5260205f20905b81548152906001019060200180831161084b57829003601f168201915b5050505050908060010154905082565b6003600581111561088c5761088b611708565b5b60025f9054906101000a900460ff1660058111156108ad576108ac611708565b5b146108ed576040517f08c379a00000000000000000000000000000000000000000000000000000000081526004016108e490611cc9565b60405180910390fd5b60015f3373ffffffffffffffffffffffffffffffffffffffff1673ffffffffffffffffffffffffffffffffffffffff1681526020019081526020015f205f015f9054906101000a900460ff16610978576040517f08c379a000000000000000000000000000000000000000000000000000000000815260040161096f90611d31565b60405180910390fd5b60015f3373ffffffffffffffffffffffffffffffffffffffff1673ffffffffffffffffffffffffffffffffffffffff1681526020019081526020015f205f0160019054906101000a900460ff1615610a05576040517f08c379a00000000000000000000000000000000000000000000000000000000081526004016109fc90611d99565b60405180910390fd5b8060015f3373ffffffffffffffffffffffffffffffffffffffff1673ffffffffffffffffffffffffffffffffffffffff1681526020019081526020015f20600101819055506001805f3373ffffffffffffffffffffffffffffffffffffffff1673ffffffffffffffffffffffffffffffffffffffff1681526020019081526020015f205f0160016101000a81548160ff021916908315150217905550600160038281548110610ab757610ab66118e8565b5b905f5260205f2090600202016001015f828254610ad49190611de4565b925050819055507f4d99b957a2bc29a30ebd96a7be8e68fe50a3c701db28a91436490b7d53870ca48282604051610b0c929190611e17565b60405180910390a15050565b610b20611126565b610b295f6111ad565b565b5f5f5f9054906101000a900473ffffffffffffffffffffffffffffffffffffffff16905090565b610b5a611275565b610b62611126565b600580811115610b7557610b74611708565b5b60025f9054906101000a900460ff166005811115610b9657610b95611708565b5b14610bd6576040517f08c379a0000000000000000000000000000000000000000000000000000000008152600401610bcd90611e88565b60405180910390fd5b60046040518060400160405290815f82018054610bf2906117c1565b80601f0160208091040260200160405190810160405280929190818152602001828054610c1e906117c1565b8015610c695780601f10610c4057610100808354040283529160200191610c69565b820191905f5260205f20905b815481529060010190602001808311610c4c57829003601f168201915b50505050508152602001600182015481525050905090565b6001602052805f5260405f205f91509050805f015f9054906101000a900460ff1690805f0160019054906101000a900460ff16908060010154905083565b610cc7611126565b60036005811115610cdb57610cda611708565b5b60025f9054906101000a900460ff166005811115610cfc57610cfb611708565b5b14610d3c576040517f08c379a0000000000000000000000000000000000000000000000000000000008152600401610d3390611cc9565b60405180910390fd5b600460025f6101000a81548160ff02191690836005811115610d6157610d60611708565b5b02179055507f0a97a4ee45751e2abf3e4fc8946939630b11b371ea8ae39ccdc3056e98f5cc3f60036004604051610d99929190611859565b60405180910390a1565b610dab611126565b5f6005811115610dbe57610dbd611708565b5b60025f9054906101000a900460ff166005811115610ddf57610dde611708565b5b14610e1f576040517f08c379a0000000000000000000000000000000000000000000000000000000008152600401610e1690611f16565b60405180910390fd5b600160025f6101000a81548160ff02191690836005811115610e4457610e43611708565b5b02179055507f0a97a4ee45751e2abf3e4fc8946939630b11b371ea8ae39ccdc3056e98f5cc3f5f6001604051610e7b929190611859565b60405180910390a1565b610e8d611126565b60016005811115610ea157610ea0611708565b5b60025f9054906101000a900460ff166005811115610ec257610ec1611708565b5b14610f02576040517f08c379a0000000000000000000000000000000000000000000000000000000008152600401610ef990611f7e565b60405180910390fd5b610f0a611275565b81815f0181905250600381908060018154018082558091505060019003905f5260205f2090600202015f909190919091505f820151815f019081610f4e9190611f9c565b506020820151816001015550505f6001600380549050610f6e919061206b565b90507f92e393e9b54e2f801d3ea4beb0c5e71a21cc34a5d34b77d0fb8a3aa1650dc18f81604051610f9f919061209e565b60405180910390a1505050565b610fb4611126565b60026005811115610fc857610fc7611708565b5b60025f9054906101000a900460ff166005811115610fe957610fe8611708565b5b14611029576040517f08c379a000000000000000000000000000000000000000000000000000000000815260040161102090612127565b60405180910390fd5b600360025f6101000a81548160ff0219169083600581111561104e5761104d611708565b5b02179055507f0a97a4ee45751e2abf3e4fc8946939630b11b371ea8ae39ccdc3056e98f5cc3f60026003604051611086929190611859565b60405180910390a1565b60025f9054906101000a900460ff1681565b6110aa611126565b5f73ffffffffffffffffffffffffffffffffffffffff168173ffffffffffffffffffffffffffffffffffffffff160361111a575f6040517f1e4fbdf7000000000000000000000000000000000000000000000000000000008152600401611111919061152d565b60405180910390fd5b611123816111ad565b50565b61112e61126e565b73ffffffffffffffffffffffffffffffffffffffff1661114c610b2b565b73ffffffffffffffffffffffffffffffffffffffff16146111ab5761116f61126e565b6040517f118cdaa70000000000000000000000000000000000000000000000000000000081526004016111a2919061152d565b60405180910390fd5b565b5f5f5f9054906101000a900473ffffffffffffffffffffffffffffffffffffffff169050815f5f6101000a81548173ffffffffffffffffffffffffffffffffffffffff021916908373ffffffffffffffffffffffffffffffffffffffff1602179055508173ffffffffffffffffffffffffffffffffffffffff168173ffffffffffffffffffffffffffffffffffffffff167f8be0079c531659141344cd1fd0a4f28419497f9722a3daafe3b4186f6b6457e060405160405180910390a35050565b5f33905090565b6040518060400160405280606081526020015f81525090565b5f604051905090565b5f5ffd5b5f5ffd5b5f819050919050565b6112b18161129f565b81146112bb575f5ffd5b50565b5f813590506112cc816112a8565b92915050565b5f602082840312156112e7576112e6611297565b5b5f6112f4848285016112be565b91505092915050565b5f81519050919050565b5f82825260208201905092915050565b8281835e5f83830152505050565b5f601f19601f8301169050919050565b5f61133f826112fd565b6113498185611307565b9350611359818560208601611317565b61136281611325565b840191505092915050565b6113768161129f565b82525050565b5f6040820190508181035f8301526113948185611335565b90506113a3602083018461136d565b9392505050565b5f82825260208201905092915050565b5f6113c4826112fd565b6113ce81856113aa565b93506113de818560208601611317565b6113e781611325565b840191505092915050565b6113fb8161129f565b82525050565b5f604083015f8301518482035f86015261141b82826113ba565b915050602083015161143060208601826113f2565b508091505092915050565b5f6020820190508181035f8301526114538184611401565b905092915050565b5f73ffffffffffffffffffffffffffffffffffffffff82169050919050565b5f6114848261145b565b9050919050565b6114948161147a565b811461149e575f5ffd5b50565b5f813590506114af8161148b565b92915050565b5f602082840312156114ca576114c9611297565b5b5f6114d7848285016114a1565b91505092915050565b5f5f604083850312156114f6576114f5611297565b5b5f611503858286016114a1565b9250506020611514858286016112be565b9150509250929050565b6115278161147a565b82525050565b5f6020820190506115405f83018461151e565b92915050565b5f8115159050919050565b61155a81611546565b82525050565b5f6060820190506115735f830186611551565b6115806020830185611551565b61158d604083018461136d565b949350505050565b5f5ffd5b5f5ffd5b7f4e487b71000000000000000000000000000000000000000000000000000000005f52604160045260245ffd5b6115d382611325565b810181811067ffffffffffffffff821117156115f2576115f161159d565b5b80604052505050565b5f61160461128e565b905061161082826115ca565b919050565b5f67ffffffffffffffff82111561162f5761162e61159d565b5b61163882611325565b9050602081019050919050565b828183375f83830152505050565b5f61166561166084611615565b6115fb565b90508281526020810184848401111561168157611680611599565b5b61168c848285611645565b509392505050565b5f82601f8301126116a8576116a7611595565b5b81356116b8848260208601611653565b91505092915050565b5f602082840312156116d6576116d5611297565b5b5f82013567ffffffffffffffff8111156116f3576116f261129b565b5b6116ff84828501611694565b91505092915050565b7f4e487b71000000000000000000000000000000000000000000000000000000005f52602160045260245ffd5b6006811061174657611745611708565b5b50565b5f81905061175682611735565b919050565b5f61176582611749565b9050919050565b6117758161175b565b82525050565b5f60208201905061178e5f83018461176c565b92915050565b7f4e487b71000000000000000000000000000000000000000000000000000000005f52602260045260245ffd5b5f60028204905060018216806117d857607f821691505b6020821081036117eb576117ea611794565b5b50919050565b7f526567697374726174696f6e2073657373696f6e206973206e6f74206f70656e5f82015250565b5f611825602083611307565b9150611830826117f1565b602082019050919050565b5f6020820190508181035f83015261185281611819565b9050919050565b5f60408201905061186c5f83018561176c565b611879602083018461176c565b9392505050565b7f566f74696e672073657373696f6e206973206e6f7420636c6f736564000000005f82015250565b5f6118b4601c83611307565b91506118bf82611880565b602082019050919050565b5f6020820190508181035f8301526118e1816118a8565b9050919050565b7f4e487b71000000000000000000000000000000000000000000000000000000005f52603260045260245ffd5b5f81549050611923816117c1565b9050919050565b5f819050815f5260205f209050919050565b5f6020601f8301049050919050565b5f82821b905092915050565b5f600883026119867fffffffffffffffffffffffffffffffffffffffffffffffffffffffffffffffff8261194b565b611990868361194b565b95508019841693508086168417925050509392505050565b5f819050919050565b5f6119cb6119c66119c18461129f565b6119a8565b61129f565b9050919050565b5f819050919050565b6119e4836119b1565b6119f86119f0826119d2565b848454611957565b825550505050565b5f5f905090565b611a0f611a00565b611a1a8184846119db565b505050565b5b81811015611a3d57611a325f82611a07565b600181019050611a20565b5050565b601f821115611a8257611a538161192a565b611a5c8461193c565b81016020851015611a6b578190505b611a7f611a778561193c565b830182611a1f565b50505b505050565b5f82821c905092915050565b5f611aa25f1984600802611a87565b1980831691505092915050565b5f611aba8383611a93565b9150826002028217905092915050565b818103611ad8575050611bad565b611ae182611915565b67ffffffffffffffff811115611afa57611af961159d565b5b611b0482546117c1565b611b0f828285611a41565b5f601f831160018114611b3c575f8415611b2a578287015490505b611b348582611aaf565b865550611ba6565b601f198416611b4a8761192a565b9650611b558661192a565b5f5b82811015611b7c57848901548255600182019150600185019450602081019050611b57565b86831015611b995784890154611b95601f891682611a93565b8355505b6001600288020188555050505b5050505050505b565b7f5265676973746572696e672073657373696f6e206973206e6f74206f70656e005f82015250565b5f611be3601f83611307565b9150611bee82611baf565b602082019050919050565b5f6020820190508181035f830152611c1081611bd7565b9050919050565b7f416c726561647920726567697374657265642e000000000000000000000000005f82015250565b5f611c4b601383611307565b9150611c5682611c17565b602082019050919050565b5f6020820190508181035f830152611c7881611c3f565b9050919050565b7f566f74696e672073657373696f6e206973206e6f74206f70656e0000000000005f82015250565b5f611cb3601a83611307565b9150611cbe82611c7f565b602082019050919050565b5f6020820190508181035f830152611ce081611ca7565b9050919050565b7f796f7520617265206e6f7420617574686f72697a656420746f20766f746500005f82015250565b5f611d1b601e83611307565b9150611d2682611ce7565b602082019050919050565b5f6020820190508181035f830152611d4881611d0f565b9050919050565b7f796f7520616c726561647920766f7465640000000000000000000000000000005f82015250565b5f611d83601183611307565b9150611d8e82611d4f565b602082019050919050565b5f6020820190508181035f830152611db081611d77565b9050919050565b7f4e487b71000000000000000000000000000000000000000000000000000000005f52601160045260245ffd5b5f611dee8261129f565b9150611df98361129f565b9250828201905080821115611e1157611e10611db7565b5b92915050565b5f604082019050611e2a5f83018561151e565b611e37602083018461136d565b9392505050565b7f566f74657320617265206e6f7420616c6c6965640000000000000000000000005f82015250565b5f611e72601483611307565b9150611e7d82611e3e565b602082019050919050565b5f6020820190508181035f830152611e9f81611e66565b9050919050565b7f5265676973746572696e672073657373696f6e206973206e6f7420636c6f73655f8201527f6400000000000000000000000000000000000000000000000000000000000000602082015250565b5f611f00602183611307565b9150611f0b82611ea6565b604082019050919050565b5f6020820190508181035f830152611f2d81611ef4565b9050919050565b7f50726f706f73696e672073657373696f6e206973206e6f74206f70656e0000005f82015250565b5f611f68601d83611307565b9150611f7382611f34565b602082019050919050565b5f6020820190508181035f830152611f9581611f5c565b9050919050565b611fa5826112fd565b67ffffffffffffffff811115611fbe57611fbd61159d565b5b611fc882546117c1565b611fd3828285611a41565b5f60209050601f831160018114612004575f8415611ff2578287015190505b611ffc8582611aaf565b865550612063565b601f1984166120128661192a565b5f5b8281101561203957848901518255600182019150602085019450602081019050612014565b868310156120565784890151612052601f891682611a93565b8355505b6001600288020188555050505b505050505050565b5f6120758261129f565b91506120808361129f565b925082820390508181111561209857612097611db7565b5b92915050565b5f6020820190506120b15f83018461136d565b92915050565b7f526567697374726174696f6e2073657373696f6e206973206e6f7420636c6f735f8201527f6564000000000000000000000000000000000000000000000000000000000000602082015250565b5f612111602283611307565b915061211c826120b7565b604082019050919050565b5f6020820190508181035f83015261213e81612105565b905091905056fea2646970667358221220c73e2710f037fa05986570ec798ef88aebd8253dda1aae15cd47cb55cd6d48f464736f6c634300081d0033",
					"opcodes": "PUSH1 0x80 PUSH1 0x40 MSTORE CALLVALUE DUP1 ISZERO PUSH2 0xF JUMPI PUSH0 PUSH0 REVERT JUMPDEST POP CALLER PUSH0 PUSH20 0xFFFFFFFFFFFFFFFFFFFFFFFFFFFFFFFFFFFFFFFF AND DUP2 PUSH20 0xFFFFFFFFFFFFFFFFFFFFFFFFFFFFFFFFFFFFFFFF AND SUB PUSH2 0x81 JUMPI PUSH0 PUSH1 0x40 MLOAD PUSH32 0x1E4FBDF700000000000000000000000000000000000000000000000000000000 DUP2 MSTORE PUSH1 0x4 ADD PUSH2 0x78 SWAP2 SWAP1 PUSH2 0x1BF JUMP JUMPDEST PUSH1 0x40 MLOAD DUP1 SWAP2 SUB SWAP1 REVERT JUMPDEST PUSH2 0x90 DUP2 PUSH2 0xBF PUSH1 0x20 SHL PUSH1 0x20 SHR JUMP JUMPDEST POP PUSH0 PUSH1 0x2 PUSH0 PUSH2 0x100 EXP DUP2 SLOAD DUP2 PUSH1 0xFF MUL NOT AND SWAP1 DUP4 PUSH1 0x5 DUP2 GT ISZERO PUSH2 0xB5 JUMPI PUSH2 0xB4 PUSH2 0x1D8 JUMP JUMPDEST JUMPDEST MUL OR SWAP1 SSTORE POP PUSH2 0x205 JUMP JUMPDEST PUSH0 PUSH0 PUSH0 SWAP1 SLOAD SWAP1 PUSH2 0x100 EXP SWAP1 DIV PUSH20 0xFFFFFFFFFFFFFFFFFFFFFFFFFFFFFFFFFFFFFFFF AND SWAP1 POP DUP2 PUSH0 PUSH0 PUSH2 0x100 EXP DUP2 SLOAD DUP2 PUSH20 0xFFFFFFFFFFFFFFFFFFFFFFFFFFFFFFFFFFFFFFFF MUL NOT AND SWAP1 DUP4 PUSH20 0xFFFFFFFFFFFFFFFFFFFFFFFFFFFFFFFFFFFFFFFF AND MUL OR SWAP1 SSTORE POP DUP2 PUSH20 0xFFFFFFFFFFFFFFFFFFFFFFFFFFFFFFFFFFFFFFFF AND DUP2 PUSH20 0xFFFFFFFFFFFFFFFFFFFFFFFFFFFFFFFFFFFFFFFF AND PUSH32 0x8BE0079C531659141344CD1FD0A4F28419497F9722A3DAAFE3B4186F6B6457E0 PUSH1 0x40 MLOAD PUSH1 0x40 MLOAD DUP1 SWAP2 SUB SWAP1 LOG3 POP POP JUMP JUMPDEST PUSH0 PUSH20 0xFFFFFFFFFFFFFFFFFFFFFFFFFFFFFFFFFFFFFFFF DUP3 AND SWAP1 POP SWAP2 SWAP1 POP JUMP JUMPDEST PUSH0 PUSH2 0x1A9 DUP3 PUSH2 0x180 JUMP JUMPDEST SWAP1 POP SWAP2 SWAP1 POP JUMP JUMPDEST PUSH2 0x1B9 DUP2 PUSH2 0x19F JUMP JUMPDEST DUP3 MSTORE POP POP JUMP JUMPDEST PUSH0 PUSH1 0x20 DUP3 ADD SWAP1 POP PUSH2 0x1D2 PUSH0 DUP4 ADD DUP5 PUSH2 0x1B0 JUMP JUMPDEST SWAP3 SWAP2 POP POP JUMP JUMPDEST PUSH32 0x4E487B7100000000000000000000000000000000000000000000000000000000 PUSH0 MSTORE PUSH1 0x21 PUSH1 0x4 MSTORE PUSH1 0x24 PUSH0 REVERT JUMPDEST PUSH2 0x217B DUP1 PUSH2 0x212 PUSH0 CODECOPY PUSH0 RETURN INVALID PUSH1 0x80 PUSH1 0x40 MSTORE CALLVALUE DUP1 ISZERO PUSH2 0xF JUMPI PUSH0 PUSH0 REVERT JUMPDEST POP PUSH1 0x4 CALLDATASIZE LT PUSH2 0xFE JUMPI PUSH0 CALLDATALOAD PUSH1 0xE0 SHR DUP1 PUSH4 0xA3C1885B GT PUSH2 0x95 JUMPI DUP1 PUSH4 0xC9E3FD47 GT PUSH2 0x64 JUMPI DUP1 PUSH4 0xC9E3FD47 EQ PUSH2 0x23E JUMPI DUP1 PUSH4 0xEE74C678 EQ PUSH2 0x25A JUMPI DUP1 PUSH4 0xEF8A9235 EQ PUSH2 0x264 JUMPI DUP1 PUSH4 0xF2FDE38B EQ PUSH2 0x282 JUMPI PUSH2 0xFE JUMP JUMPDEST DUP1 PUSH4 0xA3C1885B EQ PUSH2 0x1DA JUMPI DUP1 PUSH4 0xA3EC138D EQ PUSH2 0x1F8 JUMPI DUP1 PUSH4 0xA7BFAB16 EQ PUSH2 0x22A JUMPI DUP1 PUSH4 0xB2C63487 EQ PUSH2 0x234 JUMPI PUSH2 0xFE JUMP JUMPDEST DUP1 PUSH4 0x55256A0A GT PUSH2 0xD1 JUMPI DUP1 PUSH4 0x55256A0A EQ PUSH2 0x177 JUMPI DUP1 PUSH4 0x5F74BBDE EQ PUSH2 0x196 JUMPI DUP1 PUSH4 0x715018A6 EQ PUSH2 0x1B2 JUMPI DUP1 PUSH4 0x8DA5CB5B EQ PUSH2 0x1BC JUMPI PUSH2 0xFE JUMP JUMPDEST DUP1 PUSH4 0x13CF08B EQ PUSH2 0x102 JUMPI DUP1 PUSH4 0x33321A7C EQ PUSH2 0x133 JUMPI DUP1 PUSH4 0x378A2178 EQ PUSH2 0x13D JUMPI DUP1 PUSH4 0x38DB6DD3 EQ PUSH2 0x15B JUMPI JUMPDEST PUSH0 PUSH0 REVERT JUMPDEST PUSH2 0x11C PUSH1 0x4 DUP1 CALLDATASIZE SUB DUP2 ADD SWAP1 PUSH2 0x117 SWAP2 SWAP1 PUSH2 0x12D2 JUMP JUMPDEST PUSH2 0x29E JUMP JUMPDEST PUSH1 0x40 MLOAD PUSH2 0x12A SWAP3 SWAP2 SWAP1 PUSH2 0x137C JUMP JUMPDEST PUSH1 0x40 MLOAD DUP1 SWAP2 SUB SWAP1 RETURN JUMPDEST PUSH2 0x13B PUSH2 0x353 JUMP JUMPDEST STOP JUMPDEST PUSH2 0x145 PUSH2 0x436 JUMP JUMPDEST PUSH1 0x40 MLOAD PUSH2 0x152 SWAP2 SWAP1 PUSH2 0x143B JUMP JUMPDEST PUSH1 0x40 MLOAD DUP1 SWAP2 SUB SWAP1 RETURN JUMPDEST PUSH2 0x175 PUSH1 0x4 DUP1 CALLDATASIZE SUB DUP2 ADD SWAP1 PUSH2 0x170 SWAP2 SWAP1 PUSH2 0x14B5 JUMP JUMPDEST PUSH2 0x649 JUMP JUMPDEST STOP JUMPDEST PUSH2 0x17F PUSH2 0x7E1 JUMP JUMPDEST PUSH1 0x40 MLOAD PUSH2 0x18D SWAP3 SWAP2 SWAP1 PUSH2 0x137C JUMP JUMPDEST PUSH1 0x40 MLOAD DUP1 SWAP2 SUB SWAP1 RETURN JUMPDEST PUSH2 0x1B0 PUSH1 0x4 DUP1 CALLDATASIZE SUB DUP2 ADD SWAP1 PUSH2 0x1AB SWAP2 SWAP1 PUSH2 0x14E0 JUMP JUMPDEST PUSH2 0x878 JUMP JUMPDEST STOP JUMPDEST PUSH2 0x1BA PUSH2 0xB18 JUMP JUMPDEST STOP JUMPDEST PUSH2 0x1C4 PUSH2 0xB2B JUMP JUMPDEST PUSH1 0x40 MLOAD PUSH2 0x1D1 SWAP2 SWAP1 PUSH2 0x152D JUMP JUMPDEST PUSH1 0x40 MLOAD DUP1 SWAP2 SUB SWAP1 RETURN JUMPDEST PUSH2 0x1E2 PUSH2 0xB52 JUMP JUMPDEST PUSH1 0x40 MLOAD PUSH2 0x1EF SWAP2 SWAP1 PUSH2 0x143B JUMP JUMPDEST PUSH1 0x40 MLOAD DUP1 SWAP2 SUB SWAP1 RETURN JUMPDEST PUSH2 0x212 PUSH1 0x4 DUP1 CALLDATASIZE SUB DUP2 ADD SWAP1 PUSH2 0x20D SWAP2 SWAP1 PUSH2 0x14B5 JUMP JUMPDEST PUSH2 0xC81 JUMP JUMPDEST PUSH1 0x40 MLOAD PUSH2 0x221 SWAP4 SWAP3 SWAP2 SWAP1 PUSH2 0x1560 JUMP JUMPDEST PUSH1 0x40 MLOAD DUP1 SWAP2 SUB SWAP1 RETURN JUMPDEST PUSH2 0x232 PUSH2 0xCBF JUMP JUMPDEST STOP JUMPDEST PUSH2 0x23C PUSH2 0xDA3 JUMP JUMPDEST STOP JUMPDEST PUSH2 0x258 PUSH1 0x4 DUP1 CALLDATASIZE SUB DUP2 ADD SWAP1 PUSH2 0x253 SWAP2 SWAP1 PUSH2 0x16C1 JUMP JUMPDEST PUSH2 0xE85 JUMP JUMPDEST STOP JUMPDEST PUSH2 0x262 PUSH2 0xFAC JUMP JUMPDEST STOP JUMPDEST PUSH2 0x26C PUSH2 0x1090 JUMP JUMPDEST PUSH1 0x40 MLOAD PUSH2 0x279 SWAP2 SWAP1 PUSH2 0x177B JUMP JUMPDEST PUSH1 0x40 MLOAD DUP1 SWAP2 SUB SWAP1 RETURN JUMPDEST PUSH2 0x29C PUSH1 0x4 DUP1 CALLDATASIZE SUB DUP2 ADD SWAP1 PUSH2 0x297 SWAP2 SWAP1 PUSH2 0x14B5 JUMP JUMPDEST PUSH2 0x10A2 JUMP JUMPDEST STOP JUMPDEST PUSH1 0x3 DUP2 DUP2 SLOAD DUP2 LT PUSH2 0x2AD JUMPI PUSH0 DUP1 REVERT JUMPDEST SWAP1 PUSH0 MSTORE PUSH1 0x20 PUSH0 KECCAK256 SWAP1 PUSH1 0x2 MUL ADD PUSH0 SWAP2 POP SWAP1 POP DUP1 PUSH0 ADD DUP1 SLOAD PUSH2 0x2CC SWAP1 PUSH2 0x17C1 JUMP JUMPDEST DUP1 PUSH1 0x1F ADD PUSH1 0x20 DUP1 SWAP2 DIV MUL PUSH1 0x20 ADD PUSH1 0x40 MLOAD SWAP1 DUP2 ADD PUSH1 0x40 MSTORE DUP1 SWAP3 SWAP2 SWAP1 DUP2 DUP2 MSTORE PUSH1 0x20 ADD DUP3 DUP1 SLOAD PUSH2 0x2F8 SWAP1 PUSH2 0x17C1 JUMP JUMPDEST DUP1 ISZERO PUSH2 0x343 JUMPI DUP1 PUSH1 0x1F LT PUSH2 0x31A JUMPI PUSH2 0x100 DUP1 DUP4 SLOAD DIV MUL DUP4 MSTORE SWAP2 PUSH1 0x20 ADD SWAP2 PUSH2 0x343 JUMP JUMPDEST DUP3 ADD SWAP2 SWAP1 PUSH0 MSTORE PUSH1 0x20 PUSH0 KECCAK256 SWAP1 JUMPDEST DUP2 SLOAD DUP2 MSTORE SWAP1 PUSH1 0x1 ADD SWAP1 PUSH1 0x20 ADD DUP1 DUP4 GT PUSH2 0x326 JUMPI DUP3 SWAP1 SUB PUSH1 0x1F AND DUP3 ADD SWAP2 JUMPDEST POP POP POP POP POP SWAP1 DUP1 PUSH1 0x1 ADD SLOAD SWAP1 POP DUP3 JUMP JUMPDEST PUSH2 0x35B PUSH2 0x1126 JUMP JUMPDEST PUSH1 0x1 PUSH1 0x5 DUP2 GT ISZERO PUSH2 0x36F JUMPI PUSH2 0x36E PUSH2 0x1708 JUMP JUMPDEST JUMPDEST PUSH1 0x2 PUSH0 SWAP1 SLOAD SWAP1 PUSH2 0x100 EXP SWAP1 DIV PUSH1 0xFF AND PUSH1 0x5 DUP2 GT ISZERO PUSH2 0x390 JUMPI PUSH2 0x38F PUSH2 0x1708 JUMP JUMPDEST JUMPDEST EQ PUSH2 0x3D0 JUMPI PUSH1 0x40 MLOAD PUSH32 0x8C379A000000000000000000000000000000000000000000000000000000000 DUP2 MSTORE PUSH1 0x4 ADD PUSH2 0x3C7 SWAP1 PUSH2 0x183B JUMP JUMPDEST PUSH1 0x40 MLOAD DUP1 SWAP2 SUB SWAP1 REVERT JUMPDEST PUSH1 0x2 DUP1 PUSH0 PUSH2 0x100 EXP DUP2 SLOAD DUP2 PUSH1 0xFF MUL NOT AND SWAP1 DUP4 PUSH1 0x5 DUP2 GT ISZERO PUSH2 0x3F4 JUMPI PUSH2 0x3F3 PUSH2 0x1708 JUMP JUMPDEST JUMPDEST MUL OR SWAP1 SSTORE POP PUSH32 0xA97A4EE45751E2ABF3E4FC8946939630B11B371EA8AE39CCDC3056E98F5CC3F PUSH1 0x1 PUSH1 0x2 PUSH1 0x40 MLOAD PUSH2 0x42C SWAP3 SWAP2 SWAP1 PUSH2 0x1859 JUMP JUMPDEST PUSH1 0x40 MLOAD DUP1 SWAP2 SUB SWAP1 LOG1 JUMP JUMPDEST PUSH2 0x43E PUSH2 0x1275 JUMP JUMPDEST PUSH2 0x446 PUSH2 0x1126 JUMP JUMPDEST PUSH1 0x4 PUSH1 0x5 DUP2 GT ISZERO PUSH2 0x45A JUMPI PUSH2 0x459 PUSH2 0x1708 JUMP JUMPDEST JUMPDEST PUSH1 0x2 PUSH0 SWAP1 SLOAD SWAP1 PUSH2 0x100 EXP SWAP1 DIV PUSH1 0xFF AND PUSH1 0x5 DUP2 GT ISZERO PUSH2 0x47B JUMPI PUSH2 0x47A PUSH2 0x1708 JUMP JUMPDEST JUMPDEST EQ PUSH2 0x4BB JUMPI PUSH1 0x40 MLOAD PUSH32 0x8C379A000000000000000000000000000000000000000000000000000000000 DUP2 MSTORE PUSH1 0x4 ADD PUSH2 0x4B2 SWAP1 PUSH2 0x18CA JUMP JUMPDEST PUSH1 0x40 MLOAD DUP1 SWAP2 SUB SWAP1 REVERT JUMPDEST PUSH0 PUSH0 SWAP1 POP PUSH0 PUSH0 SWAP1 POP JUMPDEST PUSH1 0x3 DUP1 SLOAD SWAP1 POP DUP2 LT ISZERO PUSH2 0x537 JUMPI PUSH0 PUSH1 0x3 DUP3 DUP2 SLOAD DUP2 LT PUSH2 0x4E6 JUMPI PUSH2 0x4E5 PUSH2 0x18E8 JUMP JUMPDEST JUMPDEST SWAP1 PUSH0 MSTORE PUSH1 0x20 PUSH0 KECCAK256 SWAP1 PUSH1 0x2 MUL ADD SWAP1 POP DUP3 DUP2 PUSH1 0x1 ADD SLOAD GT ISZERO PUSH2 0x52B JUMPI DUP1 PUSH1 0x1 ADD SLOAD SWAP3 POP DUP1 PUSH1 0x4 PUSH0 DUP3 ADD DUP2 PUSH0 ADD SWAP1 DUP2 PUSH2 0x51C SWAP2 SWAP1 PUSH2 0x1ACA JUMP JUMPDEST POP PUSH1 0x1 DUP3 ADD SLOAD DUP2 PUSH1 0x1 ADD SSTORE SWAP1 POP POP JUMPDEST POP DUP1 PUSH1 0x1 ADD SWAP1 POP PUSH2 0x4C4 JUMP JUMPDEST POP PUSH1 0x5 PUSH1 0x2 PUSH0 PUSH2 0x100 EXP DUP2 SLOAD DUP2 PUSH1 0xFF MUL NOT AND SWAP1 DUP4 PUSH1 0x5 DUP2 GT ISZERO PUSH2 0x55D JUMPI PUSH2 0x55C PUSH2 0x1708 JUMP JUMPDEST JUMPDEST MUL OR SWAP1 SSTORE POP PUSH32 0xA97A4EE45751E2ABF3E4FC8946939630B11B371EA8AE39CCDC3056E98F5CC3F PUSH1 0x4 PUSH1 0x5 PUSH1 0x40 MLOAD PUSH2 0x595 SWAP3 SWAP2 SWAP1 PUSH2 0x1859 JUMP JUMPDEST PUSH1 0x40 MLOAD DUP1 SWAP2 SUB SWAP1 LOG1 PUSH1 0x4 PUSH1 0x40 MLOAD DUP1 PUSH1 0x40 ADD PUSH1 0x40 MSTORE SWAP1 DUP2 PUSH0 DUP3 ADD DUP1 SLOAD PUSH2 0x5B9 SWAP1 PUSH2 0x17C1 JUMP JUMPDEST DUP1 PUSH1 0x1F ADD PUSH1 0x20 DUP1 SWAP2 DIV MUL PUSH1 0x20 ADD PUSH1 0x40 MLOAD SWAP1 DUP2 ADD PUSH1 0x40 MSTORE DUP1 SWAP3 SWAP2 SWAP1 DUP2 DUP2 MSTORE PUSH1 0x20 ADD DUP3 DUP1 SLOAD PUSH2 0x5E5 SWAP1 PUSH2 0x17C1 JUMP JUMPDEST DUP1 ISZERO PUSH2 0x630 JUMPI DUP1 PUSH1 0x1F LT PUSH2 0x607 JUMPI PUSH2 0x100 DUP1 DUP4 SLOAD DIV MUL DUP4 MSTORE SWAP2 PUSH1 0x20 ADD SWAP2 PUSH2 0x630 JUMP JUMPDEST DUP3 ADD SWAP2 SWAP1 PUSH0 MSTORE PUSH1 0x20 PUSH0 KECCAK256 SWAP1 JUMPDEST DUP2 SLOAD DUP2 MSTORE SWAP1 PUSH1 0x1 ADD SWAP1 PUSH1 0x20 ADD DUP1 DUP4 GT PUSH2 0x613 JUMPI DUP3 SWAP1 SUB PUSH1 0x1F AND DUP3 ADD SWAP2 JUMPDEST POP POP POP POP POP DUP2 MSTORE PUSH1 0x20 ADD PUSH1 0x1 DUP3 ADD SLOAD DUP2 MSTORE POP POP SWAP2 POP POP SWAP1 JUMP JUMPDEST PUSH2 0x651 PUSH2 0x1126 JUMP JUMPDEST PUSH0 PUSH1 0x5 DUP2 GT ISZERO PUSH2 0x664 JUMPI PUSH2 0x663 PUSH2 0x1708 JUMP JUMPDEST JUMPDEST PUSH1 0x2 PUSH0 SWAP1 SLOAD SWAP1 PUSH2 0x100 EXP SWAP1 DIV PUSH1 0xFF AND PUSH1 0x5 DUP2 GT ISZERO PUSH2 0x685 JUMPI PUSH2 0x684 PUSH2 0x1708 JUMP JUMPDEST JUMPDEST EQ PUSH2 0x6C5 JUMPI PUSH1 0x40 MLOAD PUSH32 0x8C379A000000000000000000000000000000000000000000000000000000000 DUP2 MSTORE PUSH1 0x4 ADD PUSH2 0x6BC SWAP1 PUSH2 0x1BF9 JUMP JUMPDEST PUSH1 0x40 MLOAD DUP1 SWAP2 SUB SWAP1 REVERT JUMPDEST PUSH1 0x1 PUSH0 CALLER PUSH20 0xFFFFFFFFFFFFFFFFFFFFFFFFFFFFFFFFFFFFFFFF AND PUSH20 0xFFFFFFFFFFFFFFFFFFFFFFFFFFFFFFFFFFFFFFFF AND DUP2 MSTORE PUSH1 0x20 ADD SWAP1 DUP2 MSTORE PUSH1 0x20 ADD PUSH0 KECCAK256 PUSH0 ADD PUSH0 SWAP1 SLOAD SWAP1 PUSH2 0x100 EXP SWAP1 DIV PUSH1 0xFF AND ISZERO PUSH2 0x751 JUMPI PUSH1 0x40 MLOAD PUSH32 0x8C379A000000000000000000000000000000000000000000000000000000000 DUP2 MSTORE PUSH1 0x4 ADD PUSH2 0x748 SWAP1 PUSH2 0x1C61 JUMP JUMPDEST PUSH1 0x40 MLOAD DUP1 SWAP2 SUB SWAP1 REVERT JUMPDEST PUSH1 0x1 DUP1 PUSH0 DUP4 PUSH20 0xFFFFFFFFFFFFFFFFFFFFFFFFFFFFFFFFFFFFFFFF AND PUSH20 0xFFFFFFFFFFFFFFFFFFFFFFFFFFFFFFFFFFFFFFFF AND DUP2 MSTORE PUSH1 0x20 ADD SWAP1 DUP2 MSTORE PUSH1 0x20 ADD PUSH0 KECCAK256 PUSH0 ADD PUSH0 PUSH2 0x100 EXP DUP2 SLOAD DUP2 PUSH1 0xFF MUL NOT AND SWAP1 DUP4 ISZERO ISZERO MUL OR SWAP1 SSTORE POP PUSH32 0xB6BE2187D059CC2A55FE29E0E503B566E1E0F8C8780096E185429350ACFFD3DD DUP2 PUSH1 0x40 MLOAD PUSH2 0x7D6 SWAP2 SWAP1 PUSH2 0x152D JUMP JUMPDEST PUSH1 0x40 MLOAD DUP1 SWAP2 SUB SWAP1 LOG1 POP JUMP JUMPDEST PUSH1 0x4 DUP1 PUSH0 ADD DUP1 SLOAD PUSH2 0x7F1 SWAP1 PUSH2 0x17C1 JUMP JUMPDEST DUP1 PUSH1 0x1F ADD PUSH1 0x20 DUP1 SWAP2 DIV MUL PUSH1 0x20 ADD PUSH1 0x40 MLOAD SWAP1 DUP2 ADD PUSH1 0x40 MSTORE DUP1 SWAP3 SWAP2 SWAP1 DUP2 DUP2 MSTORE PUSH1 0x20 ADD DUP3 DUP1 SLOAD PUSH2 0x81D SWAP1 PUSH2 0x17C1 JUMP JUMPDEST DUP1 ISZERO PUSH2 0x868 JUMPI DUP1 PUSH1 0x1F LT PUSH2 0x83F JUMPI PUSH2 0x100 DUP1 DUP4 SLOAD DIV MUL DUP4 MSTORE SWAP2 PUSH1 0x20 ADD SWAP2 PUSH2 0x868 JUMP JUMPDEST DUP3 ADD SWAP2 SWAP1 PUSH0 MSTORE PUSH1 0x20 PUSH0 KECCAK256 SWAP1 JUMPDEST DUP2 SLOAD DUP2 MSTORE SWAP1 PUSH1 0x1 ADD SWAP1 PUSH1 0x20 ADD DUP1 DUP4 GT PUSH2 0x84B JUMPI DUP3 SWAP1 SUB PUSH1 0x1F AND DUP3 ADD SWAP2 JUMPDEST POP POP POP POP POP SWAP1 DUP1 PUSH1 0x1 ADD SLOAD SWAP1 POP DUP3 JUMP JUMPDEST PUSH1 0x3 PUSH1 0x5 DUP2 GT ISZERO PUSH2 0x88C JUMPI PUSH2 0x88B PUSH2 0x1708 JUMP JUMPDEST JUMPDEST PUSH1 0x2 PUSH0 SWAP1 SLOAD SWAP1 PUSH2 0x100 EXP SWAP1 DIV PUSH1 0xFF AND PUSH1 0x5 DUP2 GT ISZERO PUSH2 0x8AD JUMPI PUSH2 0x8AC PUSH2 0x1708 JUMP JUMPDEST JUMPDEST EQ PUSH2 0x8ED JUMPI PUSH1 0x40 MLOAD PUSH32 0x8C379A000000000000000000000000000000000000000000000000000000000 DUP2 MSTORE PUSH1 0x4 ADD PUSH2 0x8E4 SWAP1 PUSH2 0x1CC9 JUMP JUMPDEST PUSH1 0x40 MLOAD DUP1 SWAP2 SUB SWAP1 REVERT JUMPDEST PUSH1 0x1 PUSH0 CALLER PUSH20 0xFFFFFFFFFFFFFFFFFFFFFFFFFFFFFFFFFFFFFFFF AND PUSH20 0xFFFFFFFFFFFFFFFFFFFFFFFFFFFFFFFFFFFFFFFF AND DUP2 MSTORE PUSH1 0x20 ADD SWAP1 DUP2 MSTORE PUSH1 0x20 ADD PUSH0 KECCAK256 PUSH0 ADD PUSH0 SWAP1 SLOAD SWAP1 PUSH2 0x100 EXP SWAP1 DIV PUSH1 0xFF AND PUSH2 0x978 JUMPI PUSH1 0x40 MLOAD PUSH32 0x8C379A000000000000000000000000000000000000000000000000000000000 DUP2 MSTORE PUSH1 0x4 ADD PUSH2 0x96F SWAP1 PUSH2 0x1D31 JUMP JUMPDEST PUSH1 0x40 MLOAD DUP1 SWAP2 SUB SWAP1 REVERT JUMPDEST PUSH1 0x1 PUSH0 CALLER PUSH20 0xFFFFFFFFFFFFFFFFFFFFFFFFFFFFFFFFFFFFFFFF AND PUSH20 0xFFFFFFFFFFFFFFFFFFFFFFFFFFFFFFFFFFFFFFFF AND DUP2 MSTORE PUSH1 0x20 ADD SWAP1 DUP2 MSTORE PUSH1 0x20 ADD PUSH0 KECCAK256 PUSH0 ADD PUSH1 0x1 SWAP1 SLOAD SWAP1 PUSH2 0x100 EXP SWAP1 DIV PUSH1 0xFF AND ISZERO PUSH2 0xA05 JUMPI PUSH1 0x40 MLOAD PUSH32 0x8C379A000000000000000000000000000000000000000000000000000000000 DUP2 MSTORE PUSH1 0x4 ADD PUSH2 0x9FC SWAP1 PUSH2 0x1D99 JUMP JUMPDEST PUSH1 0x40 MLOAD DUP1 SWAP2 SUB SWAP1 REVERT JUMPDEST DUP1 PUSH1 0x1 PUSH0 CALLER PUSH20 0xFFFFFFFFFFFFFFFFFFFFFFFFFFFFFFFFFFFFFFFF AND PUSH20 0xFFFFFFFFFFFFFFFFFFFFFFFFFFFFFFFFFFFFFFFF AND DUP2 MSTORE PUSH1 0x20 ADD SWAP1 DUP2 MSTORE PUSH1 0x20 ADD PUSH0 KECCAK256 PUSH1 0x1 ADD DUP2 SWAP1 SSTORE POP PUSH1 0x1 DUP1 PUSH0 CALLER PUSH20 0xFFFFFFFFFFFFFFFFFFFFFFFFFFFFFFFFFFFFFFFF AND PUSH20 0xFFFFFFFFFFFFFFFFFFFFFFFFFFFFFFFFFFFFFFFF AND DUP2 MSTORE PUSH1 0x20 ADD SWAP1 DUP2 MSTORE PUSH1 0x20 ADD PUSH0 KECCAK256 PUSH0 ADD PUSH1 0x1 PUSH2 0x100 EXP DUP2 SLOAD DUP2 PUSH1 0xFF MUL NOT AND SWAP1 DUP4 ISZERO ISZERO MUL OR SWAP1 SSTORE POP PUSH1 0x1 PUSH1 0x3 DUP3 DUP2 SLOAD DUP2 LT PUSH2 0xAB7 JUMPI PUSH2 0xAB6 PUSH2 0x18E8 JUMP JUMPDEST JUMPDEST SWAP1 PUSH0 MSTORE PUSH1 0x20 PUSH0 KECCAK256 SWAP1 PUSH1 0x2 MUL ADD PUSH1 0x1 ADD PUSH0 DUP3 DUP3 SLOAD PUSH2 0xAD4 SWAP2 SWAP1 PUSH2 0x1DE4 JUMP JUMPDEST SWAP3 POP POP DUP2 SWAP1 SSTORE POP PUSH32 0x4D99B957A2BC29A30EBD96A7BE8E68FE50A3C701DB28A91436490B7D53870CA4 DUP3 DUP3 PUSH1 0x40 MLOAD PUSH2 0xB0C SWAP3 SWAP2 SWAP1 PUSH2 0x1E17 JUMP JUMPDEST PUSH1 0x40 MLOAD DUP1 SWAP2 SUB SWAP1 LOG1 POP POP JUMP JUMPDEST PUSH2 0xB20 PUSH2 0x1126 JUMP JUMPDEST PUSH2 0xB29 PUSH0 PUSH2 0x11AD JUMP JUMPDEST JUMP JUMPDEST PUSH0 PUSH0 PUSH0 SWAP1 SLOAD SWAP1 PUSH2 0x100 EXP SWAP1 DIV PUSH20 0xFFFFFFFFFFFFFFFFFFFFFFFFFFFFFFFFFFFFFFFF AND SWAP1 POP SWAP1 JUMP JUMPDEST PUSH2 0xB5A PUSH2 0x1275 JUMP JUMPDEST PUSH2 0xB62 PUSH2 0x1126 JUMP JUMPDEST PUSH1 0x5 DUP1 DUP2 GT ISZERO PUSH2 0xB75 JUMPI PUSH2 0xB74 PUSH2 0x1708 JUMP JUMPDEST JUMPDEST PUSH1 0x2 PUSH0 SWAP1 SLOAD SWAP1 PUSH2 0x100 EXP SWAP1 DIV PUSH1 0xFF AND PUSH1 0x5 DUP2 GT ISZERO PUSH2 0xB96 JUMPI PUSH2 0xB95 PUSH2 0x1708 JUMP JUMPDEST JUMPDEST EQ PUSH2 0xBD6 JUMPI PUSH1 0x40 MLOAD PUSH32 0x8C379A000000000000000000000000000000000000000000000000000000000 DUP2 MSTORE PUSH1 0x4 ADD PUSH2 0xBCD SWAP1 PUSH2 0x1E88 JUMP JUMPDEST PUSH1 0x40 MLOAD DUP1 SWAP2 SUB SWAP1 REVERT JUMPDEST PUSH1 0x4 PUSH1 0x40 MLOAD DUP1 PUSH1 0x40 ADD PUSH1 0x40 MSTORE SWAP1 DUP2 PUSH0 DUP3 ADD DUP1 SLOAD PUSH2 0xBF2 SWAP1 PUSH2 0x17C1 JUMP JUMPDEST DUP1 PUSH1 0x1F ADD PUSH1 0x20 DUP1 SWAP2 DIV MUL PUSH1 0x20 ADD PUSH1 0x40 MLOAD SWAP1 DUP2 ADD PUSH1 0x40 MSTORE DUP1 SWAP3 SWAP2 SWAP1 DUP2 DUP2 MSTORE PUSH1 0x20 ADD DUP3 DUP1 SLOAD PUSH2 0xC1E SWAP1 PUSH2 0x17C1 JUMP JUMPDEST DUP1 ISZERO PUSH2 0xC69 JUMPI DUP1 PUSH1 0x1F LT PUSH2 0xC40 JUMPI PUSH2 0x100 DUP1 DUP4 SLOAD DIV MUL DUP4 MSTORE SWAP2 PUSH1 0x20 ADD SWAP2 PUSH2 0xC69 JUMP JUMPDEST DUP3 ADD SWAP2 SWAP1 PUSH0 MSTORE PUSH1 0x20 PUSH0 KECCAK256 SWAP1 JUMPDEST DUP2 SLOAD DUP2 MSTORE SWAP1 PUSH1 0x1 ADD SWAP1 PUSH1 0x20 ADD DUP1 DUP4 GT PUSH2 0xC4C JUMPI DUP3 SWAP1 SUB PUSH1 0x1F AND DUP3 ADD SWAP2 JUMPDEST POP POP POP POP POP DUP2 MSTORE PUSH1 0x20 ADD PUSH1 0x1 DUP3 ADD SLOAD DUP2 MSTORE POP POP SWAP1 POP SWAP1 JUMP JUMPDEST PUSH1 0x1 PUSH1 0x20 MSTORE DUP1 PUSH0 MSTORE PUSH1 0x40 PUSH0 KECCAK256 PUSH0 SWAP2 POP SWAP1 POP DUP1 PUSH0 ADD PUSH0 SWAP1 SLOAD SWAP1 PUSH2 0x100 EXP SWAP1 DIV PUSH1 0xFF AND SWAP1 DUP1 PUSH0 ADD PUSH1 0x1 SWAP1 SLOAD SWAP1 PUSH2 0x100 EXP SWAP1 DIV PUSH1 0xFF AND SWAP1 DUP1 PUSH1 0x1 ADD SLOAD SWAP1 POP DUP4 JUMP JUMPDEST PUSH2 0xCC7 PUSH2 0x1126 JUMP JUMPDEST PUSH1 0x3 PUSH1 0x5 DUP2 GT ISZERO PUSH2 0xCDB JUMPI PUSH2 0xCDA PUSH2 0x1708 JUMP JUMPDEST JUMPDEST PUSH1 0x2 PUSH0 SWAP1 SLOAD SWAP1 PUSH2 0x100 EXP SWAP1 DIV PUSH1 0xFF AND PUSH1 0x5 DUP2 GT ISZERO PUSH2 0xCFC JUMPI PUSH2 0xCFB PUSH2 0x1708 JUMP JUMPDEST JUMPDEST EQ PUSH2 0xD3C JUMPI PUSH1 0x40 MLOAD PUSH32 0x8C379A000000000000000000000000000000000000000000000000000000000 DUP2 MSTORE PUSH1 0x4 ADD PUSH2 0xD33 SWAP1 PUSH2 0x1CC9 JUMP JUMPDEST PUSH1 0x40 MLOAD DUP1 SWAP2 SUB SWAP1 REVERT JUMPDEST PUSH1 0x4 PUSH1 0x2 PUSH0 PUSH2 0x100 EXP DUP2 SLOAD DUP2 PUSH1 0xFF MUL NOT AND SWAP1 DUP4 PUSH1 0x5 DUP2 GT ISZERO PUSH2 0xD61 JUMPI PUSH2 0xD60 PUSH2 0x1708 JUMP JUMPDEST JUMPDEST MUL OR SWAP1 SSTORE POP PUSH32 0xA97A4EE45751E2ABF3E4FC8946939630B11B371EA8AE39CCDC3056E98F5CC3F PUSH1 0x3 PUSH1 0x4 PUSH1 0x40 MLOAD PUSH2 0xD99 SWAP3 SWAP2 SWAP1 PUSH2 0x1859 JUMP JUMPDEST PUSH1 0x40 MLOAD DUP1 SWAP2 SUB SWAP1 LOG1 JUMP JUMPDEST PUSH2 0xDAB PUSH2 0x1126 JUMP JUMPDEST PUSH0 PUSH1 0x5 DUP2 GT ISZERO PUSH2 0xDBE JUMPI PUSH2 0xDBD PUSH2 0x1708 JUMP JUMPDEST JUMPDEST PUSH1 0x2 PUSH0 SWAP1 SLOAD SWAP1 PUSH2 0x100 EXP SWAP1 DIV PUSH1 0xFF AND PUSH1 0x5 DUP2 GT ISZERO PUSH2 0xDDF JUMPI PUSH2 0xDDE PUSH2 0x1708 JUMP JUMPDEST JUMPDEST EQ PUSH2 0xE1F JUMPI PUSH1 0x40 MLOAD PUSH32 0x8C379A000000000000000000000000000000000000000000000000000000000 DUP2 MSTORE PUSH1 0x4 ADD PUSH2 0xE16 SWAP1 PUSH2 0x1F16 JUMP JUMPDEST PUSH1 0x40 MLOAD DUP1 SWAP2 SUB SWAP1 REVERT JUMPDEST PUSH1 0x1 PUSH1 0x2 PUSH0 PUSH2 0x100 EXP DUP2 SLOAD DUP2 PUSH1 0xFF MUL NOT AND SWAP1 DUP4 PUSH1 0x5 DUP2 GT ISZERO PUSH2 0xE44 JUMPI PUSH2 0xE43 PUSH2 0x1708 JUMP JUMPDEST JUMPDEST MUL OR SWAP1 SSTORE POP PUSH32 0xA97A4EE45751E2ABF3E4FC8946939630B11B371EA8AE39CCDC3056E98F5CC3F PUSH0 PUSH1 0x1 PUSH1 0x40 MLOAD PUSH2 0xE7B SWAP3 SWAP2 SWAP1 PUSH2 0x1859 JUMP JUMPDEST PUSH1 0x40 MLOAD DUP1 SWAP2 SUB SWAP1 LOG1 JUMP JUMPDEST PUSH2 0xE8D PUSH2 0x1126 JUMP JUMPDEST PUSH1 0x1 PUSH1 0x5 DUP2 GT ISZERO PUSH2 0xEA1 JUMPI PUSH2 0xEA0 PUSH2 0x1708 JUMP JUMPDEST JUMPDEST PUSH1 0x2 PUSH0 SWAP1 SLOAD SWAP1 PUSH2 0x100 EXP SWAP1 DIV PUSH1 0xFF AND PUSH1 0x5 DUP2 GT ISZERO PUSH2 0xEC2 JUMPI PUSH2 0xEC1 PUSH2 0x1708 JUMP JUMPDEST JUMPDEST EQ PUSH2 0xF02 JUMPI PUSH1 0x40 MLOAD PUSH32 0x8C379A000000000000000000000000000000000000000000000000000000000 DUP2 MSTORE PUSH1 0x4 ADD PUSH2 0xEF9 SWAP1 PUSH2 0x1F7E JUMP JUMPDEST PUSH1 0x40 MLOAD DUP1 SWAP2 SUB SWAP1 REVERT JUMPDEST PUSH2 0xF0A PUSH2 0x1275 JUMP JUMPDEST DUP2 DUP2 PUSH0 ADD DUP2 SWAP1 MSTORE POP PUSH1 0x3 DUP2 SWAP1 DUP1 PUSH1 0x1 DUP2 SLOAD ADD DUP1 DUP3 SSTORE DUP1 SWAP2 POP POP PUSH1 0x1 SWAP1 SUB SWAP1 PUSH0 MSTORE PUSH1 0x20 PUSH0 KECCAK256 SWAP1 PUSH1 0x2 MUL ADD PUSH0 SWAP1 SWAP2 SWAP1 SWAP2 SWAP1 SWAP2 POP PUSH0 DUP3 ADD MLOAD DUP2 PUSH0 ADD SWAP1 DUP2 PUSH2 0xF4E SWAP2 SWAP1 PUSH2 0x1F9C JUMP JUMPDEST POP PUSH1 0x20 DUP3 ADD MLOAD DUP2 PUSH1 0x1 ADD SSTORE POP POP PUSH0 PUSH1 0x1 PUSH1 0x3 DUP1 SLOAD SWAP1 POP PUSH2 0xF6E SWAP2 SWAP1 PUSH2 0x206B JUMP JUMPDEST SWAP1 POP PUSH32 0x92E393E9B54E2F801D3EA4BEB0C5E71A21CC34A5D34B77D0FB8A3AA1650DC18F DUP2 PUSH1 0x40 MLOAD PUSH2 0xF9F SWAP2 SWAP1 PUSH2 0x209E JUMP JUMPDEST PUSH1 0x40 MLOAD DUP1 SWAP2 SUB SWAP1 LOG1 POP POP POP JUMP JUMPDEST PUSH2 0xFB4 PUSH2 0x1126 JUMP JUMPDEST PUSH1 0x2 PUSH1 0x5 DUP2 GT ISZERO PUSH2 0xFC8 JUMPI PUSH2 0xFC7 PUSH2 0x1708 JUMP JUMPDEST JUMPDEST PUSH1 0x2 PUSH0 SWAP1 SLOAD SWAP1 PUSH2 0x100 EXP SWAP1 DIV PUSH1 0xFF AND PUSH1 0x5 DUP2 GT ISZERO PUSH2 0xFE9 JUMPI PUSH2 0xFE8 PUSH2 0x1708 JUMP JUMPDEST JUMPDEST EQ PUSH2 0x1029 JUMPI PUSH1 0x40 MLOAD PUSH32 0x8C379A000000000000000000000000000000000000000000000000000000000 DUP2 MSTORE PUSH1 0x4 ADD PUSH2 0x1020 SWAP1 PUSH2 0x2127 JUMP JUMPDEST PUSH1 0x40 MLOAD DUP1 SWAP2 SUB SWAP1 REVERT JUMPDEST PUSH1 0x3 PUSH1 0x2 PUSH0 PUSH2 0x100 EXP DUP2 SLOAD DUP2 PUSH1 0xFF MUL NOT AND SWAP1 DUP4 PUSH1 0x5 DUP2 GT ISZERO PUSH2 0x104E JUMPI PUSH2 0x104D PUSH2 0x1708 JUMP JUMPDEST JUMPDEST MUL OR SWAP1 SSTORE POP PUSH32 0xA97A4EE45751E2ABF3E4FC8946939630B11B371EA8AE39CCDC3056E98F5CC3F PUSH1 0x2 PUSH1 0x3 PUSH1 0x40 MLOAD PUSH2 0x1086 SWAP3 SWAP2 SWAP1 PUSH2 0x1859 JUMP JUMPDEST PUSH1 0x40 MLOAD DUP1 SWAP2 SUB SWAP1 LOG1 JUMP JUMPDEST PUSH1 0x2 PUSH0 SWAP1 SLOAD SWAP1 PUSH2 0x100 EXP SWAP1 DIV PUSH1 0xFF AND DUP2 JUMP JUMPDEST PUSH2 0x10AA PUSH2 0x1126 JUMP JUMPDEST PUSH0 PUSH20 0xFFFFFFFFFFFFFFFFFFFFFFFFFFFFFFFFFFFFFFFF AND DUP2 PUSH20 0xFFFFFFFFFFFFFFFFFFFFFFFFFFFFFFFFFFFFFFFF AND SUB PUSH2 0x111A JUMPI PUSH0 PUSH1 0x40 MLOAD PUSH32 0x1E4FBDF700000000000000000000000000000000000000000000000000000000 DUP2 MSTORE PUSH1 0x4 ADD PUSH2 0x1111 SWAP2 SWAP1 PUSH2 0x152D JUMP JUMPDEST PUSH1 0x40 MLOAD DUP1 SWAP2 SUB SWAP1 REVERT JUMPDEST PUSH2 0x1123 DUP2 PUSH2 0x11AD JUMP JUMPDEST POP JUMP JUMPDEST PUSH2 0x112E PUSH2 0x126E JUMP JUMPDEST PUSH20 0xFFFFFFFFFFFFFFFFFFFFFFFFFFFFFFFFFFFFFFFF AND PUSH2 0x114C PUSH2 0xB2B JUMP JUMPDEST PUSH20 0xFFFFFFFFFFFFFFFFFFFFFFFFFFFFFFFFFFFFFFFF AND EQ PUSH2 0x11AB JUMPI PUSH2 0x116F PUSH2 0x126E JUMP JUMPDEST PUSH1 0x40 MLOAD PUSH32 0x118CDAA700000000000000000000000000000000000000000000000000000000 DUP2 MSTORE PUSH1 0x4 ADD PUSH2 0x11A2 SWAP2 SWAP1 PUSH2 0x152D JUMP JUMPDEST PUSH1 0x40 MLOAD DUP1 SWAP2 SUB SWAP1 REVERT JUMPDEST JUMP JUMPDEST PUSH0 PUSH0 PUSH0 SWAP1 SLOAD SWAP1 PUSH2 0x100 EXP SWAP1 DIV PUSH20 0xFFFFFFFFFFFFFFFFFFFFFFFFFFFFFFFFFFFFFFFF AND SWAP1 POP DUP2 PUSH0 PUSH0 PUSH2 0x100 EXP DUP2 SLOAD DUP2 PUSH20 0xFFFFFFFFFFFFFFFFFFFFFFFFFFFFFFFFFFFFFFFF MUL NOT AND SWAP1 DUP4 PUSH20 0xFFFFFFFFFFFFFFFFFFFFFFFFFFFFFFFFFFFFFFFF AND MUL OR SWAP1 SSTORE POP DUP2 PUSH20 0xFFFFFFFFFFFFFFFFFFFFFFFFFFFFFFFFFFFFFFFF AND DUP2 PUSH20 0xFFFFFFFFFFFFFFFFFFFFFFFFFFFFFFFFFFFFFFFF AND PUSH32 0x8BE0079C531659141344CD1FD0A4F28419497F9722A3DAAFE3B4186F6B6457E0 PUSH1 0x40 MLOAD PUSH1 0x40 MLOAD DUP1 SWAP2 SUB SWAP1 LOG3 POP POP JUMP JUMPDEST PUSH0 CALLER SWAP1 POP SWAP1 JUMP JUMPDEST PUSH1 0x40 MLOAD DUP1 PUSH1 0x40 ADD PUSH1 0x40 MSTORE DUP1 PUSH1 0x60 DUP2 MSTORE PUSH1 0x20 ADD PUSH0 DUP2 MSTORE POP SWAP1 JUMP JUMPDEST PUSH0 PUSH1 0x40 MLOAD SWAP1 POP SWAP1 JUMP JUMPDEST PUSH0 PUSH0 REVERT JUMPDEST PUSH0 PUSH0 REVERT JUMPDEST PUSH0 DUP2 SWAP1 POP SWAP2 SWAP1 POP JUMP JUMPDEST PUSH2 0x12B1 DUP2 PUSH2 0x129F JUMP JUMPDEST DUP2 EQ PUSH2 0x12BB JUMPI PUSH0 PUSH0 REVERT JUMPDEST POP JUMP JUMPDEST PUSH0 DUP2 CALLDATALOAD SWAP1 POP PUSH2 0x12CC DUP2 PUSH2 0x12A8 JUMP JUMPDEST SWAP3 SWAP2 POP POP JUMP JUMPDEST PUSH0 PUSH1 0x20 DUP3 DUP5 SUB SLT ISZERO PUSH2 0x12E7 JUMPI PUSH2 0x12E6 PUSH2 0x1297 JUMP JUMPDEST JUMPDEST PUSH0 PUSH2 0x12F4 DUP5 DUP3 DUP6 ADD PUSH2 0x12BE JUMP JUMPDEST SWAP2 POP POP SWAP3 SWAP2 POP POP JUMP JUMPDEST PUSH0 DUP2 MLOAD SWAP1 POP SWAP2 SWAP1 POP JUMP JUMPDEST PUSH0 DUP3 DUP3 MSTORE PUSH1 0x20 DUP3 ADD SWAP1 POP SWAP3 SWAP2 POP POP JUMP JUMPDEST DUP3 DUP2 DUP4 MCOPY PUSH0 DUP4 DUP4 ADD MSTORE POP POP POP JUMP JUMPDEST PUSH0 PUSH1 0x1F NOT PUSH1 0x1F DUP4 ADD AND SWAP1 POP SWAP2 SWAP1 POP JUMP JUMPDEST PUSH0 PUSH2 0x133F DUP3 PUSH2 0x12FD JUMP JUMPDEST PUSH2 0x1349 DUP2 DUP6 PUSH2 0x1307 JUMP JUMPDEST SWAP4 POP PUSH2 0x1359 DUP2 DUP6 PUSH1 0x20 DUP7 ADD PUSH2 0x1317 JUMP JUMPDEST PUSH2 0x1362 DUP2 PUSH2 0x1325 JUMP JUMPDEST DUP5 ADD SWAP2 POP POP SWAP3 SWAP2 POP POP JUMP JUMPDEST PUSH2 0x1376 DUP2 PUSH2 0x129F JUMP JUMPDEST DUP3 MSTORE POP POP JUMP JUMPDEST PUSH0 PUSH1 0x40 DUP3 ADD SWAP1 POP DUP2 DUP2 SUB PUSH0 DUP4 ADD MSTORE PUSH2 0x1394 DUP2 DUP6 PUSH2 0x1335 JUMP JUMPDEST SWAP1 POP PUSH2 0x13A3 PUSH1 0x20 DUP4 ADD DUP5 PUSH2 0x136D JUMP JUMPDEST SWAP4 SWAP3 POP POP POP JUMP JUMPDEST PUSH0 DUP3 DUP3 MSTORE PUSH1 0x20 DUP3 ADD SWAP1 POP SWAP3 SWAP2 POP POP JUMP JUMPDEST PUSH0 PUSH2 0x13C4 DUP3 PUSH2 0x12FD JUMP JUMPDEST PUSH2 0x13CE DUP2 DUP6 PUSH2 0x13AA JUMP JUMPDEST SWAP4 POP PUSH2 0x13DE DUP2 DUP6 PUSH1 0x20 DUP7 ADD PUSH2 0x1317 JUMP JUMPDEST PUSH2 0x13E7 DUP2 PUSH2 0x1325 JUMP JUMPDEST DUP5 ADD SWAP2 POP POP SWAP3 SWAP2 POP POP JUMP JUMPDEST PUSH2 0x13FB DUP2 PUSH2 0x129F JUMP JUMPDEST DUP3 MSTORE POP POP JUMP JUMPDEST PUSH0 PUSH1 0x40 DUP4 ADD PUSH0 DUP4 ADD MLOAD DUP5 DUP3 SUB PUSH0 DUP7 ADD MSTORE PUSH2 0x141B DUP3 DUP3 PUSH2 0x13BA JUMP JUMPDEST SWAP2 POP POP PUSH1 0x20 DUP4 ADD MLOAD PUSH2 0x1430 PUSH1 0x20 DUP7 ADD DUP3 PUSH2 0x13F2 JUMP JUMPDEST POP DUP1 SWAP2 POP POP SWAP3 SWAP2 POP POP JUMP JUMPDEST PUSH0 PUSH1 0x20 DUP3 ADD SWAP1 POP DUP2 DUP2 SUB PUSH0 DUP4 ADD MSTORE PUSH2 0x1453 DUP2 DUP5 PUSH2 0x1401 JUMP JUMPDEST SWAP1 POP SWAP3 SWAP2 POP POP JUMP JUMPDEST PUSH0 PUSH20 0xFFFFFFFFFFFFFFFFFFFFFFFFFFFFFFFFFFFFFFFF DUP3 AND SWAP1 POP SWAP2 SWAP1 POP JUMP JUMPDEST PUSH0 PUSH2 0x1484 DUP3 PUSH2 0x145B JUMP JUMPDEST SWAP1 POP SWAP2 SWAP1 POP JUMP JUMPDEST PUSH2 0x1494 DUP2 PUSH2 0x147A JUMP JUMPDEST DUP2 EQ PUSH2 0x149E JUMPI PUSH0 PUSH0 REVERT JUMPDEST POP JUMP JUMPDEST PUSH0 DUP2 CALLDATALOAD SWAP1 POP PUSH2 0x14AF DUP2 PUSH2 0x148B JUMP JUMPDEST SWAP3 SWAP2 POP POP JUMP JUMPDEST PUSH0 PUSH1 0x20 DUP3 DUP5 SUB SLT ISZERO PUSH2 0x14CA JUMPI PUSH2 0x14C9 PUSH2 0x1297 JUMP JUMPDEST JUMPDEST PUSH0 PUSH2 0x14D7 DUP5 DUP3 DUP6 ADD PUSH2 0x14A1 JUMP JUMPDEST SWAP2 POP POP SWAP3 SWAP2 POP POP JUMP JUMPDEST PUSH0 PUSH0 PUSH1 0x40 DUP4 DUP6 SUB SLT ISZERO PUSH2 0x14F6 JUMPI PUSH2 0x14F5 PUSH2 0x1297 JUMP JUMPDEST JUMPDEST PUSH0 PUSH2 0x1503 DUP6 DUP3 DUP7 ADD PUSH2 0x14A1 JUMP JUMPDEST SWAP3 POP POP PUSH1 0x20 PUSH2 0x1514 DUP6 DUP3 DUP7 ADD PUSH2 0x12BE JUMP JUMPDEST SWAP2 POP POP SWAP3 POP SWAP3 SWAP1 POP JUMP JUMPDEST PUSH2 0x1527 DUP2 PUSH2 0x147A JUMP JUMPDEST DUP3 MSTORE POP POP JUMP JUMPDEST PUSH0 PUSH1 0x20 DUP3 ADD SWAP1 POP PUSH2 0x1540 PUSH0 DUP4 ADD DUP5 PUSH2 0x151E JUMP JUMPDEST SWAP3 SWAP2 POP POP JUMP JUMPDEST PUSH0 DUP2 ISZERO ISZERO SWAP1 POP SWAP2 SWAP1 POP JUMP JUMPDEST PUSH2 0x155A DUP2 PUSH2 0x1546 JUMP JUMPDEST DUP3 MSTORE POP POP JUMP JUMPDEST PUSH0 PUSH1 0x60 DUP3 ADD SWAP1 POP PUSH2 0x1573 PUSH0 DUP4 ADD DUP7 PUSH2 0x1551 JUMP JUMPDEST PUSH2 0x1580 PUSH1 0x20 DUP4 ADD DUP6 PUSH2 0x1551 JUMP JUMPDEST PUSH2 0x158D PUSH1 0x40 DUP4 ADD DUP5 PUSH2 0x136D JUMP JUMPDEST SWAP5 SWAP4 POP POP POP POP JUMP JUMPDEST PUSH0 PUSH0 REVERT JUMPDEST PUSH0 PUSH0 REVERT JUMPDEST PUSH32 0x4E487B7100000000000000000000000000000000000000000000000000000000 PUSH0 MSTORE PUSH1 0x41 PUSH1 0x4 MSTORE PUSH1 0x24 PUSH0 REVERT JUMPDEST PUSH2 0x15D3 DUP3 PUSH2 0x1325 JUMP JUMPDEST DUP2 ADD DUP2 DUP2 LT PUSH8 0xFFFFFFFFFFFFFFFF DUP3 GT OR ISZERO PUSH2 0x15F2 JUMPI PUSH2 0x15F1 PUSH2 0x159D JUMP JUMPDEST JUMPDEST DUP1 PUSH1 0x40 MSTORE POP POP POP JUMP JUMPDEST PUSH0 PUSH2 0x1604 PUSH2 0x128E JUMP JUMPDEST SWAP1 POP PUSH2 0x1610 DUP3 DUP3 PUSH2 0x15CA JUMP JUMPDEST SWAP2 SWAP1 POP JUMP JUMPDEST PUSH0 PUSH8 0xFFFFFFFFFFFFFFFF DUP3 GT ISZERO PUSH2 0x162F JUMPI PUSH2 0x162E PUSH2 0x159D JUMP JUMPDEST JUMPDEST PUSH2 0x1638 DUP3 PUSH2 0x1325 JUMP JUMPDEST SWAP1 POP PUSH1 0x20 DUP2 ADD SWAP1 POP SWAP2 SWAP1 POP JUMP JUMPDEST DUP3 DUP2 DUP4 CALLDATACOPY PUSH0 DUP4 DUP4 ADD MSTORE POP POP POP JUMP JUMPDEST PUSH0 PUSH2 0x1665 PUSH2 0x1660 DUP5 PUSH2 0x1615 JUMP JUMPDEST PUSH2 0x15FB JUMP JUMPDEST SWAP1 POP DUP3 DUP2 MSTORE PUSH1 0x20 DUP2 ADD DUP5 DUP5 DUP5 ADD GT ISZERO PUSH2 0x1681 JUMPI PUSH2 0x1680 PUSH2 0x1599 JUMP JUMPDEST JUMPDEST PUSH2 0x168C DUP5 DUP3 DUP6 PUSH2 0x1645 JUMP JUMPDEST POP SWAP4 SWAP3 POP POP POP JUMP JUMPDEST PUSH0 DUP3 PUSH1 0x1F DUP4 ADD SLT PUSH2 0x16A8 JUMPI PUSH2 0x16A7 PUSH2 0x1595 JUMP JUMPDEST JUMPDEST DUP2 CALLDATALOAD PUSH2 0x16B8 DUP5 DUP3 PUSH1 0x20 DUP7 ADD PUSH2 0x1653 JUMP JUMPDEST SWAP2 POP POP SWAP3 SWAP2 POP POP JUMP JUMPDEST PUSH0 PUSH1 0x20 DUP3 DUP5 SUB SLT ISZERO PUSH2 0x16D6 JUMPI PUSH2 0x16D5 PUSH2 0x1297 JUMP JUMPDEST JUMPDEST PUSH0 DUP3 ADD CALLDATALOAD PUSH8 0xFFFFFFFFFFFFFFFF DUP2 GT ISZERO PUSH2 0x16F3 JUMPI PUSH2 0x16F2 PUSH2 0x129B JUMP JUMPDEST JUMPDEST PUSH2 0x16FF DUP5 DUP3 DUP6 ADD PUSH2 0x1694 JUMP JUMPDEST SWAP2 POP POP SWAP3 SWAP2 POP POP JUMP JUMPDEST PUSH32 0x4E487B7100000000000000000000000000000000000000000000000000000000 PUSH0 MSTORE PUSH1 0x21 PUSH1 0x4 MSTORE PUSH1 0x24 PUSH0 REVERT JUMPDEST PUSH1 0x6 DUP2 LT PUSH2 0x1746 JUMPI PUSH2 0x1745 PUSH2 0x1708 JUMP JUMPDEST JUMPDEST POP JUMP JUMPDEST PUSH0 DUP2 SWAP1 POP PUSH2 0x1756 DUP3 PUSH2 0x1735 JUMP JUMPDEST SWAP2 SWAP1 POP JUMP JUMPDEST PUSH0 PUSH2 0x1765 DUP3 PUSH2 0x1749 JUMP JUMPDEST SWAP1 POP SWAP2 SWAP1 POP JUMP JUMPDEST PUSH2 0x1775 DUP2 PUSH2 0x175B JUMP JUMPDEST DUP3 MSTORE POP POP JUMP JUMPDEST PUSH0 PUSH1 0x20 DUP3 ADD SWAP1 POP PUSH2 0x178E PUSH0 DUP4 ADD DUP5 PUSH2 0x176C JUMP JUMPDEST SWAP3 SWAP2 POP POP JUMP JUMPDEST PUSH32 0x4E487B7100000000000000000000000000000000000000000000000000000000 PUSH0 MSTORE PUSH1 0x22 PUSH1 0x4 MSTORE PUSH1 0x24 PUSH0 REVERT JUMPDEST PUSH0 PUSH1 0x2 DUP3 DIV SWAP1 POP PUSH1 0x1 DUP3 AND DUP1 PUSH2 0x17D8 JUMPI PUSH1 0x7F DUP3 AND SWAP2 POP JUMPDEST PUSH1 0x20 DUP3 LT DUP2 SUB PUSH2 0x17EB JUMPI PUSH2 0x17EA PUSH2 0x1794 JUMP JUMPDEST JUMPDEST POP SWAP2 SWAP1 POP JUMP JUMPDEST PUSH32 0x526567697374726174696F6E2073657373696F6E206973206E6F74206F70656E PUSH0 DUP3 ADD MSTORE POP JUMP JUMPDEST PUSH0 PUSH2 0x1825 PUSH1 0x20 DUP4 PUSH2 0x1307 JUMP JUMPDEST SWAP2 POP PUSH2 0x1830 DUP3 PUSH2 0x17F1 JUMP JUMPDEST PUSH1 0x20 DUP3 ADD SWAP1 POP SWAP2 SWAP1 POP JUMP JUMPDEST PUSH0 PUSH1 0x20 DUP3 ADD SWAP1 POP DUP2 DUP2 SUB PUSH0 DUP4 ADD MSTORE PUSH2 0x1852 DUP2 PUSH2 0x1819 JUMP JUMPDEST SWAP1 POP SWAP2 SWAP1 POP JUMP JUMPDEST PUSH0 PUSH1 0x40 DUP3 ADD SWAP1 POP PUSH2 0x186C PUSH0 DUP4 ADD DUP6 PUSH2 0x176C JUMP JUMPDEST PUSH2 0x1879 PUSH1 0x20 DUP4 ADD DUP5 PUSH2 0x176C JUMP JUMPDEST SWAP4 SWAP3 POP POP POP JUMP JUMPDEST PUSH32 0x566F74696E672073657373696F6E206973206E6F7420636C6F73656400000000 PUSH0 DUP3 ADD MSTORE POP JUMP JUMPDEST PUSH0 PUSH2 0x18B4 PUSH1 0x1C DUP4 PUSH2 0x1307 JUMP JUMPDEST SWAP2 POP PUSH2 0x18BF DUP3 PUSH2 0x1880 JUMP JUMPDEST PUSH1 0x20 DUP3 ADD SWAP1 POP SWAP2 SWAP1 POP JUMP JUMPDEST PUSH0 PUSH1 0x20 DUP3 ADD SWAP1 POP DUP2 DUP2 SUB PUSH0 DUP4 ADD MSTORE PUSH2 0x18E1 DUP2 PUSH2 0x18A8 JUMP JUMPDEST SWAP1 POP SWAP2 SWAP1 POP JUMP JUMPDEST PUSH32 0x4E487B7100000000000000000000000000000000000000000000000000000000 PUSH0 MSTORE PUSH1 0x32 PUSH1 0x4 MSTORE PUSH1 0x24 PUSH0 REVERT JUMPDEST PUSH0 DUP2 SLOAD SWAP1 POP PUSH2 0x1923 DUP2 PUSH2 0x17C1 JUMP JUMPDEST SWAP1 POP SWAP2 SWAP1 POP JUMP JUMPDEST PUSH0 DUP2 SWAP1 POP DUP2 PUSH0 MSTORE PUSH1 0x20 PUSH0 KECCAK256 SWAP1 POP SWAP2 SWAP1 POP JUMP JUMPDEST PUSH0 PUSH1 0x20 PUSH1 0x1F DUP4 ADD DIV SWAP1 POP SWAP2 SWAP1 POP JUMP JUMPDEST PUSH0 DUP3 DUP3 SHL SWAP1 POP SWAP3 SWAP2 POP POP JUMP JUMPDEST PUSH0 PUSH1 0x8 DUP4 MUL PUSH2 0x1986 PUSH32 0xFFFFFFFFFFFFFFFFFFFFFFFFFFFFFFFFFFFFFFFFFFFFFFFFFFFFFFFFFFFFFFFF DUP3 PUSH2 0x194B JUMP JUMPDEST PUSH2 0x1990 DUP7 DUP4 PUSH2 0x194B JUMP JUMPDEST SWAP6 POP DUP1 NOT DUP5 AND SWAP4 POP DUP1 DUP7 AND DUP5 OR SWAP3 POP POP POP SWAP4 SWAP3 POP POP POP JUMP JUMPDEST PUSH0 DUP2 SWAP1 POP SWAP2 SWAP1 POP JUMP JUMPDEST PUSH0 PUSH2 0x19CB PUSH2 0x19C6 PUSH2 0x19C1 DUP5 PUSH2 0x129F JUMP JUMPDEST PUSH2 0x19A8 JUMP JUMPDEST PUSH2 0x129F JUMP JUMPDEST SWAP1 POP SWAP2 SWAP1 POP JUMP JUMPDEST PUSH0 DUP2 SWAP1 POP SWAP2 SWAP1 POP JUMP JUMPDEST PUSH2 0x19E4 DUP4 PUSH2 0x19B1 JUMP JUMPDEST PUSH2 0x19F8 PUSH2 0x19F0 DUP3 PUSH2 0x19D2 JUMP JUMPDEST DUP5 DUP5 SLOAD PUSH2 0x1957 JUMP JUMPDEST DUP3 SSTORE POP POP POP POP JUMP JUMPDEST PUSH0 PUSH0 SWAP1 POP SWAP1 JUMP JUMPDEST PUSH2 0x1A0F PUSH2 0x1A00 JUMP JUMPDEST PUSH2 0x1A1A DUP2 DUP5 DUP5 PUSH2 0x19DB JUMP JUMPDEST POP POP POP JUMP JUMPDEST JUMPDEST DUP2 DUP2 LT ISZERO PUSH2 0x1A3D JUMPI PUSH2 0x1A32 PUSH0 DUP3 PUSH2 0x1A07 JUMP JUMPDEST PUSH1 0x1 DUP2 ADD SWAP1 POP PUSH2 0x1A20 JUMP JUMPDEST POP POP JUMP JUMPDEST PUSH1 0x1F DUP3 GT ISZERO PUSH2 0x1A82 JUMPI PUSH2 0x1A53 DUP2 PUSH2 0x192A JUMP JUMPDEST PUSH2 0x1A5C DUP5 PUSH2 0x193C JUMP JUMPDEST DUP2 ADD PUSH1 0x20 DUP6 LT ISZERO PUSH2 0x1A6B JUMPI DUP2 SWAP1 POP JUMPDEST PUSH2 0x1A7F PUSH2 0x1A77 DUP6 PUSH2 0x193C JUMP JUMPDEST DUP4 ADD DUP3 PUSH2 0x1A1F JUMP JUMPDEST POP POP JUMPDEST POP POP POP JUMP JUMPDEST PUSH0 DUP3 DUP3 SHR SWAP1 POP SWAP3 SWAP2 POP POP JUMP JUMPDEST PUSH0 PUSH2 0x1AA2 PUSH0 NOT DUP5 PUSH1 0x8 MUL PUSH2 0x1A87 JUMP JUMPDEST NOT DUP1 DUP4 AND SWAP2 POP POP SWAP3 SWAP2 POP POP JUMP JUMPDEST PUSH0 PUSH2 0x1ABA DUP4 DUP4 PUSH2 0x1A93 JUMP JUMPDEST SWAP2 POP DUP3 PUSH1 0x2 MUL DUP3 OR SWAP1 POP SWAP3 SWAP2 POP POP JUMP JUMPDEST DUP2 DUP2 SUB PUSH2 0x1AD8 JUMPI POP POP PUSH2 0x1BAD JUMP JUMPDEST PUSH2 0x1AE1 DUP3 PUSH2 0x1915 JUMP JUMPDEST PUSH8 0xFFFFFFFFFFFFFFFF DUP2 GT ISZERO PUSH2 0x1AFA JUMPI PUSH2 0x1AF9 PUSH2 0x159D JUMP JUMPDEST JUMPDEST PUSH2 0x1B04 DUP3 SLOAD PUSH2 0x17C1 JUMP JUMPDEST PUSH2 0x1B0F DUP3 DUP3 DUP6 PUSH2 0x1A41 JUMP JUMPDEST PUSH0 PUSH1 0x1F DUP4 GT PUSH1 0x1 DUP2 EQ PUSH2 0x1B3C JUMPI PUSH0 DUP5 ISZERO PUSH2 0x1B2A JUMPI DUP3 DUP8 ADD SLOAD SWAP1 POP JUMPDEST PUSH2 0x1B34 DUP6 DUP3 PUSH2 0x1AAF JUMP JUMPDEST DUP7 SSTORE POP PUSH2 0x1BA6 JUMP JUMPDEST PUSH1 0x1F NOT DUP5 AND PUSH2 0x1B4A DUP8 PUSH2 0x192A JUMP JUMPDEST SWAP7 POP PUSH2 0x1B55 DUP7 PUSH2 0x192A JUMP JUMPDEST PUSH0 JUMPDEST DUP3 DUP2 LT ISZERO PUSH2 0x1B7C JUMPI DUP5 DUP10 ADD SLOAD DUP3 SSTORE PUSH1 0x1 DUP3 ADD SWAP2 POP PUSH1 0x1 DUP6 ADD SWAP5 POP PUSH1 0x20 DUP2 ADD SWAP1 POP PUSH2 0x1B57 JUMP JUMPDEST DUP7 DUP4 LT ISZERO PUSH2 0x1B99 JUMPI DUP5 DUP10 ADD SLOAD PUSH2 0x1B95 PUSH1 0x1F DUP10 AND DUP3 PUSH2 0x1A93 JUMP JUMPDEST DUP4 SSTORE POP JUMPDEST PUSH1 0x1 PUSH1 0x2 DUP9 MUL ADD DUP9 SSTORE POP POP POP JUMPDEST POP POP POP POP POP POP JUMPDEST JUMP JUMPDEST PUSH32 0x5265676973746572696E672073657373696F6E206973206E6F74206F70656E00 PUSH0 DUP3 ADD MSTORE POP JUMP JUMPDEST PUSH0 PUSH2 0x1BE3 PUSH1 0x1F DUP4 PUSH2 0x1307 JUMP JUMPDEST SWAP2 POP PUSH2 0x1BEE DUP3 PUSH2 0x1BAF JUMP JUMPDEST PUSH1 0x20 DUP3 ADD SWAP1 POP SWAP2 SWAP1 POP JUMP JUMPDEST PUSH0 PUSH1 0x20 DUP3 ADD SWAP1 POP DUP2 DUP2 SUB PUSH0 DUP4 ADD MSTORE PUSH2 0x1C10 DUP2 PUSH2 0x1BD7 JUMP JUMPDEST SWAP1 POP SWAP2 SWAP1 POP JUMP JUMPDEST PUSH32 0x416C726561647920726567697374657265642E00000000000000000000000000 PUSH0 DUP3 ADD MSTORE POP JUMP JUMPDEST PUSH0 PUSH2 0x1C4B PUSH1 0x13 DUP4 PUSH2 0x1307 JUMP JUMPDEST SWAP2 POP PUSH2 0x1C56 DUP3 PUSH2 0x1C17 JUMP JUMPDEST PUSH1 0x20 DUP3 ADD SWAP1 POP SWAP2 SWAP1 POP JUMP JUMPDEST PUSH0 PUSH1 0x20 DUP3 ADD SWAP1 POP DUP2 DUP2 SUB PUSH0 DUP4 ADD MSTORE PUSH2 0x1C78 DUP2 PUSH2 0x1C3F JUMP JUMPDEST SWAP1 POP SWAP2 SWAP1 POP JUMP JUMPDEST PUSH32 0x566F74696E672073657373696F6E206973206E6F74206F70656E000000000000 PUSH0 DUP3 ADD MSTORE POP JUMP JUMPDEST PUSH0 PUSH2 0x1CB3 PUSH1 0x1A DUP4 PUSH2 0x1307 JUMP JUMPDEST SWAP2 POP PUSH2 0x1CBE DUP3 PUSH2 0x1C7F JUMP JUMPDEST PUSH1 0x20 DUP3 ADD SWAP1 POP SWAP2 SWAP1 POP JUMP JUMPDEST PUSH0 PUSH1 0x20 DUP3 ADD SWAP1 POP DUP2 DUP2 SUB PUSH0 DUP4 ADD MSTORE PUSH2 0x1CE0 DUP2 PUSH2 0x1CA7 JUMP JUMPDEST SWAP1 POP SWAP2 SWAP1 POP JUMP JUMPDEST PUSH32 0x796F7520617265206E6F7420617574686F72697A656420746F20766F74650000 PUSH0 DUP3 ADD MSTORE POP JUMP JUMPDEST PUSH0 PUSH2 0x1D1B PUSH1 0x1E DUP4 PUSH2 0x1307 JUMP JUMPDEST SWAP2 POP PUSH2 0x1D26 DUP3 PUSH2 0x1CE7 JUMP JUMPDEST PUSH1 0x20 DUP3 ADD SWAP1 POP SWAP2 SWAP1 POP JUMP JUMPDEST PUSH0 PUSH1 0x20 DUP3 ADD SWAP1 POP DUP2 DUP2 SUB PUSH0 DUP4 ADD MSTORE PUSH2 0x1D48 DUP2 PUSH2 0x1D0F JUMP JUMPDEST SWAP1 POP SWAP2 SWAP1 POP JUMP JUMPDEST PUSH32 0x796F7520616C726561647920766F746564000000000000000000000000000000 PUSH0 DUP3 ADD MSTORE POP JUMP JUMPDEST PUSH0 PUSH2 0x1D83 PUSH1 0x11 DUP4 PUSH2 0x1307 JUMP JUMPDEST SWAP2 POP PUSH2 0x1D8E DUP3 PUSH2 0x1D4F JUMP JUMPDEST PUSH1 0x20 DUP3 ADD SWAP1 POP SWAP2 SWAP1 POP JUMP JUMPDEST PUSH0 PUSH1 0x20 DUP3 ADD SWAP1 POP DUP2 DUP2 SUB PUSH0 DUP4 ADD MSTORE PUSH2 0x1DB0 DUP2 PUSH2 0x1D77 JUMP JUMPDEST SWAP1 POP SWAP2 SWAP1 POP JUMP JUMPDEST PUSH32 0x4E487B7100000000000000000000000000000000000000000000000000000000 PUSH0 MSTORE PUSH1 0x11 PUSH1 0x4 MSTORE PUSH1 0x24 PUSH0 REVERT JUMPDEST PUSH0 PUSH2 0x1DEE DUP3 PUSH2 0x129F JUMP JUMPDEST SWAP2 POP PUSH2 0x1DF9 DUP4 PUSH2 0x129F JUMP JUMPDEST SWAP3 POP DUP3 DUP3 ADD SWAP1 POP DUP1 DUP3 GT ISZERO PUSH2 0x1E11 JUMPI PUSH2 0x1E10 PUSH2 0x1DB7 JUMP JUMPDEST JUMPDEST SWAP3 SWAP2 POP POP JUMP JUMPDEST PUSH0 PUSH1 0x40 DUP3 ADD SWAP1 POP PUSH2 0x1E2A PUSH0 DUP4 ADD DUP6 PUSH2 0x151E JUMP JUMPDEST PUSH2 0x1E37 PUSH1 0x20 DUP4 ADD DUP5 PUSH2 0x136D JUMP JUMPDEST SWAP4 SWAP3 POP POP POP JUMP JUMPDEST PUSH32 0x566F74657320617265206E6F7420616C6C696564000000000000000000000000 PUSH0 DUP3 ADD MSTORE POP JUMP JUMPDEST PUSH0 PUSH2 0x1E72 PUSH1 0x14 DUP4 PUSH2 0x1307 JUMP JUMPDEST SWAP2 POP PUSH2 0x1E7D DUP3 PUSH2 0x1E3E JUMP JUMPDEST PUSH1 0x20 DUP3 ADD SWAP1 POP SWAP2 SWAP1 POP JUMP JUMPDEST PUSH0 PUSH1 0x20 DUP3 ADD SWAP1 POP DUP2 DUP2 SUB PUSH0 DUP4 ADD MSTORE PUSH2 0x1E9F DUP2 PUSH2 0x1E66 JUMP JUMPDEST SWAP1 POP SWAP2 SWAP1 POP JUMP JUMPDEST PUSH32 0x5265676973746572696E672073657373696F6E206973206E6F7420636C6F7365 PUSH0 DUP3 ADD MSTORE PUSH32 0x6400000000000000000000000000000000000000000000000000000000000000 PUSH1 0x20 DUP3 ADD MSTORE POP JUMP JUMPDEST PUSH0 PUSH2 0x1F00 PUSH1 0x21 DUP4 PUSH2 0x1307 JUMP JUMPDEST SWAP2 POP PUSH2 0x1F0B DUP3 PUSH2 0x1EA6 JUMP JUMPDEST PUSH1 0x40 DUP3 ADD SWAP1 POP SWAP2 SWAP1 POP JUMP JUMPDEST PUSH0 PUSH1 0x20 DUP3 ADD SWAP1 POP DUP2 DUP2 SUB PUSH0 DUP4 ADD MSTORE PUSH2 0x1F2D DUP2 PUSH2 0x1EF4 JUMP JUMPDEST SWAP1 POP SWAP2 SWAP1 POP JUMP JUMPDEST PUSH32 0x50726F706F73696E672073657373696F6E206973206E6F74206F70656E000000 PUSH0 DUP3 ADD MSTORE POP JUMP JUMPDEST PUSH0 PUSH2 0x1F68 PUSH1 0x1D DUP4 PUSH2 0x1307 JUMP JUMPDEST SWAP2 POP PUSH2 0x1F73 DUP3 PUSH2 0x1F34 JUMP JUMPDEST PUSH1 0x20 DUP3 ADD SWAP1 POP SWAP2 SWAP1 POP JUMP JUMPDEST PUSH0 PUSH1 0x20 DUP3 ADD SWAP1 POP DUP2 DUP2 SUB PUSH0 DUP4 ADD MSTORE PUSH2 0x1F95 DUP2 PUSH2 0x1F5C JUMP JUMPDEST SWAP1 POP SWAP2 SWAP1 POP JUMP JUMPDEST PUSH2 0x1FA5 DUP3 PUSH2 0x12FD JUMP JUMPDEST PUSH8 0xFFFFFFFFFFFFFFFF DUP2 GT ISZERO PUSH2 0x1FBE JUMPI PUSH2 0x1FBD PUSH2 0x159D JUMP JUMPDEST JUMPDEST PUSH2 0x1FC8 DUP3 SLOAD PUSH2 0x17C1 JUMP JUMPDEST PUSH2 0x1FD3 DUP3 DUP3 DUP6 PUSH2 0x1A41 JUMP JUMPDEST PUSH0 PUSH1 0x20 SWAP1 POP PUSH1 0x1F DUP4 GT PUSH1 0x1 DUP2 EQ PUSH2 0x2004 JUMPI PUSH0 DUP5 ISZERO PUSH2 0x1FF2 JUMPI DUP3 DUP8 ADD MLOAD SWAP1 POP JUMPDEST PUSH2 0x1FFC DUP6 DUP3 PUSH2 0x1AAF JUMP JUMPDEST DUP7 SSTORE POP PUSH2 0x2063 JUMP JUMPDEST PUSH1 0x1F NOT DUP5 AND PUSH2 0x2012 DUP7 PUSH2 0x192A JUMP JUMPDEST PUSH0 JUMPDEST DUP3 DUP2 LT ISZERO PUSH2 0x2039 JUMPI DUP5 DUP10 ADD MLOAD DUP3 SSTORE PUSH1 0x1 DUP3 ADD SWAP2 POP PUSH1 0x20 DUP6 ADD SWAP5 POP PUSH1 0x20 DUP2 ADD SWAP1 POP PUSH2 0x2014 JUMP JUMPDEST DUP7 DUP4 LT ISZERO PUSH2 0x2056 JUMPI DUP5 DUP10 ADD MLOAD PUSH2 0x2052 PUSH1 0x1F DUP10 AND DUP3 PUSH2 0x1A93 JUMP JUMPDEST DUP4 SSTORE POP JUMPDEST PUSH1 0x1 PUSH1 0x2 DUP9 MUL ADD DUP9 SSTORE POP POP POP JUMPDEST POP POP POP POP POP POP JUMP JUMPDEST PUSH0 PUSH2 0x2075 DUP3 PUSH2 0x129F JUMP JUMPDEST SWAP2 POP PUSH2 0x2080 DUP4 PUSH2 0x129F JUMP JUMPDEST SWAP3 POP DUP3 DUP3 SUB SWAP1 POP DUP2 DUP2 GT ISZERO PUSH2 0x2098 JUMPI PUSH2 0x2097 PUSH2 0x1DB7 JUMP JUMPDEST JUMPDEST SWAP3 SWAP2 POP POP JUMP JUMPDEST PUSH0 PUSH1 0x20 DUP3 ADD SWAP1 POP PUSH2 0x20B1 PUSH0 DUP4 ADD DUP5 PUSH2 0x136D JUMP JUMPDEST SWAP3 SWAP2 POP POP JUMP JUMPDEST PUSH32 0x526567697374726174696F6E2073657373696F6E206973206E6F7420636C6F73 PUSH0 DUP3 ADD MSTORE PUSH32 0x6564000000000000000000000000000000000000000000000000000000000000 PUSH1 0x20 DUP3 ADD MSTORE POP JUMP JUMPDEST PUSH0 PUSH2 0x2111 PUSH1 0x22 DUP4 PUSH2 0x1307 JUMP JUMPDEST SWAP2 POP PUSH2 0x211C DUP3 PUSH2 0x20B7 JUMP JUMPDEST PUSH1 0x40 DUP3 ADD SWAP1 POP SWAP2 SWAP1 POP JUMP JUMPDEST PUSH0 PUSH1 0x20 DUP3 ADD SWAP1 POP DUP2 DUP2 SUB PUSH0 DUP4 ADD MSTORE PUSH2 0x213E DUP2 PUSH2 0x2105 JUMP JUMPDEST SWAP1 POP SWAP2 SWAP1 POP JUMP INVALID LOG2 PUSH5 0x6970667358 0x22 SLT KECCAK256 0xC7 RETURNDATACOPY 0x27 LT CREATE CALLDATACOPY STATICCALL SDIV SWAP9 PUSH6 0x70EC798EF88A 0xEB 0xD8 0x25 RETURNDATASIZE 0xDA BYTE 0xAE ISZERO 0xCD SELFBALANCE 0xCB SSTORE 0xCD PUSH14 0x48F464736F6C634300081D003300 "
				},
				"gasEstimates": {
					"creation": {
						"codeDepositCost": "1714200",
						"executionCost": "infinite",
						"totalCost": "infinite"
					},
					"external": {
						"closeProposaRegistration()": "infinite",
						"currentStatus()": "2620",
						"endVotingSession()": "infinite",
						"getWinnerProposal()": "infinite",
						"openProposalRegistration()": "infinite",
						"owner()": "2603",
						"proposals(uint256)": "infinite",
						"proposeProposals(string)": "infinite",
						"registerVoter(address)": "infinite",
						"renounceOwnership()": "infinite",
						"startVotingSession()": "infinite",
						"tallyVotes()": "infinite",
						"transferOwnership(address)": "infinite",
						"vote(address,uint256)": "infinite",
						"voters(address)": "infinite",
						"winnerProposal()": "infinite"
					}
				},
				"methodIdentifiers": {
					"closeProposaRegistration()": "33321a7c",
					"currentStatus()": "ef8a9235",
					"endVotingSession()": "a7bfab16",
					"getWinnerProposal()": "a3c1885b",
					"openProposalRegistration()": "b2c63487",
					"owner()": "8da5cb5b",
					"proposals(uint256)": "013cf08b",
					"proposeProposals(string)": "c9e3fd47",
					"registerVoter(address)": "38db6dd3",
					"renounceOwnership()": "715018a6",
					"startVotingSession()": "ee74c678",
					"tallyVotes()": "378a2178",
					"transferOwnership(address)": "f2fde38b",
					"vote(address,uint256)": "5f74bbde",
					"voters(address)": "a3ec138d",
					"winnerProposal()": "55256a0a"
				}
			},
			"storageLayout": {
				"storage": [
					{
						"astId": 8,
						"contract": "contracts/Voting.sol:Voting",
						"label": "_owner",
						"offset": 0,
						"slot": "0",
						"type": "t_address"
					},
					{
						"astId": 206,
						"contract": "contracts/Voting.sol:Voting",
						"label": "voters",
						"offset": 0,
						"slot": "1",
						"type": "t_mapping(t_address,t_struct(Voter)187_storage)"
					},
					{
						"astId": 209,
						"contract": "contracts/Voting.sol:Voting",
						"label": "currentStatus",
						"offset": 0,
						"slot": "2",
						"type": "t_enum(WorkflowStatus)199"
					},
					{
						"astId": 213,
						"contract": "contracts/Voting.sol:Voting",
						"label": "proposals",
						"offset": 0,
						"slot": "3",
						"type": "t_array(t_struct(Proposal)192_storage)dyn_storage"
					},
					{
						"astId": 216,
						"contract": "contracts/Voting.sol:Voting",
						"label": "winnerProposal",
						"offset": 0,
						"slot": "4",
						"type": "t_struct(Proposal)192_storage"
					}
				],
				"types": {
					"t_address": {
						"encoding": "inplace",
						"label": "address",
						"numberOfBytes": "20"
					},
					"t_array(t_struct(Proposal)192_storage)dyn_storage": {
						"base": "t_struct(Proposal)192_storage",
						"encoding": "dynamic_array",
						"label": "struct Proposal[]",
						"numberOfBytes": "32"
					},
					"t_bool": {
						"encoding": "inplace",
						"label": "bool",
						"numberOfBytes": "1"
					},
					"t_enum(WorkflowStatus)199": {
						"encoding": "inplace",
						"label": "enum WorkflowStatus",
						"numberOfBytes": "1"
					},
					"t_mapping(t_address,t_struct(Voter)187_storage)": {
						"encoding": "mapping",
						"key": "t_address",
						"label": "mapping(address => struct Voter)",
						"numberOfBytes": "32",
						"value": "t_struct(Voter)187_storage"
					},
					"t_string_storage": {
						"encoding": "bytes",
						"label": "string",
						"numberOfBytes": "32"
					},
					"t_struct(Proposal)192_storage": {
						"encoding": "inplace",
						"label": "struct Proposal",
						"members": [
							{
								"astId": 189,
								"contract": "contracts/Voting.sol:Voting",
								"label": "description",
								"offset": 0,
								"slot": "0",
								"type": "t_string_storage"
							},
							{
								"astId": 191,
								"contract": "contracts/Voting.sol:Voting",
								"label": "voteCount",
								"offset": 0,
								"slot": "1",
								"type": "t_uint256"
							}
						],
						"numberOfBytes": "64"
					},
					"t_struct(Voter)187_storage": {
						"encoding": "inplace",
						"label": "struct Voter",
						"members": [
							{
								"astId": 182,
								"contract": "contracts/Voting.sol:Voting",
								"label": "isRegistered",
								"offset": 0,
								"slot": "0",
								"type": "t_bool"
							},
							{
								"astId": 184,
								"contract": "contracts/Voting.sol:Voting",
								"label": "hasVoted",
								"offset": 1,
								"slot": "0",
								"type": "t_bool"
							},
							{
								"astId": 186,
								"contract": "contracts/Voting.sol:Voting",
								"label": "votedProposalId",
								"offset": 0,
								"slot": "1",
								"type": "t_uint256"
							}
						],
						"numberOfBytes": "64"
					},
					"t_uint256": {
						"encoding": "inplace",
						"label": "uint256",
						"numberOfBytes": "32"
					}
				}
			},
			"userdoc": {
				"kind": "user",
				"methods": {},
				"version": 1
			}
		}
	}
}